:020000040800F2
:10000000600700202D0B0008D1020008D302000871
:10001000D7020008DB020008DF0200080000000031
:10002000000000000000000000000000E3020008E3
:10003000E502000800000000E7020008E9020008ED
:10004000470B0008470B0008470B0008470B000848
:10005000470B0008470B0008470B0008470B000838
:10006000470B0008470B0008470B0008470B000828
:10007000470B0008470B0008470B0008470B000818
:10008000470B0008470B0008470B0008470B000808
:10009000470B0008470B0008470B0008470B0008F8
:1000A000470B0008470B0008470B0008470B0008E8
:1000B000470B0008470B0008470B0008470B0008D8
:1000C000470B0008470B0008470B0008470B0008C8
:1000D000470B0008A10A0008470B0008470B00085F
:1000E000470B0008470B0008470B0008470B0008A8
:1000F000470B0008470B0008470B0008470B000898
:10010000470B0008470B0008470B0008470B000887
:10011000470B0008470B0008470B0008470B000877
:10012000470B0008470B0008470B0008470B000867
:1001300000F002F800F047F80AA090E8000C8244B2
:100140008344AAF10107DA4501D100F03CF8AFF28F
:10015000090EBAE80F0013F0010F18BFFB1A43F0A5
:1001600001031847A4290000C4290000103A24BF45
:1001700078C878C1FAD8520724BF30C830C144BF0C
:1001800004680C607047000000230024002500264E
:10019000103A28BF78C1FBD8520728BF30C148BFEA
:1001A0000B607047662902F06384002070471FB51A
:1001B00001F088FD04000020002102F0F1FAE06067
:1001C0001FBD10B510BD01F099FE1146FFF7EFFFFE
:1001D00000F008F801F0B7FE03B4FFF7F2FF03BC2C
:1001E00000F004FC1FB500200290039001900090E5
:1001F00000F092FB4FF4A06000F0B8FC4FF4E13047
:1002000000F002FC00F062F900F013FB47E002A8E6
:1002100000F01CFB64220299514301EB8101C1F300
:100220005521880A02F0C6FB0190C8220399514368
:1002300001EB8101C1F355214FF4FA72C2EB912019
:1002400002F0B8FB00901649019802F0F1FA064658
:1002500002F0C2FA044622460B4612A001F07AFAD6
:100260000F49009802F0E4FA064602F0B5FA044697
:1002700022460B460FA001F06DFA12A001F06AFAB7
:100280000020114908604FF47A7000F082FB0120D1
:100290000E49C1F8B4014FF47A7000F07AFBB6E76A
:1002A00000002041CAAAB6C83A252E316625250D80
:1002B0000A000000CEC2B6C83A252E3166B6C80D77
:1002C0000A0000000D0A0000B40122420000224290
:1002D000704700BFFEE700BFFEE700BFFEE700BFBC
:1002E000FEE7704770477047704700000CB500206C
:1002F000019000906C48006840F480306A490860C2
:1003000000BF6948006800F4003000900198401C6C
:100310000190009818B90198B0F5A06FF1D162482A
:10032000006800F4003010B10120009001E00020CE
:1003300000900098012843D15C48006840F010000C
:100340005A4908600846006820F003000860084623
:10035000006840F002000860534840685249486015
:100360000846406848600846406840F4806048603D
:100370000846406820F47C1048600846406840F415
:10038000E81048600846006840F08070086000BFD0
:100390004548006800F000700028F9D042484068E5
:1003A00020F00300404948600846406840F00200E1
:1003B000486000BF3C48406800F00C000828F9D1B4
:1003C0000CBD10B5FFF792FF10BD10B536480068A0
:1003D00040F001003449086008464068344908404C
:1003E0003149486008460068324908402E49086093
:1003F0000846006820F4802008600846406820F421
:10040000FE0048604FF41F008860FFF7DAFF4FF0EE
:1004100000602949086010BD10B5002100200022AD
:10042000214B5B6803F00C0121B1042906D0082997
:1004300028D107E0214B224C236027E01F4B204CA2
:10044000236023E0184B5B6803F47010164B5B6865
:1004500003F48032022303EB904022B9194B43434B
:10046000174C23600DE0104B5B6803F4003323B19D
:10047000144B4343124C236003E0104B4343104C96
:10048000236003E00D4B0E4C236000BF00BF064B02
:100490005B68C3F303130C4CE15C094B1B68CB4056
:1004A000074C236010BD00000010024000200240F5
:1004B0000000FFF8FFFFF6FE08ED00E000127A00F2
:1004C0000000002000093D000400002008B50121C3
:1004D000102001F0D9F84FF40050ADF800001020C2
:1004E0008DF8030003208DF802006946044800F0EF
:1004F0000BFC4FF40051024800F0B3FC08BD0000B3
:100500000010014008B50121082001F0BDF8C0200D
:10051000ADF8000010208DF8030003208DF80200D4
:1005200069468D4800F0F0FBC0218B4800F099FC33
:1005300008BD10B58848006820F070408649086002
:100540000846006840F04050086001208349086078
:100550008349C1F89801042000F0F7F900207F4991
:100560000860042000F0F1F900207D49C1F89801ED
:1005700010BD10B57848006820F0704076490860DA
:100580000846006840F04050086000207349091F89
:1005900008607349C1F89C01042000F0D6F90120DD
:1005A0006E49091F08606E49C1F89C01042000F0E3
:1005B000CCF910BD10B500246748006820F07040E9
:1005C000654908600846006840F000400860012066
:1005D0006249086000F0B9F901206149C1F8980149
:1005E00000F0B3F907E0601CC4B2FA2C03DDFFF79A
:1005F000C0FF002010BD5948803800680028F2D1A3
:100600005649091F08600120F4E710B5002053493E
:10061000091F08605048006820F070404E4908608B
:100620000846006840F04050086000204C49C1F87E
:100630009C01022000F089F901204849091F086047
:10064000022000F082F900204549C1F8980110BD50
:1006500010B500204149091F08603F48006820F09C
:1006600070403D4908600846006840F0405008600E
:1006700001203B49C1F89C01022000F066F90120ED
:100680003649091F0860022000F05FF90020344954
:10069000C1F8980110BD70B504462F48006820F0DD
:1006A00070402D4908600846006840F040500860DE
:1006B00000202A49091F0860002517E0E0092749A2
:1006C00008606006040E022000F03FF90120244972
:1006D000C1F89801022000F038F900201F49091FD5
:1006E0000860022000F031F9681CC5B2082DE5DB76
:1006F00070BD70B5054600241748006820F07040B2
:10070000154908600846006840F00040086000266F
:1007100017E000201149091F0860022000F015F9B8
:1007200001200F49C1F898016006040E0B4880387B
:10073000006808B1601CC4B2012000F006F9701C0A
:10074000C6B2082EE5DB15B9FFF782FF01E0FFF71F
:100750005CFF204670BD0000000C01409C812142DE
:100760000080214270B5FFF7E4FE7120FFF793FF90
:10077000FFF720FF05462846FFF7BBFF0446FFF7BB
:1007800067FFFFF7F6FE204670BD10B5FFF7D1FEFC
:100790007020FFF780FFFFF70DFFAC20FFF77BFF16
:1007A000FFF708FF3320FFF776FFFFF703FF002076
:1007B000FFF771FFFFF7FEFEFFF7DBFE10BD10B580
:1007C000FFF7A0FEFFF7B5FE7020FFF764FFFFF70D
:1007D000F1FEA820FFF75FFFFFF7ECFE0020FFF718
:1007E0005AFFFFF7E7FE0020FFF755FFFFF7E2FE95
:1007F000FFF7BFFE0A2000F0CCF8FFF79AFE70204A
:10080000FFF749FFFFF7D6FEBE20FFF744FFFFF7D3
:10081000D1FE0820FFF73FFFFFF7CCFE0020FFF7D7
:100820003AFFFFF7C7FEFFF7A4FE0A2000F0B1F879
:1008300010BD10B5282000F0ACF8FFF793FF00F0D2
:100840000800082801D0FFF7BAFF10BDF0B587B047
:1008500006460020069005900490039002900190B7
:1008600000250027FFF791FF502000F092F808E0E4
:10087000012000F08EF83846791C8FB2642800DB26
:1008800005E0FFF76FFF00F080008028F0D000BF88
:10089000FFF74FFE7120FFF7FEFEFFF78BFE0446C9
:1008A0002046FFF726FF06902046FFF722FF05901F
:1008B0002046FFF71EFF04902046FFF71AFF039023
:1008C0002046FFF716FF02900CB9012100E000213D
:1008D0000846FFF70EFF0190FFF74BFE9DF814004E
:1008E000284305029DF81000284305029DF80C00DE
:1008F00005432D09356000259DF80C0028430502AD
:100900009DF80800284305029DF804000543C5F33F
:100910001305756007B0F0BD10B56FF0040000F06E
:1009200074F92E4800682E49B0FBF1F02D4908708B
:100930000846007800EB4001C1EBC0104FF6FF7194
:1009400001EAC0002849088010BD0146254A1278F6
:100950004A434FF0E0235A6100229A611A46126915
:1009600042F001021A6100BF4FF0E022106900F06E
:1009700001021AB100F48032002AF5D04FF0E022D3
:10098000126922F001024FF0E0231A6100229A61FD
:1009900070470146144A12884A434FF0E0235A61D7
:1009A00000229A611A46126942F001021A6100BFE0
:1009B0004FF0E022106900F001021AB100F4803219
:1009C000002AF5D04FF0E022126922F001024FF028
:1009D000E0231A6100229A617047000000000020A5
:1009E00000127A00140000201600002000BF70479B
:1009F00000BF4A4A128802F04002002AF9D0C2B26F
:100A0000464B1B1D1A80704710B586B00446012165
:100A100044F2040000F038FE4FF40070ADF814000A
:100A200003208DF8160018208DF8170005A93C4802
:100A300000F06AF94FF48060ADF8140004208DF8DE
:100A4000170005A9364800F05FF925208DF8000051
:100A500003208DF801008DF8020001208DF80300BD
:100A6000684600F088F801940020ADF80800ADF861
:100A70000A00ADF80C00ADF810000C20ADF80E0027
:100A800001A9264800F0D1FA012240F2255123485D
:100A900000F063FB0121214800F053FB06B010BDBC
:100AA00010B540F225511D4800F03CFC10B31B4826
:100AB00000F0B8FBC4B21B48008800F40040C8B97D
:100AC0001848008800F4804060B10A2C03D0002050
:100AD0001449088020E01348008840F40040114980
:100AE000088019E00D2C06D10E48008840F48040A3
:100AF0000C49088010E00B480088C0F30D000A493B
:100B00000C5408480088401C0649088008460088A4
:100B1000C72801DD0020088010BD0000003801401A
:100B2000000801401C0000203400002009488047D4
:100B300009480047FEE7FEE7FEE7FEE7FEE7FEE7BF
:100B4000FEE7FEE7FEE7FEE704480549054A064BD7
:100B500070470000CB03000831010008600100204D
:100B6000600700206003002060030020314901433A
:100B7000314A1160704770B5002100230F22C478FC
:100B800004B32D4C246804F4E064C4F5E064210A45
:100B9000C1F10403CA40447804FA03F18478144094
:100BA00021430901254C0678A155047804F01F055E
:100BB0000124AC4005786D11AD0005F1E025C5F8C4
:100BC000004109E0047804F01F050124AC401C4DED
:100BD0000678761145F8264070BD1A4A0A4002434D
:100BE000154B1B1F1A60704739B1134A121D12684A
:100BF0000243114B1B1D1A6006E00F4A121D1268BA
:100C000082430D4B1B1D1A607047042808D14FF01A
:100C1000E021096941F004014FF0E022116107E091
:100C20004FF0E021096921F004014FF0E022116149
:100C3000704700000000FA050CED00E000E400E061
:100C400080E100E080FFFF1F10B50446CC488442DD
:100C500008D10121042000F031FD0021042000F022
:100C60002DFD46E0C748844208D10121082000F04C
:100C700025FD0021082000F021FD3AE0C248844211
:100C800008D10121102000F019FD0021102000F0F2
:100C900015FD2EE0BD48844208D10121202000F03E
:100CA0000DFD0021202000F009FD22E0B84884421B
:100CB00008D10121402000F001FD0021402000F07A
:100CC000FDFC16E0B348844208D10121802000F0E9
:100CD000F5FC0021802000F0F1FC0AE0AE488442DF
:100CE00007D10121801500F0E9FC0021A01500F0DA
:100CF000E5FC10BD10B50121084600F0DFFC002125
:100D0000012000F0DBFC10BD2DE9F041024600257A
:100D10000026002000230024002791F803C00CF0D7
:100D20000F0591F803C00CF0100CBCF1000F03D0BC
:100D300091F802C04CEA050591F800C0BCF1000F23
:100D400031D0146800202BE04FF0010C0CFA00F3B6
:100D5000B1F800C00CEA03069E4220D183004FF098
:100D60000F0C0CFA03F7BC4305FA03FC4CEA04042D
:100D700091F803C0BCF1280F06D14FF0010C0CFA1A
:100D800000FCC2F814C00AE091F803C0BCF1480F9F
:100D900005D14FF0010C0CFA00FCC2F810C0401C49
:100DA0000828D1D31460B1F800C0BCF1FF0F34DDC6
:100DB000546800202EE000F1080C4FF0010808FAFA
:100DC0000CF3B1F800C00CEA03069E4221D1830067
:100DD0004FF00F0C0CFA03F7BC4305FA03FC4CEA86
:100DE000040491F803C0BCF1280F05D100F1080CF0
:100DF00008FA0CF8C2F8148091F803C0BCF1480F4F
:100E000007D100F1080C4FF0010808FA0CF8C2F8FD
:100E10001080401C0828CED35460BDE8F0814FF606
:100E2000FF710180022181700421C1707047024668
:100E3000002093680B400BB1012000E000207047B8
:100E40000146886880B2704702460020D3680B4094
:100E50000BB1012000E0002070470146C86880B255
:100E6000704701617047416170470AB1016100E05C
:100E700041617047C16070474FF480320A4382611C
:100E80008161826182698269704702460020434B1A
:100E900018684FF68073184040EA021008433F4B31
:100EA000186070473E49C8617047F0B50A46002394
:100EB00000240021002500F00046B6F1004F02D1C9
:100EC000364EF16901E0354E7168C0F3034583B2D7
:100ED00000F44016B6F5401F08D121F070612F4E86
:100EE000766826F070662D4F7E6012E000F4801662
:100EF000B6F5801F06D1032606FA05F4A14341F09A
:100F0000706106E0460D360103FA06F6B14341F082
:100F1000706122B1460D360103FA06F6314300F046
:100F20000046B6F1004F02D11C4EF16101E01B4EAC
:100F30007160F0BD30B500228B071C0F0F2303FA40
:100F400004F2164B08338C1053F824309343134C9F
:100F500008348D1044F8253023468C1053F8243083
:100F60008C07240F00FA04F423430C4C08348D1032
:100F700044F8253030BD0A49DC3108607047000074
:100F800000080140000C0140001001400014014025
:100F900000180140001C01400020014000000140F9
:100FA0000000204210B50446FB48844209D10121CB
:100FB000880300F083FB00214FF4804000F07EFBAB
:100FC00032E0F648844209D10121480400F083FB55
:100FD00000214FF4003000F07EFB25E0F048844211
:100FE00009D10121880400F076FB00214FF4802014
:100FF00000F071FB18E0EB48844209D10121C804DC
:1010000000F069FB00214FF4002000F064FB0BE0CE
:10101000E548844208D10121080500F05CFB00216D
:101020004FF4801000F057FB10BD2DE9F04786B05B
:1010300005460E460024A24600BFA1460027B089FF
:1010400000B100BF2F462C8A4CF6FF700440F08898
:1010500004432C82AC894EF6F3100440B0883189E9
:101060000843718908430443AC81AC8A4FF6FF40C2
:101070000440B0890443AC8201A800F098FAC64845
:10108000874202D1DDF810A001E0DDF80CA0A889AC
:1010900000F4004040B10AEBCA0000EB0A103168CE
:1010A0004900B0FBF1F807E00AEBCA0000EB0A10B8
:1010B00031688900B0FBF1F86420B8FBF0F004015E
:1010C0002009642101FB1089A88900F4004040B187
:1010D000322000EBC900B0FBF1F000F00700044340
:1010E00008E0322000EB09106421B0FBF1F000F0C1
:1010F0000F0004432C8106B0BDE8F0874FF4165171
:10110000016000218180C18001810C214181002189
:101110008181704710B502460020108A4FF2FF030C
:1011200018400B884C8823438C882343CC88234366
:101130001843108210BD0021018041808180C18050
:10114000704721B1828942F40052828104E0828991
:101150004DF6FF731A4082817047F0B503460024B4
:1011600000260025002040F66A17B94200D100BFD2
:101170001846C1F3421401F01F06012707FA06F5CD
:10118000012C01D10C3004E0022C01D1103000E020
:1011900014301AB107682F43076002E00768AF43B5
:1011A0000760F0BD1AB1838A0B43838202E0838A11
:1011B0008B4383827047028A4FF6F0731A40028293
:1011C000028A0A430282704782894FF2FF731A40F3
:1011D000828182890A438281704721B1828942F0EB
:1011E0000202828104E082894FF6FD731A408281F7
:1011F0007047028A4FF6DF731A400282028A0A435E
:101200000282704721B1028A42F48042028204E0E5
:10121000028A4BF6FF731A4002827047C1F308023C
:101220008280704701468888C0F308007047818932
:1012300041F0010181817047028BD2B20283028B9F
:1012400042EA012202837047028B02F47F4202834A
:10125000028B0A430283704721B1828A42F0200246
:10126000828204E0828A4FF6DF731A4082827047DE
:1012700021B1828A42F01002828204E0828A4FF613
:10128000EF731A408282704721B1828A42F00802CD
:10129000828204E0828A4FF6F7731A408282704796
:1012A00021B1828942F40042828103E08289C2F343
:1012B0000E028281704721B1828A42F400628282EA
:1012C00004E0828A4FF2FF731A4082827047828A5A
:1012D0004FF6FB731A408282828A0A4382827047E9
:1012E00021B1828A42F00202828204E0828A4FF6B1
:1012F000FD731A408282704702460020B1F5007FDC
:1013000000D100BF13880B400BB1012000E000208A
:10131000704701F40072B2F5007F00D100BFCA43EC
:101320000280704770B5024600240023002500208B
:1013300040F66A16B14200D100BFC1F3421501F078
:101340001F03012606FA03F3012D02D196893340CB
:1013500006E0022D02D1168A334001E0968A33401E
:101360000C12012606FA04F41688344013B10CB1AD
:10137000012000E0002070BD10B50022002340F6DF
:101380006A14A14200D100BF0A1201249440A3B202
:10139000DC43048010BD00000038014000440040E0
:1013A00000480040004C004000500040DF4800680A
:1013B00040F00100DD49086008464068DC4908400B
:1013C000DA49486008460068DA490840D7490860A9
:1013D0000846006820F4802008600846406820F431
:1013E000FE0048604FF41F0088607047CF490968CD
:1013F00021F48031CD4A11601146096821F4802121
:101400001160B0F5803F03D0B0F5802F0ED106E01B
:10141000C649096841F48031C44A116007E0C349F4
:10142000096841F4A021C14A116000E000BF00BF7B
:10143000704710B501460022002300204A11012AFE
:1014400002D1BA4C236806E0022A02D1B74C236AC3
:1014500001E0B64C636A01F01F02012494401C4075
:101460000CB1012000E0002010BD38B50020009034
:101470000024002500BF3120FFF7DBFF0546009860
:10148000401C00900098B0F5A06F01D0002DF2D064
:101490003120FFF7CEFF08B1012400E000242046F0
:1014A00038BD01460020A14A106820F0F80040EA4B
:1014B000C10010607047A0490860704702460020D4
:1014C0009A4B586820F47C1042EA01031843974B6A
:1014D0005860704798490866704701460020934A53
:1014E000506820F003000843506070478F48406800
:1014F00000F00C007047014600208C4A506820F034
:10150000F00008435060704701460020874A506849
:1015100020F4E06008435060704701460020834A91
:10152000506820F4605040EAC1005060704729B113
:101530007E4A527A02437D4B5A7204E07B4A527AC9
:1015400082437A4B5A7270477B49D83108607047A2
:1015500001460020754A506820F44040084350601E
:1015600070470021714A20321170704A82F82010B1
:10157000012802D004280AD104E001216B4A20325C
:10158000117005E00521694A2032117000E000BFAA
:1015900000BF70476949086070476449096A0143A0
:1015A000624A11627047654944390860704730B536
:1015B00000210022002400235C4D6D6805F00C0121
:1015C00021B1042905D0082923D105E05C4D05602F
:1015D00022E05B4D05601FE0544D6D6805F470120C
:1015E000524D6D6805F48034022505EB92421CB91A
:1015F000544D554305600BE04C4D6D6805F40035C6
:101600001DB1504D5543056002E04D4D55430560F9
:1016100002E04B4D056000BF00BF444D6D6805F012
:10162000F0010909484D6B5C0568DD4045603F4DA0
:101630006D6805F4E061090A434D6B5C4568DD4067
:1016400085603A4D6D6805F46051C90A3E4D6B5C8A
:101650004568DD40C560354D6D6805F44041890B36
:101660003A4D6B5CC568B5FBF3F5056130BD29B13A
:101670002E4A526902432D4B5A6104E02B4A5269AB
:1016800082432A4B5A61704729B1284A9269024322
:10169000264B9A6104E0254A92698243234B9A6162
:1016A000704729B1214AD2690243204BDA6104E034
:1016B0001E4AD26982431D4BDA61704729B11B4A29
:1016C000D2680243194BDA6004E0184AD2688243B8
:1016D000164BDA60704729B1144A12690243134B62
:1016E0001A6104E0114A12698243104B1A61704773
:1016F00012494039086070470F49C86470470B4968
:10170000C87170470948406A40F0807007494862D4
:10171000704701460020054A92680A400AB101203C
:1017200000E00020704701498872704700100240B5
:101730000000FFF8FFFFF6FE000042428004424234
:1017400000127A0000093D001E0000202E0000203B
:10175000704700000FB4044910B503AA029800F0C6
:101760009FFA10BC5DF814FB180000202DE9F0472B
:101770004FF0000A89460446C0F820A02046E168E0
:101780008847002876D0252806D0D4E90121904743
:10179000206A401C2062F1E7E16820460025884766
:1017A000C4F81CA006460027C4F818A02A2E09D0A9
:1017B000304600F0EDFF38B304EB8708303EC8F840
:1017C000186019E059F8041B204604EB8702916168
:1017D000E1688847012F064618D1E069002820DA21
:1017E00025F020051DE0D8F8180000EB800006EB7E
:1017F00040003038C8F818002046E168884706469F
:1018000000F0C6FF0028EED1012F0AD02E2E08D1FD
:101810002046E16888477F1C0646022F45F02005D8
:10182000C4DBA069002803DA404245F00105A0614D
:10183000E80701D025F01005B6B1A6F1410019283E
:1018400002D8203645F400654A46314620462560D8
:101850004D46FEF7A7FC58B1012806D0ED1D25F036
:10186000070000F1080989E704E005F1040985E7AC
:1018700030468AE7206ABDE8F087704770477047B6
:10188000704770472DE9FF4F0C461E464FF0FF375B
:101890008BB0D2E90001DDF860800A908A46C1F37E
:1018A0000A5505B93D46002108464FF00000BAF13F
:1018B000000F00F4400005DA00EB80004FF4400117
:1018C00001EA50004FEA9059B9F1010F00DDB94625
:1018D0000A9850EA4A000ED044F61050A5F2FF359F
:1018E00045432F14B8F1000F1ED07542291E1EDD8E
:1018F000C9F100021CE0B8F1010F4FF0000001D067
:10190000302103E0F24305E02154401CB042FBDBF0
:1019100030460022002121540B99C1F80880C1E90A
:1019200000200FB0BDE8F08FBD1B6D1CDEE74A46FE
:1019300000DA694206A800F067FA06AB93E80700F0
:1019400003AB83E8070050460A9900F045FB8DE899
:101950000700A0F500501F3800900398002D0ADD05
:1019600042F21F014A460844002303A90390684637
:1019700000F0AEFD09E0A0F500504A461F380023F4
:1019800003A90390684600F0B8FD8DE80700000445
:10199000000C03D04FF0FF30410800E01046B8F1D2
:1019A000000F03D00022009215461EE0751E05D4DC
:1019B00000F08CF9303262556D1EF9D5B346012224
:1019C000084302D000227F1C04E02078302801D197
:1019D00000227F1E002A099784D01DE0112D07DA0E
:1019E00000F074F9303262556D1C50EA0102F5D1F5
:1019F000084302D00098C8B10EE00021681E05E03F
:101A0000235C625C63542254401E491C8142F7DB14
:101A1000AB46A81B401E0990002004F80B000B9851
:101A2000099AC0F80880C0E9002B7AE711264FF028
:101A3000000857E72DE9F04F88460446D21D22F0F2
:101A4000070191B0D1E90001CDE90A0100F08CFE57
:101A500002460B98C00F01D02D2007E020688107B7
:101A600001D52B2002E0202101EAC000032A0990C1
:101A700001D0072A05DB03464146204600F084F9E1
:101A80000BE12078800601D5E06900E00620B8F17E
:101A9000650F814606D0B8F1660F18D0B8F1670F10
:101AA00070D131E00020B9F1110F009001DB11235A
:101AB00001E009F101030AAA01A90CA8FFF7E2FE5F
:101AC000DDE90C70002609F10105834647E001209D
:101AD0004B4600904FF000470AAA01A90CA8FFF757
:101AE000D1FEDDE90DB00C995D46002610B909F173
:101AF00001000D18B9EB050003D4C0F1FF3609F160
:101B00000105A5EB09002BE0B9F1010F01DA4FF057
:101B100001090020B9F1110F0090484601DD1123A1
:101B200000E003460AAA01A90CA8FFF7ABFEDDE915
:101B30000C704D4600268346207800070AD4AB453A
:101B400000DA5D4601A8012D04DD411911F8011CE0
:101B5000302907D04F4502DA17F1040F04DA0120CB
:101B600082460FE06D1EEEE7002F02DCED1B3E44C7
:101B700003E0781CA84200DD7D1CB81B00F1010ABF
:101B80004FF000472078000703D4AA4501DB4FF04F
:101B9000FF3A0021B7F1004F0DF143088DF84310D3
:101BA00024D002202B23002F01DA7F422D230A218B
:101BB000021EA0F1010000DC5FB197FBF1FC97FB76
:101BC000F1F201FB1C7C17460CF1300C08F801CD3A
:101BD000EEE7A8F1010003702188090501D5452130
:101BE00000E06521A0F1010800F8011C09980FA987
:101BF000A1EB0807FF1D00B10120411901EBEA70BC
:101C0000A1693844081A401EA0612078C00602D499
:101C10002046AFF30080099828B1D4E9012190470C
:101C2000206A401C20622078C00622D52046AFF3EF
:101C300000801EE0002E04DBB34502DD01A8805DBC
:101C400000E03020D4E901219047206A401C206246
:101C5000761CAAF101005FEA000A0AD100F032F80E
:101C6000C0680168405CD4E901219047206A401CAB
:101C70002062281EA5F10105DCDC07E0D4E9012182
:101C800018F8010B9047206A401C2062381EA7F10B
:101C90000107F3DC2046AFF30080032011B041E6DA
:101CA000074B70B50D467B4400F05BF804462846B0
:101CB00000F01CF910B14FF0FF3070BD204670BD30
:101CC00047EDFFFF004870471C01002030B5B0F120
:101CD0000A024FEA900E71F100034EEA817EB0EBEA
:101CE0000E0061EB91014FEA101E4EEA017E10EBEF
:101CF0000E0041EB11114FEA102E4EEA016E10EB6F
:101D00000E0041EB11214FEA104E4EEA014E10EB4E
:101D10000E0041EB1141401841F100014FEAD000A3
:101D200040EA41704FEAD10110EB80054FEA81048F
:101D300044EA907444EB01046D1944EB0404521B13
:101D4000A3414FF0000348BF0A3200D530BD401C0C
:101D500041F1000130BD000001694A1C02610878B0
:101D6000704700B58FB0CDE90131002105910549DB
:101D70007944CDE9031011466846FFF7F7FC0FB030
:101D800000BD0000E5FFFFFF2DE9F0411F460446BE
:101D900003260168072A01F4006004DB08B116A5D8
:101DA00005E016A503E008B115A500E015A521F092
:101DB00010002060A069C01EA0610FB1401EA0618C
:101DC0002046AFF300804FB1D4E901213846904757
:101DD000206A401C2062C01C206206E0206AFAE7EC
:101DE000D4E9012115F8010B9047761EF8D2204660
:101DF000AFF30080BDE8F0814E414E006E616E0091
:101E0000494E4600696E66002DE9F0478146164648
:101E10008AB0354878440DC88DE80D0032487844C2
:101E2000801C03AC0DC884E80D0041F69B300844CB
:101E3000372190FBF1F290FBF1F5A5F1800501FB54
:101E400012041B3C02D56442012000E00020DFF8B0
:101E500098A080460027FA44AAF1BE0A0EE0E007E7
:101E60000AD03246684607EB470101230AEB81019D
:101E700000F043FB8DE8070064107F1C002CEED1BE
:101E8000194F7F44AE3F19E0E80715D007EB041067
:101E90000DF1180A90E80E008AE80E00C068F042C2
:101EA00001D1981908903246012306A903A800F031
:101EB00024FB03AB83E807006D10641C002DE3D105
:101EC0004FF0010332466946B8F1000F03A802D073
:101ED00000F0FEFA01E000F010FBC9E90001C9F8CA
:101EE00008200AB0BDE8F087D80C0000007B00F0A5
:101EF0008000704700487047FC0000207546FFF7DF
:101F0000F9FFAE4605006946534620F007008546B6
:101F100018B020B5FEF718FEBDE820404FF00006CF
:101F20004FF000074FF000084FF0000B21F00701C1
:101F3000AC46ACE8C009ACE8C009ACE8C009ACE804
:101F4000C0098D46704710B50446AFF300802046A7
:101F5000BDE81040FEF740B94FF0013C50F8042BAB
:101F600051F8043B9A4221D1A2EB0C03934313EAAC
:101F7000CC1317D150F8042B51F8043B9A4215D1D9
:101F8000A2EB0C03934313EACC130BD150F8042BB0
:101F900051F8043B9A4209D1A2EB0C03934313EA94
:101FA000CC13DBD04FF00000704700BFD01A01BA4D
:101FB000B1FA81F101F0180122FA01F0CB40C1F130
:101FC0002001DBB2C0B2C01A2CFA01F3D11A91433E
:101FD00011EAC311E6D170475FEA400C08BF91F0E7
:101FE000000F4FEA8C234FEAC12243EA51514FEAD6
:101FF0001C5018BF00F5F0404FEA300018BF41F008
:1020000000415FEA6C5C00F02980BCF1FF3F08BF33
:1020100040F080407047130C06BF12044FF0100CC4
:102020004FF0000C130E04BF12020CF1080C130F3A
:1020300004BF12010CF1040C930F04BF92000CF1C9
:10204000020CD30F04BF52000CF1010C11464FF0EB
:102050000002A0F11F00A0EB0C00704711F0004F30
:1020600008BF704731F000413FF4D5AF0B0C06BFFD
:1020700009044FF0100C4FF0000C0B0E04BF0902C6
:102080000CF1080C0B0F04BF09010CF1040C8B0FB1
:1020900004BF89000CF1020CCB0F04BF49000CF106
:1020A000010CCCF12003A0EB0C0022FA03F302FA9E
:1020B0000CF241EA030100F10100704720F07F4C6F
:1020C00080EA030023F07F47ACEB070303F57C5362
:1020D00000F0004003F1FF032DE980494FEA154B62
:1020E00009B44FEA144325EA0B4E24EA03480FF2E1
:1020F000042606EB132749083E785FEA320203FB09
:102100000667C7F5000707FB06F64FEA54374FEAA4
:10211000D64606F1020607FB066CCCF1005C4FEADE
:102120001C472CEA074C07FB06F40CFB06F504EBF6
:1021300015464FEA961634BF00204FF000404FEA94
:10214000D13706FB07FC4FEA1C4C0CFB0BF7D21BEC
:1021500003FB0CF761EB07010CFB0EF7B0EB07403C
:1021600072EB17420CFB08F734BFA2EB0742B2EB4D
:10217000074261EB17414FEA0C444FEA910706FB17
:1021800007FC4FEA1C4C0CFB0BF7B0EBC74072EBA3
:10219000573203FB0CF734BFA2EBC742B2EBC74286
:1021A00061EB57310CFB0EF7B0EBC70072EB5772C7
:1021B0000CFB08F734BFA2EBC702B2EBC70261EB1E
:1021C0005771039F4FEA816141EA921104EBCC04FD
:1021D0004FEAD1374FEA826206FB07FC42EA9012CF
:1021E0004FEA80604FEA1C4C0CFB0BF7D21B03FB41
:1021F0000CF761EB07010CFB0EF7B0EB074072EB3D
:1022000017420CFB08F734BFA2EB0742B2EB0742C0
:1022100061EB17414FEA8C554FEA910704EB9C2480
:1022200006FB07FC4FEA1C4C0CFB0BF7B0EBC7405E
:1022300072EB573203FB0CF734BFA2EBC742B2EB91
:10224000C74261EB57310CFB0EF7B0EBC70072EBE6
:1022500057720CFB08F734BFA2EBC702B2EBC70200
:1022600061EB577115EB4C254FEA816141EA921100
:102270004FEA82624FEAD13742EA901206FB07FC2E
:1022800044F100044FEA80604FEA1C4C0CFB0BF752
:10229000D21B03FB0CF761EB07010CFB0EF7B0EB55
:1022A000074072EB17420CFB08F734BFA2EB074262
:1022B000B2EB074261EB174115EB1C154FEA813178
:1022C00041EA92414FEA823242EA90424FEA80303C
:1022D0004FEA0C7644F1000448EA03434EEA0B4807
:1022E0004FF0000EB2EB080C71EB030724BF6246FF
:1022F00039464EEB0E0E4FF0000B0018524149418B
:102300004BEB0B0BB2EB080C71EB03077BF1000BF3
:1023100024BF624639464EEB0E0E4FF0000B0018FC
:10232000524149414BEB0B0BB2EB080C71EB03072D
:102330007BF1000B24BF624639464EEB0E0E51EA8C
:10234000020718BF46F0010616EB0E7655F10002A3
:1023500054F1000103D5BDE88901BDE80088BDE85E
:102360008901BDE80048B619524141EB0101A3F1D2
:102370000103704780807F7E7D7C7B7A79787776D9
:1023800076757473727171706F6E6E6D6C6C6B6A52
:102390006A696868676666656464636362616160F0
:1023A000605F5F5E5E5D5D5C5C5B5B5A5A5959586D
:1023B00058575756565555555454535352525251D7
:1023C000515050504F4F4F4E4E4D4D4D4C4C4C4B2D
:1023D0004B4B4A4A4A494949484848474747474674
:1023E00046464545454444444443434343424242B0
:1023F00042414141002B9C4630D477002BD01CB584
:102400004FEA370703B44FF010004FF01001BAF154
:10241000000F06D0BCF1000FDCBF40F0080040F018
:1024200008014FF000000FBCBDE810400BF1010B9C
:10243000BBF1010F08BF5FEA170722BF12F10102CB
:1024400011F101014FF0004143F1000300F00040A1
:1024500043EA00007047F9D35708D0E746EA06463A
:1024600013F1400F4FEA16461FDD13F1200FDFBFB7
:1024700016430A46002120335B42BED0C3F1200739
:1024800046EA064602FA07F74FEA164646EA070604
:10249000C3F1200722FA03F201FA07F721FA03F148
:1024A0004FF0000342EA0702A7E746EA020646EABF
:1024B00006464FEA164646EA0106BCBF46EA06460D
:1024C000360C4FF000034FF000024FF0000194E78C
:1024D0002DE9804C9A46934670B491E8380007C8BD
:1024E00031EA400C48BF34EA430C03D5FFF7E6FD60
:1024F000FFF780FFF0BCBDE8008C2DE9804C9A46C8
:10250000934670B491E8380007C810F0804F08BFB8
:1025100013F0804F03D100F005F8FFF76BFFF0BC1C
:10252000BDE8008C20F07F4780EA030023F07F4C59
:1025300007EB0C03A3F57C5300F00040A3F1FE036E
:1025400092F0000F00F0B38095F0000F00F077805C
:102550002DE901494FEA11404FEA144621EA0048AB
:1025600000FB06FC24EA064708FB06F607FB08F812
:1025700000FB07F718EB06484CEB164C4FEA124BE2
:1025800018EB07484FEA15464CEB174022EA0B4E72
:102590000BFB06FC25EA06470EFB06F607FB0EFEC4
:1025A0000BFB07F71EEB064E4CEB164C4FF00006EC
:1025B0001EEB074E4CEB174B18EB0B0840F10000DD
:1025C00018EB0E0B58EB000840F100008F1A4FF08B
:1025D00000013CBFC943661B14BFB5EB040C0021CE
:1025E0003CBFC943F61B4FEA17444EEA8E0E27EA5A
:1025F00004454FEA1C4704FB07622CEA074C05FB25
:1026000007F70CFB05F604FB0CFC16EB074642EB48
:10261000174216EB0C4642EB1C421BEB060658EB2E
:102620000202414146EA9E0601D5BDE80189B6197C
:10263000524141EB0101A3F10103BDE801894FEAD9
:1026400014454FEA114724EA054621EA074C05FBE9
:1026500007F406FB07F70CFB06F105FB0CFC11EB7E
:10266000074144EB17444FEA124711EB0C4144EB8E
:102670001C4422EA074C05FB07F206FB07F70CFB9C
:1026800006F605FB0CFC16EB074642EB174216EB71
:102690000C4642EB1C456A1854F1000148BF7047D4
:1026A000B619524141EB0101A3F10103704795F0C6
:1026B000000F37D04FEA11424FEA144721EA024691
:1026C00024EA074C02FB07F106FB07F70CFB06F4B4
:1026D00002FB0CFC14EB074441EB17414FEA154792
:1026E00014EB0C4441EB1C4125EA074C02FB07F5B7
:1026F00006FB07F70CFB06F602FB0CFC16EB074685
:1027000045EB174516EB0C4645EB1C42121951F1EF
:10271000000148BF7047B619524141EB0101A3F1D6
:10272000010370474FEA14454FEA114724EA054672
:1027300021EA074C05FB07F106FB07F70CFB06F245
:102740004FF0000605FB0CFC12EB074241EB174172
:1027500012EB0C4251EB1C4148BF7047921841EB01
:102760000101A3F101037047490050EAC12018BFDD
:1027700004204A0D18BF40F0010040F2FF72B2EB96
:10278000515F08BF40F00200012808BF05207047D4
:1027900030380A2801D2012070470020704700001D
:1027A00010B500290AD00878002807D005487844D9
:1027B000FFF7D2FB002801D0002010BD024878446A
:1027C00010BD00007A030000720300000808A0F5A5
:1027D00000114FEA3101704743004FEAD30C4FEA32
:1027E0003C0C43401FBF40070CF1605113F0FE4FFB
:1027F00070471CF0006F03D100200CF000417047BF
:102800000CF0004343EA507010B540EACC0000F0F1
:10281000E4F800BF000000924FEA0001FFF7D6BFC6
:102820004FF000414FF00000A1F50021704700007B
:102830004FF47F0C1CEAD0121EBF1CEAD11392EA9F
:102840000C0F93EA0C0F00F0858090EA010F48BF4F
:1028500042F4807240F4000C41F400002CF07F41FF
:1028600020F07F4000B58142A2EB03020FF2081C6A
:10287000ACEB504EC0F100009EF800E04FEA4E0E67
:1028800000FB0EFC38BF49004FEA2C1C02F5FA028F
:102890000CFB0EF34FEACE1E4FEA112C4FEAC1217A
:1028A0000EEB635E42EB22420EFB0CFC4FEA1C5324
:1028B00000FB03114FEA112C4FEA01310EFB0CFC17
:1028C0004FEADC4C00FB0C11C14228BF09184CEB4D
:1028D00003335DF804EB10EB410143EBC250B2F55A
:1028E0007C0F38BF704729D512F0F00F1CBF00F1E4
:1028F000C04000F000407047008182838485868755
:1029000088898B8C8D8E8F919293959697999A9CAE
:102910009D9FA0A2A3A5A7A8AAACAEB0B2B3B5B71D
:10292000B9BCBEC0C2C5C7C9CCCED1D4D7D9DCDFF3
:10293000E2E6E9ECF0F3F7FAFE0000004FEA400CA3
:102940000CF1807CBCF17E4F28BF7047B0F1C040D5
:1029500000F089B890EA010F0CEAD11348BF42F4A5
:102960008072624538BF634507D213F47F0F16D0DB
:1029700080EA010000F00040704710B500F02DF82B
:10298000097EFC3E00F005B880EA010000F000403E
:10299000704780EA010000F0004000F064B812F4D3
:1029A0007F0F04BF0248704780EA010000F05BB867
:1029B0000000C07FB0FA80F310FA03F2C3F19D0368
:1029C0000AD0D90501EB1220530638BF704700F139
:1029D000010008BF20F0010070470EF1020E2EF03A
:1029E000030E5EF8044B244204D44FEA4102B2F1D4
:1029F0007F4F11D84FEA4003B3F17F4F0CD80ED16F
:102A00004FEAD07CB2F17F4F0CEB4C0C0CF1020C76
:102A100008BF4CEBD17C04E04FF0080C01E04FEA1A
:102A2000D17C0CEB4C0324FA03F404F00704B4F15A
:102A3000040C06D20EEB840CBDE810404CF0010CE7
:102A40006047DFE80CF0070802024FF00040A0F5F5
:102A5000800010BD0846420018BFD2F1807288BFC6
:102A600000F0004010BDFF2141EAD050C005704782
:102A7000FEF7E0BF02400000000000A000000000E0
:102A800005400000000000C8000000000C400000ED
:102A90000000409C00000000194000000020BCBE67
:102AA0000000000034400000BFC91B8E000000047D
:102AB000B5400000504BCFD06607E2CF01000000C8
:102AC0006C4100003E8251AADFEEA73401000000F5
:102AD000D9420000DCB5A0E23A301F97FFFFFFFFAC
:102AE000B4450000FD25A0C8E9A3C14FFFFFFFFFCB
:102AF000FF3F00000000008000000000FF3F0000DA
:102B00000000008000000000442B000800000020AE
:102B1000340000006C010008782B0008340000200D
:102B20002C070000880100081C0000004300000082
:102B3000F8FFFFFF0C0000000E0000000F00000077
:102B40002E00000000A24A04000000000000000067
:102B5000010203040607080900000000000000004D
:102B60000000000000000102030401020304060744
:082B7000080902040608000038
:0400000508000131BD
:00000001FF
