:020000040800F2
:1000000050180020912400086302000865020008CF
:10001000690200086D02000871020008000000007B
:100020000000000000000000000000007502000851
:100030007702000800000000790200087B02000837
:10004000AB240008AB240008AB240008AB24000854
:10005000AB240008AB240008AB240008AB24000844
:10006000AB240008AB240008AB240008AB24000834
:10007000AB240008AB240008AB240008AB24000824
:10008000AB240008AB240008AB240008AB24000814
:10009000AB240008AB240008AB240008AB24000804
:1000A000AB240008AB240008AB240008AB240008F4
:1000B000AB240008AB240008AB240008AB240008E4
:1000C000AB240008AB240008AB240008AB240008D4
:1000D000AB240008AB240008AB240008AB240008C4
:1000E000AB240008AB240008AB240008AB240008B4
:1000F000AB240008AB240008AB240008AB240008A4
:10010000AB240008AB240008AB240008AB24000893
:10011000AB240008AB240008AB240008AB24000883
:10012000AB240008AB240008AB240008AB24000873
:1001300000F002F800F05CF80AA090E8000C82449D
:100140008344AAF10107DA4501D100F051F8AFF27A
:10015000090EBAE80F0013F0010F18BFFB1A43F0A5
:1001600001031847F83E0000183F00000A444FF012
:10017000000C10F8013B13F0070408BF10F8014B06
:100180001D1108BF10F8015B641E05D010F8016B4B
:10019000641E01F8016BF9D113F0080F1EBF10F8AF
:1001A000014BAD1C0C1B09D16D1E58BF01F801CBD2
:1001B000FAD505E014F8016B01F8016B6D1EF9D555
:1001C0009142D6D37047000000230024002500266A
:1001D000103A28BF78C1FBD8520728BF30C148BFAA
:1001E0000B6070471FB502F076FD1FBD10B510BD46
:1001F00002F0CEFD1146FFF7F5FF00F023F802F004
:10020000ECFD03B4FFF7F2FF03BC02F0F5FD0000C4
:100210000B49D1F800C04A685CF8043B10681844E8
:1002200042F8040B8C4528BFA1F1DC0C8A4228BFA0
:10023000A1F1DC02C1F800C04A6020F00040704724
:10024000E811002002F0B4F802F01CF901F0D3FE2E
:1002500001F0C4FD002001F07FFD01E000F0C2FECE
:10026000FCE7704700BFFEE700BFFEE700BFFEE708
:1002700000BFFEE770477047704770470CB500201D
:10028000019000906C48006840F480306A49086032
:1002900000BF6948006800F4003000900198401CDD
:1002A0000190009818B90198B0F5A06FF1D162489B
:1002B000006800F4003010B10120009001E000203F
:1002C00000900098012843D15C48006840F010007D
:1002D0005A4908600846006820F003000860084694
:1002E000006840F002000860534840685249486086
:1002F0000846406848600846406840F480604860AE
:100300000846406820F47C1048600846406840F485
:10031000E81048600846006840F08070086000BF40
:100320004548006800F000700028F9D04248406855
:1003300020F00300404948600846406840F0020051
:10034000486000BF3C48406800F00C000828F9D124
:100350000CBD10B5FFF792FF10BD10B53648006810
:1003600040F00100344908600846406834490840BC
:100370003149486008460068324908402E49086003
:100380000846006820F4802008600846406820F491
:10039000FE0048604FF41F008860FFF7DAFF4FF05F
:1003A00000602949086010BD10B50021002000221E
:1003B000214B5B6803F00C0121B1042906D0082908
:1003C00028D107E0214B224C236027E01F4B204C13
:1003D000236023E0184B5B6803F47010164B5B68D6
:1003E00003F48032022303EB904022B9194B4343BC
:1003F000174C23600DE0104B5B6803F4003323B10E
:10040000144B4343124C236003E0104B4343104C06
:10041000236003E00D4B0E4C236000BF00BF064B72
:100420005B68C3F303130C4CE15C094B1B68CB40C6
:10043000074C236010BD0000001002400020024065
:100440000000FFF8FFFFF6FE08ED00E000127A0062
:100450000000002000093D000400002008B5012034
:100460001023FEA2002100901C2001F024F901209D
:10047000FCA31022142100901C2001F02BFB012072
:100480001023FAA230210090042001F014F940F268
:10049000DC5001F0CAFF40F2DC5001F0C6FF08BD9D
:1004A00008B500203F237F220146009000F0F8FDB0
:1004B00001201023F1A20A210090084601F0FBF868
:1004C0004FF47A7001F0B1FF01203F237F22002119
:1004D0000090084600F0E4FD40F2DC5001F0A5FF7A
:1004E00008BD08B500203F231A460146009000F0E1
:1004F000D7FD01203F237F2200210090402000F003
:10050000CFFD01203A231A4605210090084600F04D
:1005100046FE00203A237A2205210090442000F074
:100520003EFE4FF47A7001F080FF01203A231A4614
:1005300005210090084600F057FE00203A237A2259
:1005400005210090442000F04FFE40F2DC5001F005
:100550006CFF08BD08B500203F231A4601460090F5
:1005600000F09EFD01203F237F22002100904020CB
:1005700000F096FD1B2301221F21084600F088FE93
:100580001B2300221F215F2000F082FE4FF47A70AF
:1005900001F04BFF1B2301221F21084600F0A1FEA2
:1005A0001B2300221F215F2000F09BFE40F2DC5045
:1005B00001F03BFF08BD0EB500203F231A4601465F
:1005C000009000F06DFD01203F237F22002100906C
:1005D000402000F065FD01203A21009105231F22F3
:1005E000CDE90110184600F0ACFE00203A217A2235
:1005F0000523CDE9002102905F22442000F0A1FEF6
:100600004FF47A7001F011FF01203A210091052387
:100610001F22CDE90110184600F0CCFE00203A213F
:100620007A220523CDE9002102905F22442000F0C8
:10063000C1FE40F2DC5001F0F8FE0EBD08B501200D
:10064000082390A205210090002001F034F8012039
:10065000102394A219210090002001F02CF84FF4EF
:100660007A7001F0E2FE0120082396A20521009095
:10067000002001F020F8012010239AA219210090F7
:10068000002001F018F840F2DC5001F0CEFE08BD69
:100690001CB500201F237F220146009000F000FDC2
:1006A0000120082397A200210090084601F003F8DA
:1006B000012008210A239D4ACDE9001010211E20A7
:1006C00001F03BF84FF47A7001F0AFFE002001F02A
:1006D00043FB0120102396A200210090084600F061
:1006E000EAFF012010210A23904ACDE900102021C1
:1006F000282001F022F840F2DC5001F096FE0020A4
:1007000001F02AFB1CBD08B50120082392A200219C
:1007100000902D2000F0CFFF012091A31022142182
:100720000090104601F0D6F94FF47A7001F07DFE8A
:10073000002001F011FB012008238DA20021009070
:100740002D2000F0B8FF01208BA318221421009067
:10075000102001F0BFF94FF47A7001F066FE00201E
:1007600001F0FAFA0120082386A2002100902D2032
:1007700000F0A1FF012080A320221421009000207E
:1007800001F0A8F94FF47A7001F04FFE002001F05B
:10079000E3FA08BD1CB501207C4940238022CDE945
:1007A00000100021084601F0CAF94FF47A7001F0F8
:1007B0003CFE0120764940238022CDE90010002133
:1007C000084601F0BCF94FF47A7001F02EFE0120CA
:1007D000704940238022CDE900100021084601F035
:1007E000AEF94FF47A7001F020FE1CBD0EB5012069
:1007F0000F237F2200210090084600F051FC0020CA
:1008000065A3102201460090202001F063F9062321
:10081000012218210A2000F03BFD032301221821A8
:100820000A2000F035FD0623012228210A2000F0CD
:100830002FFD0323012228210A2000F029FD062391
:10084000012238210A2000F023FD03230122382150
:100850000A2000F01DFD01201023A3E04861727200
:1008600069657400B9FEC0F2CCD800003633313867
:10087000303730363035313700000000424C4143CC
:100880004B0000003678383A6162636465666768D9
:10089000696A6B6C6D6E6F70717273747576777850
:1008A000797A0000387831363A6162636465666748
:1008B00068696A6B6C6D6E6F707172737475767740
:1008C00078797A003678383A414243444546474879
:1008D000494A4B4C4D4E4F50515253545556575810
:1008E000595A0000387831363A4142434445464728
:1008F00048494A4B4C4D4E4F505152535455565700
:1009000058595A003678383A212223242526272898
:10091000292A2B2C2D2E2F3A3B3C3D3E3F405B5D40
:100920005C5E5F607E7B7D7C00000000D2029649A9
:10093000387831363A2122232425262728292A2BC4
:100940002C2D2E2F3A3B3C3D3E3F405B5D5C5E5F75
:10095000607E7B7D7C0000003136783136000000FF
:10096000C8ABB6AFB5E7D7D3BCBCCAF50000000032
:100970003234783234000000C8ABB6AFB5E7D7D315
:1009800000000000333278333200000014000020F1
:100990001404002014080020CFB5CDB3C9E8D6C395
:1009A00000000000FBA219460090142000F083FE16
:1009B0000120F9A3102211460090242001F08AF8AA
:1009C00001201023F7A220210090142000F073FED4
:1009D0000120F5A3102220210090242001F07AF8B4
:1009E00001201023F3A230210090142000F063FEB8
:1009F0000120F1A3102230210090242001F06AF898
:100A000001203F237F2200210090084600F0C7FB11
:100A100001203F2375220F210090104600F067FB54
:100A2000012014217E221023CDE9002102907A2298
:100A3000762000F0BFFC01203A217E223E23CDE942
:100A4000002102907A22762000F0B4FC03230122D8
:100A500018210A2000F045FC01201F2363221021E9
:100A60000090142000F01CFB00201023C9A219469E
:100A70000090142000F01FFE0020C7A31022114692
:100A80000090242001F026F801201C237E2217214B
:100A90000090762000F004FB40F2DC5001F0C5FC31
:100AA0000323002218210A2000F01BFC032301224B
:100AB00018210A2000F0ECFB00201F2363221021E4
:100AC0000090142000F0ECFA01201023B1A2194686
:100AD0000090142000F0EFFD0120AFA3102211467A
:100AE0000090242000F0F6FF00201C237E22172116
:100AF0000090762000F0D4FA0323012228210A2056
:100B000000F0EFFB01202F2363222021009014200E
:100B100000F0C6FA00201023A2A220210090142089
:100B200000F0C9FD0020A0A3102220210090242065
:100B300000F0D0FF01202A237E222521009076207C
:100B400000F0AEFA40F2DC5001F06FFC032300220B
:100B500028210A2000F0C5FB0323012228210A20B6
:100B600000F096FB00202F23632220210090142008
:100B700000F096FA012010238AA220210090142070
:100B800000F099FD012088A310222021009024204C
:100B900000F0A0FF00202A237E222521009076204D
:100BA00000F07EFA0323012238210A2000F099FB8D
:100BB00001203F23632230210090142000F070FABE
:100BC000002010237BA230210090142000F073FD40
:100BD000002079A3102230210090242000F07AFF19
:100BE000012037237E2232210090762000F058FA2F
:100BF00040F2DC5001F019FC0EBD7CB5714802F0EA
:100C000055F801200A237F2219460090002000F0A9
:100C10006EFA01203F231A460B210090184600F07F
:100C200066FA012024237F22194600903F2000F01D
:100C30005EFA0120082364A201460090002000F023
:100C40003AFD0120082363A2014600904E2000F0E7
:100C500032FD0120082362A2352100900E2000F011
:100C60002AFD0120082360A20D210090412000F000
:100C700022FD0223012219216C2000F009FB012032
:100C800010235BA214210090712000F014FD0120BC
:100C9000102358A214210090482000F00CFD0120E0
:100CA000082356A227210090412000F004FD0120D6
:100CB000102354A22E210090442000F0FCFC0120BF
:100CC000524920233322CDE900101021062000F0E4
:100CD00036FF00255BE0FFF79BFA04460120102158
:100CE000CDE90010E01704EB90708010A4EB8002B7
:100CF00001231421482000F020FDFFF789FA0A2182
:100D000090FBF1F201FB1204012010210346224660
:100D1000CDE900101421502000F00FFDFFF778FA04
:100D20000A2190FBF1F201FB12040120102103467D
:100D30002246CDE900101421602000F0FEFCFFF7F0
:100D400067FA0A2190FBF1F201FB12040120102145
:100D500003462246CDE900102E21442000F0EDFC90
:100D6000FFF756FA0A2190FBF1F201FB1204012071
:100D7000102103462246CDE900102E214C2000F020
:100D8000DCFC4FF4FA7001F050FB681CC5B20F2D6B
:100D9000A1DB7CBD412E0000D2F4C1BFC9E8D6C39F
:100DA00000000000422E0000D1D5C9ABC9E8D6C36F
:100DB00000000000432E0000CDF8C2E7C9E8D6C30A
:100DC0000000000040E20100323031392D30382D72
:100DD000313700005361747572646179000000005E
:100DE000436C6F756479000054454D50000000005D
:100DF0004300000033322E3500000000504D322EEB
:100E000035000000393075672F6D3300140C002059
:100E100008B50120082385A20A2100901C2000F0BB
:100E20004AFC012085A310221E2100901C2000F006
:100E300051FE08BD10B586B0002003900290814895
:100E400001F034FF282001F0F0FA04A801F01AF9AB
:100E500064210498484300EB8000C0F35520800AC9
:100E60000390C8210598484300EB8000C0F355204B
:100E70004FF4FA71C1EB9020029001200A237F22E7
:100E800019460090002000F032F901203F231A4655
:100E90000B210090184600F02AF9012024237F221C
:100EA000194600903F2000F022F90120082366A295
:100EB00001460090002000F0FEFB0120082365A2FF
:100EC000014600904A2000F0F6FB01200823AFF213
:100ED000F002352100900E2000F0EDFB01200823E8
:100EE000AFF2FC020D210090412000F0E4FB022350
:100EF000012219216C2000F0CBF901201023AFF260
:100F0000101214210090712000F0D5FB0A210298E4
:100F100090FBF1F40120102102232246CDE90010BC
:100F20001421482000F009FC012008234BA21A21BB
:100F30000090572000F0BFFB0A21029890FBF1F2CD
:100F400001FB12040120102103462246CDE90010C6
:100F500014215D2000F0F1FB0120082340A227218D
:100F60000090412000F0A7FB0A21039890FBF1F4C8
:100F70000120102102232246CDE900102E21482015
:100F800000F0DBFB0120082334A23421009057201D
:100F900000F091FB0A21039890FBF1F201FB12048F
:100FA0000120102103462246CDE900102E215D20AC
:100FB00000F0C3FB012010232AA22E2100906B20F9
:100FC00000F079FB0120284920233322CDE90010CD
:100FD0001021062000F0B3FD4FF47A7001F025FADD
:100FE00006B010BD08B5012020A310221E210090DC
:100FF0000A2000F06FFD00F05EFF4FF47A7001F000
:1010000014FA4FF47A7001F010FA4FF47A7001F08C
:101010000CFA4FF47A7001F008FA4FF47A7001F08C
:1010200004FA4FF47A7001F000FA08BD3633313912
:10103000303030323232323200000000B5DED3EED2
:101040000000000040E20100323032312D31312DFC
:101050003233000054756573646179002E0000001E
:1010600048554D0025000000140C0020BBB6D3AD40
:10107000C0B4B5BDD0C5CFA2BFC6D1A7D3EBB9A46C
:10108000B3CCD1A7D4BA000070B504460D461646BD
:1010900032462946204600F000FE00F03BFE70BDBF
:1010A0002DE9F05F04460D4690469946A8EB0400F2
:1010B000401C00F0FF0AA9EB0500401C00F0FF0BEC
:1010C00000260EE0002708E0AA19D1B2E219D0B23A
:1010D0000A9A00F0E2FD781CC7B25745F4DB701C99
:1010E000C6B25E45EEDB00F015FEBDE8F09F2DE9CF
:1010F000FF4F85B081468A460020039083460798BB
:10110000A0EB09050898A0EB0A06CDF80890CDF8E9
:1011100004A0002D01DD012705E00DB9002702E044
:101120004FF0FF376D42002E02DD4FF0010806E060
:1011300016B94FF0000802E04FF0FF387642B54292
:1011400001DD2C4600E03446002004901EE0019AA8
:10115000D1B2029AD0B2129A00F09FFD03982844AF
:101160000390B3440398A04205DD0398001B03904D
:10117000029838440290A34504DDABEB040B0198C0
:10118000404401900498401C80B20490611C049873
:101190008842DCDD00F0BEFD09B0BDE8F08F2DE92E
:1011A000F84305460E4617469846089C33463A468D
:1011B000314628460094FFF79AFF43462A463146B7
:1011C00028460094FFF793FF43463A464146284697
:1011D0000094FFF78CFF43463A4631463846009468
:1011E000FFF785FFBDE8F8832DE9F84304460D4677
:1011F00016461F46DDF820803B46324629462046EB
:10120000CDF80080FFF74CFFBDE8F8832DE9F041F1
:1012100004460D4616461F46DDF81880EA19D1B27D
:10122000A219D0B2424600F038FDEA19D1B2A21B91
:10123000D0B2424600F031FDEA1BD1B2A219D0B2C1
:10124000424600F02AFDEA1BD1B2A21BD0B24246B0
:1012500000F023FDAA19D1B2E219D0B2424600F043
:101260001CFDAA19D1B2E21BD0B2424600F015FD16
:10127000AA1BD1B2E219D0B2424600F00EFDAA1B61
:10128000D1B2E21BD0B2424600F007FDBDE8F081CA
:101290002DE9F84F81468A4690461E460024354681
:1012A0007000C0F1030716E0EBB2E2B251464846C7
:1012B000CDF80080FFF7AAFF002F04DA042000FB1E
:1012C0000470871D06E0601B042101FB007000F123
:1012D0000A076D1E641CAC42E6DD00F01BFDBDE894
:1012E000F88F2DE9F84F82468B4691461E46002422
:1012F00035467000C0F103081DE0274608E0FBB248
:10130000E2B259465046CDF80090FFF77FFF7F1CB0
:10131000AF42F4DDB8F1000F05DA042000FB0480D1
:1013200000F1060806E0601B042101FB008000F1CB
:101330000A086D1E641CAC42DFDD00F0EBFCBDE86A
:10134000F88F2DE9F84F05460E4617469846DDE919
:101350000A9A0C9C43463A46314628460094FFF7C9
:10136000C6FE53464A46414638460094FFF7BFFE44
:1013700033462A46514648460094FFF7B8FEBDE87A
:10138000F88F02780B7803700A7070472DE9F041EE
:1013900005460E461746984600242C4606E042466F
:1013A0003946204600F079FC601CC4B2B442F6DD38
:1013B000BDE8F0812DE9FF4F85B0002600279DF89C
:1013C00018009DF82010884207DD08A906A8FFF73D
:1013D000D8FF07A905A8FFF7D4FF9DF820009DF8C6
:1013E0004C10884207DD08A913A8FFF7CAFF07A918
:1013F00012A8FFF7C6FF9DF818009DF8201088423C
:1014000007DD08A906A8FFF7BCFF07A905A8FFF795
:10141000B8FF9DF818009DF84C10884235D19DF812
:101420001400039004909DF81C009DF81010884251
:1014300003DA9DF81C00049008E09DF81C009DF85C
:101440000C10884202DD9DF81C0003909DF84800B6
:101450009DF81010884203DA9DF84800049008E0D7
:101460009DF848009DF80C10884202DD9DF8480068
:1014700003909DF818209DF80C109DF81000149B07
:10148000FFF784FF09B0BDE8F08F9DF81C009DF8C0
:101490001410A0EB010B9DF820009DF81810401AC5
:1014A00002909DF848009DF81410451A9DF84C00D4
:1014B0009DF81810A0EB01099DF848009DF81C103C
:1014C000A0EB010A9DF84C009DF82010401A0190F5
:1014D0009DF820009DF84C10884202D19DF8208094
:1014E00004E09DF82000401E00F0FF089DF8184021
:1014F00024E0029896FBF0F09DF814100844C0B266
:10150000049097FBF9F09DF814100844C0B20390C2
:101510005E442F449DF810009DF80C10884203DDB6
:1015200003A904A8FFF72DFF22469DF80C109DF893
:101530001000149BFFF72AFF601CC4B24445D8DD9D
:101540009DF82000201A00FB0AF69DF81800201ACA
:1015500000FB05F724E0019896FBF0F09DF81C10C5
:101560000844C0B2049097FBF9F09DF814100844A9
:10157000C0B2039056442F449DF810009DF80C1003
:10158000884203DD03A904A8FFF7FBFE22469DF86D
:101590000C109DF81000149BFFF7F8FE601CC4B2FD
:1015A0009DF84C008442D6DD00F0B4FB00BF69E733
:1015B0002DE9F84F06460F4692469946DDF828B0C9
:1015C0004FF0000800240025AAF1200000F0FF08D9
:1015D0007F2E02DD0026B81CC7B2B9F1100F30D142
:1015E00000242BE0BBF1000F05D004EB0810F849F4
:1015F000085C009006E004EB0810F549085CC04365
:10160000C0B20090002515E08020284100990840D4
:1016100038B13A19D1B27219D0B2012200F03DFBB3
:1016200006E03A19D1B27219D0B2002200F035FBAF
:10163000681CC5B2082DE7DB601CC4B2102CD1DBDE
:1016400035E0B9F1080F30D100242BE0BBF1000FD9
:1016500005D0E04800EBC800005D009006E0DD48E2
:1016600000EBC800005DC043C0B20090002515E04B
:10167000802028410099084038B13A19D1B2721936
:10168000D0B2012200F009FB06E03A19D1B272197A
:10169000D0B2002200F001FB681CC5B2082DE7DBC8
:1016A000601CC4B2082CD1DB01E0BDE8F88F00F06B
:1016B00031FB00BFF9E72DE9F84F0546894616468C
:1016C0001C46DDF828A00027102C05D1204604EB8D
:1016D000D071C1F347080BE0082C07D1204604EB7A
:1016E000D0714910891C01F0FF0801E0BDE8F88FB6
:1016F00013E0CDF800A0F25D234649462846FFF7E7
:1017000057FF05EB0800C5B2782D04DD002509EB75
:10171000040000F0FF09781CC7B2F05D0028E8D192
:1017200000BFE3E710B50246012000E050430B1E66
:10173000A1F10104E1B2F9D110BD2DE9FF4F83B051
:10174000804692461E46DDE9104B00200290102C88
:1017500005D1204604EBD071C1F347070BE0082CFC
:1017600006D1204604EBD0714910891CCFB202E0AB
:1017700007B0BDE8F08F002530E0701B401EC1B2FD
:101780000A20FFF7CFFFBAFBF0F00A21B0FBF1F21D
:1017900001FB1209029890B9701EA8420FDDB9F141
:1017A000000F0AD107FB0581C8B223462022CDF8DD
:1017B00000B00499FFF7FCFE0EE00120029009F151
:1017C0003001CAB207FB0581C8B22346CDF800B08C
:1017D0000499FFF7EDFE00BF681CC5B2B542CCDB33
:1017E00000BFC5E72DE9FF4F83B08046894692468A
:1017F00023200190002562E005EB0510764911F8E1
:1018000010009AF80010884257D105EB0510724974
:1018100001EB400040789AF8011088424DD1002435
:1018200048E0069840B105EB05106B4901EB40001C
:10183000801C005D029009E005EB0510664901EB94
:101840004000801C005DC043C0B2029000262DE025
:10185000802030410299084098B1274604EBD772A6
:1018600009EB6202D1B2A34604EBDB725210A4EB87
:10187000420208EBC2023244D0B2012200F00DFA5B
:1018800012E0274604EBD77209EB6202D1B2A346FD
:1018900004EBDB725210A4EB420208EBC2023244AA
:1018A000D0B2002200F0F9F9701CC6B2082ECFDBCE
:1018B000601CC4B2202CB4DB04E0681CC5B20198E3
:1018C000854299DB00BF00F025FA07B0BDE8F08F34
:1018D0002DE9FE4F0746884691469B46062002901A
:1018E00000256DE005EB850000EB45103B4911F844
:1018F000100099F80010884260D105EB850000EBDC
:101900004510364901EB4000407899F801108842B3
:1019100054D100244FE0BBF1000F0AD005EB850045
:1019200000EB45102D4901EB4000801C10F804A08D
:101930000BE005EB850000EB4510284901EB40006A
:10194000801C005DC04300F0FF0A00262FE08020CD
:10195000304100EA0A00A0B1032094FBF0F04044BB
:10196000C0B20190032094FBF0F100FB114007EBA3
:10197000C0003044C0B201220090019900F08DF9FE
:1019800013E0032094FBF0F04044C0B20190032028
:1019900094FBF0F100FB114007EBC0003044C0B2F3
:1019A00000220090019900F078F9701CC6B2082E50
:1019B000CDDB601CC4B2482CADDB04E0681CC5B2B2
:1019C000029885428EDB00BF00F0A4F9BDE8FE8FCF
:1019D000FC300008042E0008EC360008923B00089A
:1019E0002DE9FF4F83B0804689469246062001903C
:1019F000002566E005EB85107C4911F810009AF887
:101A0000001088425BD105EB8510784901EB40005E
:101A100040789AF80110884251D100244CE0069891
:101A200040B105EB8510714901EB4000801C005D61
:101A3000029009E005EB85106C4901EB4000801C29
:101A4000005DC043C0B20290002731E080203841E1
:101A500002990840A8B12646E21704EB927209EBFE
:101A6000A202D1B2A346E21704EB92729210A4EB49
:101A7000820208EBC2023A44D0B2012200F00DF912
:101A800014E02646E21704EB927209EBA202D1B2EF
:101A9000A346E21704EB92729210A4EB820208EBC9
:101AA000C2023A44D0B2002200F0F7F8781CC7B264
:101AB000082FCBDB601CC4B2802CB0DB04E0681CB8
:101AC000C5B20198854295DB00BF00F023F907B04D
:101AD000BDE8F08F2DE9F04106460F4614461D463D
:101AE000DDF8188026E0102C06D143462A463946F8
:101AF0003046FFF777FE13E0182C06D143462A46FE
:101B000039463046FFF7E4FE0AE0202C06D1434672
:101B10002A4639463046FFF763FF01E0BDE8F08111
:101B20003019C6B2C4F18000B04202DA002638197A
:101B3000C7B2AD1C28780028D5D100BFEEE72DE94B
:101B4000F84F8046894617469A46DDF828B00025AA
:101B500045E000243AE00B9850B1F81DC11700EBA6
:101B60005171C91005FB01411BF8011000910BE0F8
:101B7000F81DC11700EB5171C91005FB01411BF89D
:101B80000110C943C9B2009100261BE080203041FA
:101B90000099084050B109EB0502D1B208EBC4022C
:101BA0003244D0B2012200F078F809E009EB0502D6
:101BB000D1B208EBC4023244D0B2002200F06DF87A
:101BC000701CC6B2082EE1DB601CC4B2F81DC11740
:101BD00000EB5171B4EBE10FBDDB681CC5B255459C
:101BE000B7DB00F097F8BDE8F88F00004E3D000825
:101BF00070B504460D462DB14FF48061D24800F017
:101C0000E2FD04E04FF48061CF4800F0DEFD4FF4C8
:101C10000061CD4800F0D9FDE0B200F099F94FF431
:101C20000061C94800F0CFFD70BD70B505460C4697
:101C30002646E11704EB5171C91001F1B0000021F3
:101C4000FFF7D6FFA91CC1F3031141F010000021DA
:101C5000FFF7CEFFA91C01F00F000021FFF7C8FF1E
:101C600070BD10B500218D20FFF7C2FF00211420A8
:101C7000FFF7BEFF0021AF20FFF7BAFF10BD10B580
:101C800000218D20FFF7B4FF00211020FFF7B0FFE7
:101C90000021AE20FFF7ACFF10BDF0B5034614469F
:101CA000E4B1CD1701EB5575ED1003EBC515A74E4B
:101CB000755D0A46CE1701EB5676F610A1EBC60706
:101CC0000126BE40F6B235430846CE1701EB5676E4
:101CD000F61003EBC6169D4FBD551AE0CD1701EB6C
:101CE0005575ED1003EBC515984E755D0A46CE1778
:101CF00001EB5676F610A1EBC6070126BE40B543B0
:101D00000846CE1701EB5676F61003EBC6168F4F3A
:101D1000BD55F0BD70B500241BE004F1B0000021FA
:101D2000FFF766FF00210846FFF762FF0021102041
:101D3000FFF75EFF002508E005EBC411834A505C05
:101D40000121FFF755FF681CC5B2802DF4DB601C34
:101D5000C4B2082CE1DB70BD10B5044634B1FF22DB
:101D60004FF48061794800F0BFFF04E04FF48061D8
:101D7000764800F0C1FFFFF7CDFF10BD10B54FF45E
:101D80008051714800F01FFD642000F04EFB4FF4BD
:101D900080516D4800F019FD642000F046FB4FF4BF
:101DA0008051694800F00FFD10BD08B501210820E1
:101DB00000F018FF4FF43C40ADF8000010208DF803
:101DC000030003208DF8020069465F4800F04EFCD6
:101DD0004FF43C415C4800F0F6FC08BD10B5FFF73D
:101DE000E4FFC82000F021FBFFF7C8FF0021AE2070
:101DF000FFF7FEFE00210846FFF7FAFE0021102043
:101E0000FFF7F6FE00214020FFF7F2FE0021B02090
:101E1000FFF7EEFE00218120FFF7EAFE0021FF2000
:101E2000FFF7E6FE0021A120FFF7E2FE0021A62039
:101E3000FFF7DEFE0021A820FFF7DAFE00213F2099
:101E4000FFF7D6FE0021C820FFF7D2FE0021D320E5
:101E5000FFF7CEFE00210846FFF7CAFE0021D5207D
:101E6000FFF7C6FE00218020FFF7C2FE0021D92027
:101E7000FFF7BEFE0021F120FFF7BAFE0021DA20B5
:101E8000FFF7B6FE00211220FFF7B2FE0021DB2093
:101E9000FFF7AEFE00213020FFF7AAFE00218D20C3
:101EA000FFF7A6FE00211420FFF7A2FE0021AF20BD
:101EB000FFF79EFE10BD10B500212E20FFF798FE03
:101EC00000212720FFF794FE00210846FFF790FE2F
:101ED00000210846FFF78CFE00210720FFF788FE4F
:101EE00000210720FFF784FE00210846FFF780FE4F
:101EF0000021FF20FFF77CFE00212F20FFF778FE56
:101F000010BD10B500212E20FFF772FE0021292000
:101F1000FFF76EFE00210846FFF76AFE0021084623
:101F2000FFF766FE00210720FFF762FE0021072071
:101F3000FFF75EFE00210120FFF75AFE00212F204F
:101F4000FFF756FE10BD0000000C01400C0D0020F4
:101F500070B50446002508251BE004F0800028B178
:101F60004FF400410C4800F02EFC04E04FF4004117
:101F7000094800F02AFC4FF40051074800F025FC06
:101F80004FF40051044800F01EFC6006040E681E69
:101F9000C5B2002DE1DC70BD000C014070B500F051
:101FA000EEF8712000F09DF900F02AF90546284668
:101FB00000F0C5F9044600F071F900F000F9204680
:101FC00070BD10B500F0DBF8702000F08AF900F069
:101FD00017F9AC2000F085F900F012F9332000F079
:101FE00080F900F00DF9002000F07BF900F008F90D
:101FF00000F0E5F810BD10B500F0AAF800F0BFF849
:10200000702000F06EF900F0FBF8A82000F069F9EC
:1020100000F0F6F8002000F064F900F0F1F800207C
:1020200000F05FF900F0ECF800F0C9F80A2000F0C9
:10203000FCF900F0A4F8702000F053F900F0E0F88B
:10204000BE2000F04EF900F0DBF8082000F049F95E
:1020500000F0D6F8002000F044F900F0D1F800F0CC
:10206000AEF80A2000F0E1F910BD10B5282000F00C
:10207000DCF9FFF793FF00F00800082801D0FFF714
:10208000BAFF10BDF0B587B0064600200690059057
:10209000049003900290019000250027FFF791FF24
:1020A000502000F0C2F908E0012000F0BEF93846E7
:1020B000791C8FB2642800DB05E0FFF76FFF00F0AA
:1020C00080008028F0D000BF00F059F8712000F0A7
:1020D00008F900F095F80446204600F030F9069023
:1020E000204600F02CF90590204600F028F90490D5
:1020F000204600F024F90390204600F020F90290D9
:102100000CB9012100E00021084600F018F9019007
:1021100000F055F89DF81400284305029DF81000C2
:10212000284305029DF80C0005432D093560002564
:102130009DF80C00284305029DF80800284305027D
:102140009DF804000543C5F31305756007B0F0BDA5
:1021500008B50121082000F045FDC020ADF80000C1
:1021600010208DF8030003208DF8020069468D4889
:1021700000F07CFAC0218B4800F025FB08BD10B5AB
:102180008848006820F0704086490860084600686A
:1021900040F0405008600120834908608349C1F83D
:1021A0009801042000F01DF900207F4908600420F8
:1021B00000F017F900207D49C1F8980110BD10B555
:1021C0007848006820F0704076490860084600684A
:1021D00040F04050086000207349091F08607349AF
:1021E000C1F89C01042000F0FCF801206E49091F91
:1021F00008606E49C1F89C01042000F0F2F810BD9F
:1022000010B500246748006820F0704065490860F8
:102210000846006840F000400860012062490860FC
:1022200000F0DFF801206149C1F8980100F0D9F809
:1022300007E0601CC4B2FA2C03DDFFF7C0FF0020EA
:1022400010BD5948803800680028F2D15649091F4E
:1022500008600120F4E710B500205349091F086009
:102260005048006820F070404E49086008460068F9
:1022700040F04050086000204C49C1F89C01022009
:1022800000F0AFF801204849091F0860022000F063
:10229000A8F800204549C1F8980110BD10B50020EC
:1022A0004149091F08603F48006820F070403D49DF
:1022B00008600846006840F04050086001203B4933
:1022C000C1F89C01022000F08CF801203649091F5A
:1022D0000860022000F085F800203449C1F8980118
:1022E00010BD70B504462F48006820F070402D499D
:1022F00008600846006840F04050086000202A4905
:10230000091F0860002517E0E009274908606006FA
:10231000040E022000F065F801202449C1F898015C
:10232000022000F05EF800201F49091F086002200B
:1023300000F057F8681CC5B2082DE5DB70BD70B51C
:10234000054600241748006820F0704015490860D1
:102350000846006840F000400860002617E00020B2
:102360001149091F0860022000F03BF801200F49C5
:10237000C1F898016006040E0B488038006808B167
:10238000601CC4B2012000F02CF8701CC6B2082EEC
:10239000E5DB15B9FFF782FF01E0FFF75CFF2046A0
:1023A00070BD0000000C01409C8121420080214250
:1023B00010B56FF0040000F0DAF82E4800682E49DE
:1023C000B0FBF1F02D4908700846007800EB4001A1
:1023D000C1EBC0104FF6FF7101EAC0002849088028
:1023E00010BD0146254A12784A434FF0E0235A6156
:1023F00000229A611A46126942F001021A6100BF76
:102400004FF0E022106900F001021AB100F48032AE
:10241000002AF5D04FF0E022126922F001024FF0BD
:10242000E0231A6100229A6170470146144A12881B
:102430004A434FF0E0235A6100229A611A4612691A
:1024400042F001021A6100BF4FF0E022106900F073
:1024500001021AB100F48032002AF5D04FF0E022D8
:10246000126922F001024FF0E0231A6100229A6102
:10247000704700000000002000127A00F40C0020D9
:10248000F60C002010B54FF4A06000F021F810BD4C
:102490000948804709480047FEE7FEE7FEE7FEE7F8
:1024A000FEE7FEE7FEE7FEE7FEE7FEE70448054934
:1024B000054A064B704700005B0300083101000825
:1024C00050120020501800205014002050140020FA
:1024D00031490143314A1160704770B50021002332
:1024E0000F22C47804B32D4C246804F4E064C4F5CE
:1024F000E064210AC1F10403CA40447804FA03F1FC
:102500008478144021430901254C0678A1550478AC
:1025100004F01F050124AC4005786D11AD0005F1F4
:10252000E025C5F8004109E0047804F01F05012406
:10253000AC401C4D0678761145F8264070BD1A4A0D
:102540000A400243154B1B1F1A60704739B1134AEA
:10255000121D12680243114B1B1D1A6006E00F4A40
:10256000121D126882430D4B1B1D1A607047042810
:1025700008D14FF0E021096941F004014FF0E02259
:10258000116107E04FF0E021096921F004014FF0EB
:10259000E0221161704700000000FA050CED00E038
:1025A00000E400E080E100E080FFFF1F10B504467A
:1025B000CC48844208D10121042000F02DFB0021E9
:1025C000042000F029FB46E0C748844208D10121DD
:1025D000082000F021FB0021082000F01DFB3AE05C
:1025E000C248844208D10121102000F015FB0021CF
:1025F000102000F011FB2EE0BD48844208D10121DB
:10260000202000F009FB0021202000F005FB22E043
:10261000B848844208D10121402000F0FDFA002191
:10262000402000F0F9FA16E0B348844208D10121B5
:10263000802000F0F1FA0021802000F0EDFA0AE09D
:10264000AE48844207D10121801500F0E5FA00214F
:10265000A01500F0E1FA10BD10B50121084600F008
:10266000DBFA0021012000F0D7FA10BD2DE9F0417E
:10267000024600250026002000230024002791F8B0
:1026800003C00CF00F0591F803C00CF0100CBCF166
:10269000000F03D091F802C04CEA050591F800C084
:1026A000BCF1000F31D0146800202BE04FF0010C7A
:1026B0000CFA00F3B1F800C00CEA03069E4220D1E8
:1026C00083004FF00F0C0CFA03F7BC4305FA03FC30
:1026D0004CEA040491F803C0BCF1280F06D14FF076
:1026E000010C0CFA00FCC2F814C00AE091F803C017
:1026F000BCF1480F05D14FF0010C0CFA00FCC2F8F8
:1027000010C0401C0828D1D31460B1F800C0BCF13F
:10271000FF0F34DD546800202EE000F1080C4FF06C
:10272000010808FA0CF3B1F800C00CEA03069E4257
:1027300021D183004FF00F0C0CFA03F7BC4305FACC
:1027400003FC4CEA040491F803C0BCF1280F05D146
:1027500000F1080C08FA0CF8C2F8148091F803C0D4
:10276000BCF1480F07D100F1080C4FF0010808FA3E
:102770000CF8C2F81080401C0828CED35460BDE885
:10278000F0814FF6FF710180022181700421C17038
:1027900070470246002093680B400BB1012000E017
:1027A000002070470146886880B2704702460020CA
:1027B000D3680B400BB1012000E0002070470146B8
:1027C000C86880B2704701617047416170470AB1C3
:1027D000016100E041617047C16070474FF4803291
:1027E0000A4382618161826182698269704702461F
:1027F0000020434B18684FF68073184040EA0210DF
:1028000008433F4B186070473E49C8617047F0B5B8
:102810000A46002300240021002500F00046B6F1FE
:10282000004F02D1364EF16901E0354E7168C0F3B8
:10283000034583B200F44016B6F5401F08D121F0DD
:1028400070612F4E766826F070662D4F7E6012E024
:1028500000F48016B6F5801F06D1032606FA05F4AB
:10286000A14341F0706106E0460D360103FA06F619
:10287000B14341F0706122B1460D360103FA06F60C
:10288000314300F00046B6F1004F02D11C4EF16119
:1028900001E01B4E7160F0BD30B500228B071C0FAC
:1028A0000F2303FA04F2164B08338C1053F824302C
:1028B0009343134C08348D1044F8253023468C1074
:1028C00053F824308C07240F00FA04F423430C4CF3
:1028D00008348D1044F8253030BD0A49DC310860D9
:1028E0007047000000080140000C0140001001404A
:1028F0000014014000180140001C0140002001406C
:102900000000014000002042DF48006840F0010064
:10291000DD49086008464068DC490840DA494860FB
:1029200008460068DA490840D74908600846006848
:1029300020F4802008600846406820F4FE004860CB
:102940004FF41F0088607047CF49096821F4803137
:10295000CD4A11601146096821F480211160B0F55B
:10296000803F03D0B0F5802F0ED106E0C64909683C
:1029700041F48031C44A116007E0C349096841F459
:10298000A021C14A116000E000BF00BF704710B530
:1029900001460022002300204A11012A02D1BA4C2C
:1029A000236806E0022A02D1B74C236A01E0B64C44
:1029B000636A01F01F02012494401C400CB1012005
:1029C00000E0002010BD38B5002000900024002554
:1029D00000BF3120FFF7DBFF05460098401C009048
:1029E0000098B0F5A06F01D0002DF2D03120FFF794
:1029F000CEFF08B1012400E00024204638BD014686
:102A00000020A14A106820F0F80040EAC1001060E0
:102A10007047A04908607047024600209A4B5868EA
:102A200020F47C1042EA01031843974B586070472A
:102A300098490866704701460020934A506820F084
:102A400003000843506070478F48406800F00C0056
:102A50007047014600208C4A506820F0F00008437F
:102A60005060704701460020874A506820F4E060BB
:102A700008435060704701460020834A506820F4A4
:102A8000605040EAC1005060704729B17E4A527AD6
:102A900002437D4B5A7204E07B4A527A82437A4B5E
:102AA0005A7270477B49D831086070470146002050
:102AB000754A506820F44040084350607047002138
:102AC000714A20321170704A82F82010012802D019
:102AD00004280AD104E001216B4A2032117005E07C
:102AE0000521694A2032117000E000BF00BF704725
:102AF0006949086070476449096A0143624A116282
:102B00007047654944390860704730B5002100229C
:102B1000002400235C4D6D6805F00C0121B10429EF
:102B200005D0082923D105E05C4D056022E05B4D0E
:102B300005601FE0544D6D6805F47012524D6D68CC
:102B400005F48034022505EB92421CB9544D5543DF
:102B500005600BE04C4D6D6805F400351DB1504D1E
:102B60005543056002E04D4D5543056002E04B4D75
:102B7000056000BF00BF444D6D6805F0F001090914
:102B8000484D6B5C0568DD4045603F4D6D6805F460
:102B9000E061090A434D6B5C4568DD4085603A4D54
:102BA0006D6805F46051C90A3E4D6B5C4568DD40B7
:102BB000C560354D6D6805F44041890B3A4D6B5C3D
:102BC000C568B5FBF3F5056130BD29B12E4A5269E0
:102BD00002432D4B5A6104E02B4A526982432A4B2F
:102BE0005A61704729B1284A92690243264B9A617B
:102BF00004E0254A92698243234B9A61704729B1C8
:102C0000214AD2690243204BDA6104E01E4AD269AC
:102C100082431D4BDA61704729B11B4AD2680243D7
:102C2000194BDA6004E0184AD2688243164BDA6026
:102C3000704729B1144A12690243134B1A6104E028
:102C4000114A12698243104B1A6170471249403988
:102C5000086070470F49C86470470B49C8717047D6
:102C60000948406A40F08070074948627047014651
:102C70000020054A92680A400AB1012000E00020C5
:102C80007047014988727047001002400000FFF849
:102C9000FFFFF6FE000042428004424200127A002A
:102CA00000093D00F80C0020080D00200B4910B56C
:102CB000A1F17C020A4CC2E93712372106E000EB91
:102CC000104342F82130074B00FB03400B1EA1F1DB
:102CD0000101F4DC10BD0120E8E7000088110020AC
:102CE000E119D666CD0D010002F0FF0343EA03228D
:102CF00042EA024200F002B84FF000020429C0F09C
:102D0000128010F0030C00F01E80CCF1040CBCF11A
:102D1000020F18BF00F8012BA8BF20F8022BA1EB6F
:102D20000C0100F010B85FEAC17C24BF00F8012B51
:102D300000F8012B48BF00F8012B7047704770471F
:102D400070474FF0000200B513469446964620396E
:102D500022BFA0E80C50A0E80C50B1F12001BFF454
:102D6000F7AF090728BFA0E80C5048BF0CC05DF8BA
:102D700004EB890028BF40F8042B08BF704748BF08
:102D800020F8022B11F0804F18BF00F8012B70477C
:102D9000754600F02BF8AE4605006946534620F014
:102DA0000700854618B020B5FFF780FBBDE820403E
:102DB0004FF000064FF000074FF000084FF0000BF7
:102DC00021F00701AC46ACE8C009ACE8C009ACE8AA
:102DD000C009ACE8C0098D46704710B50446AFF392
:102DE00000802046BDE81040FDF70BBA0048704750
:102DF000F01100207047000001491820ABBEFEE72B
:102E0000260002000000000000000000101010105A
:102E100000100000282828000000000028287C2836
:102E20007C282800103C503814781000004C2C10DE
:102E300008606000304850205448340030102000B2
:102E400000000000081020202010080020100808B2
:102E50000810200000105438541000000010107C9E
:102E60001010000000000000001808100000000012
:102E70007C0000000000000000303000000408105A
:102E80002040000038444C54644438001030101086
:102E9000101038003844040810207C007C0810080A
:102EA00004443800081828487C0808007C4078044E
:102EB0000444380018204078444438007C0408104A
:102EC0002020200038444438444438003844443CEE
:102ED0000408300000303000303000000030300096
:102EE00030102000081020402010080000007C0056
:102EF0007C0000002010080408102000384404085A
:102F000010001000384404345C4438001028444455
:102F10007C44440078444478444478003844404039
:102F20004044380070484444444870007C40407835
:102F300040407C007C404078404040003844405C49
:102F400044443C004444447C444444003810101041
:102F5000101038001C080808084830004448506029
:102F6000504844004040404040407C00446C545431
:102F700044444400444464544C444400384444446D
:102F80004444380078444478404040003844444445
:102F90005448340078444478504844003C40403819
:102FA000040478007C1010101010100044444444B5
:102FB00044443800444444444428100044444454A5
:102FC00054542800444428102844440044444428CD
:102FD000101010007C04081020407C0038202020B5
:102FE000202038000040201008040000380808089D
:102FF000080838001028440000000000000000000D
:1030000000007C00201008000000000000003804D0
:103010003C443C0040405864444478000000384040
:10302000404438000404344C44443C00000038441C
:103030007C403800382420702020200000003C44D0
:10304000443C04384040586444444400100030106C
:103050001010380008001808080848304040485050
:1030600060504800301010101010380000006854F4
:103070005444440000005864444444000000384470
:103080004444380000005864645840400000344C08
:103090004C340404000058644040400000003C40B0
:1030A00038047800202070202024180000004444B8
:1030B000444C3400000044444428100000004444C0
:1030C00054542800000044281028440000004444C0
:1030D000443C043800007C0810207C001020204074
:1030E00020201000001010101010100020101008E8
:1030F0001010200000000020540800000000000014
:1031000000000000000000000000000000000018A7
:103110001818181818180000181800000012362483
:103120004800000000000000000000000000002433
:103130002424FE484848FE48484800000000103853
:10314000545450301C1414545438101000000044CF
:10315000A4A8A8A8541A2A2A2A4400000000003073
:10316000484848506EA4948889760000006060202A
:10317000C000000000000000000000000002040881
:103180000810101010101008080402000040201051
:10319000100808080808081010204000000000006F
:1031A0001010D63838D610100000000000000000C3
:1031B00010101010FE101010100000000000000091
:1031C0000000000000000000606020C0000000005F
:1031D000000000007F000000000000000000000070
:1031E000000000000000000060600000000001021C
:1031F00002040408081010202040400000000018BD
:103200002442424242424242241800000000001080
:103210007010101010101010107C00000000003C06
:103220004242420404081020427E00000000003C9C
:103230004242041804020242443800000000000424
:103240000C14242444447E04041E00000000007E6C
:103250004040405864020242443800000000001C14
:103260002440405864424242241800000000007E7E
:103270004244080810101010101000000000003C1C
:103280004242422418244242423C000000000018FE
:1032900024424242261A02022438000000000000A4
:1032A00000001818000000001818000000000000BE
:1032B0000000181800000018180830000000000274
:1032C0000408102040201008040200000000000044
:1032D0000000FE000000FE000000000000000040B2
:1032E0002010080402040810204000000000003CE8
:1032F000424262020408080018180000000000386A
:10330000445AAAAAAAAAB4424438000000000010F5
:1033100010182828243C444242E70000000000F82E
:10332000444444784442424244F800000000003ED5
:10333000424280808080804244380000000000F8D3
:10334000444242424242424244F80000000000FE31
:10335000424848784848404242FE0000000000FED3
:10336000424848784848404040E000000000003CA7
:1033700044448080808E844444380000000000E78C
:10338000424242427E42424242E700000000007C4C
:103390001010101010101010107C00000000003EE3
:1033A0000808080808080808080888F0000000EE67
:1033B000444850705048484444EE0000000000E08B
:1033C000404040404040404042FE0000000000EECF
:1033D0006C6C6C6C5454545454D60000000000C7FC
:1033E000626252524A4A4A4646E2000000000038F1
:1033F000448282828282828244380000000000FC83
:10340000424242427C40404040E000000000003820
:10341000448282828282B2CA4C380600000000F8E0
:10342000444444784848444442E300000000003EDD
:103430004242402018040242427C0000000000FE8C
:10344000921010101010101010380000000000E74B
:103450004242424242424242423C0000000000E7F7
:10346000424244242428281810100000000000D6EE
:1034700092929292AAAA6C4444440000000000E791
:10348000422424181818242442E70000000000EE0B
:103490004444282810101010103800000000007E4E
:1034A000840408081020204242FC0000001E101076
:1034B000101010101010101010101E0000004040CE
:1034C00020201010080404020202010100780808FC
:1034D00008080808080808080808780000081422E6
:1034E00000000000000000000000000000000000DC
:1034F0000000000000000000000000FF006010005D
:1035000000000000000000000000000000000000BB
:103510000000003C421E2242423F0000000000C06A
:10352000404040586442424264580000000000009D
:103530000000001C22404040221C00000000000649
:103540000202021E22424242261B0000000000002E
:103550000000003C427E4040423C00000000000F62
:103560001110107E10101010107C000000000000E0
:103570000000003E444438403C42423C000000C051
:103580004040405C6242424242E70000000000309E
:103590003000007010101010107C00000000000CB3
:1035A0000C00001C0404040404044478000000C05F
:1035B0004040404E4850684844EE00000000007013
:1035C0001010101010101010107C000000000000EF
:1035D000000000F64949494949ED0000000000009B
:1035E000000000DC6242424242E7000000000000AE
:1035F0000000003C42424242423C00000000000009
:10360000000000D864424242645840E000000000DC
:103610000000001E22424242261A0207000000005B
:10362000000000EE3220202020F800000000000002
:103630000000003E42403C02427C000000000000CE
:103640000010107C10101010100C00000000000082
:10365000000000C642424242463B0000000000001B
:10366000000000E7422424281010000000000000A1
:10367000000000D79292AAAA444400000000000073
:103680000000006E241818182476000000000000C6
:10369000000000E742242428181010E00000000079
:1036A0000000007E44081010227E00000003040485
:1036B00004040408040404040404030008080808BB
:1036C000080808080808080808080808006010101A
:1036D00010101008101010101010600000000000F2
:1036E000000020520C00000000000000C8AB0100E8
:1036F000010002800440082010102FE8C1060100DC
:1037000001001FF00100010001007FFC0000B6AFC6
:10371000004000407C40004001FC0044FE44204446
:103720002044208448844484FD0445040228041075
:10373000B5E70100010001003FF821082108210838
:103740003FF82108210821083FF8210A010201025F
:1037500000FED7D300007FF8001000200040018059
:103760000100FFFE01000100010001000100010055
:1037700005000200BCBC10201020102013FEFC200D
:103780001020102015FC18843088D04810501020CC
:10379000105051882606CAF50100012001100110C1
:1037A0007FFC0380054005400920111021084104D9
:1037B0008102010001000100CFB500F83F000400C4
:1037C000082010403F800100061018087FFC01040B
:1037D00009201110210845040200CDB3104010202B
:1037E000202023FE4840F888110423FE4092F890E0
:1037F000409000901912E112420E0400C9E8000046
:1038000021F0111011100110020EF40013F811082C
:103810001110109014A0184010A003180C06D6C365
:103820007FFC44447FFC01007FFC01001FF010106E
:103830001FF010101FF010101FF01010FFFE0000FE
:10384000D2F4020001003FF8000008200440FFFE0F
:1038500000001FF0101010101FF0101010101FF0BB
:103860001010C1BF00001FF010101FF01010FFFE5D
:1038700000001FF011101FF011101FF001001FF0C9
:1038800001007FFCD1D5100008FE7F102220147C9F
:103890007F44445448545254445448545154422848
:1038A000442488423082C9AB080008001FE0202071
:1038B0004040BFF82108210821083FF820002002DD
:1038C000200220021FFE0000CDF800007FFC400413
:1038D0004004421452944A54442444244A544A54BE
:1038E00052946104400440144008C2E710801080E4
:1038F00020F821084B10FCA0104020A04118FA0627
:1039000045F801081908E10841F80108C0EE010076
:1039100001807FFC010005400930310EC1040FE039
:10392000004001887FFC0100010005000200B9FE93
:103930000040004000A078A0491049084A0E4DF40C
:10394000480048007BF84A080208020803F8020809
:10395000C0F204400444FFFE04400608780808480A
:103960000848FF4808481C481A482A484808882838
:103970000810CCD810401040504853FC7C405044B4
:1039800097FE18103010D7FE1110109010901010E4
:1039900010501020B5DE1040102021FC2400448877
:1039A000F85013FE22224424FDFC412401241D343E
:1039B000E12840200020D3EE020001007FFE4002FB
:1039C00080043FF8010001000100FFFE010001003A
:1039D0000100010005000200BBB600800080FC80F1
:1039E00004FC050449082A401440104028A024A0E3
:1039F00045108110020804040802D3AD00002080A5
:103A0000133C122402240224F2241224122412B49D
:103A1000132812201020282047FE0000C0B4010007
:103A2000010001007FFC0100111009100920FFFEB8
:103A30000380054009203118C10601000100B5BD11
:103A40000004FF840804102422244124FFA408A4B5
:103A5000082408247F24082408040F84F81440084C
:103A6000D0C5084008200BFE1000100031FC3000CB
:103A7000500091FC1000100011FC1104110411FC05
:103A80001104CFA2010002001FF010101FF010104F
:103A90001FF010101FF01010010008844892481207
:103AA00087F00000BFC608101D10F0901090101095
:103AB000FD10109038903410501E53F090101010DC
:103AC000101010101010D1A722081108111000209A
:103AD0007FFE400280041FE000400180FFFE0100E5
:103AE0000100010005000200D3EB100010001000DF
:103AF0001FFC1000200020003FF80008000800080C
:103B0000FFC80008000800500020B9A40000000011
:103B10007FFC010001000100010001000100010023
:103B2000010001000100FFFE00000000B3CC08000E
:103B30001DFCF10411041104FDFC1000300039FEDD
:103B40005420542091FC1020102013FE1000D1A707
:103B500022081108111000207FFE400280041FE09F
:103B600000400180FFFE010001000100050002008D
:103B7000D4BA004078204BFE5202540461F8500041
:103B800048004BFE48906890509041124112420EFE
:103B90004400C8AB00000000000000380000300006
:103BA00000680000440000C2000181000300C0065C
:103BB00000700FFFFE1018086018000018000018B1
:103BC0000000186003FF80001800001800001800B3
:103BD0000018081FFFFC000000000000B6AF000046
:103BE000000000000001800001000061003F810032
:103BF00000010000010C0007FC00310C3FC10C0665
:103C0000010C04010C0C8108084308106208102202
:103C1000082FF4083814080008080011180020F8CC
:103C2000004030000000B5E7000000000000001870
:103C3000000010000010000010000FFFF00810201E
:103C40000810200810200810200FFFE0081020089E
:103C500010200810200810200FFFE00810000010AE
:103C60000800100800100400180C000FF8000000F5
:103C7000D7D30000000000000000200FFFF000007C
:103C8000600000800003000014000018000018000D
:103C900000180C7FFFFE001800001800001800003C
:103CA0001800001800001800001800001800001884
:103CB0000000F800003000000000BCBC0000000460
:103CC000000007018006010006010006010006C190
:103CD0000C3F3FF006010006010006010006FFF858
:103CE0000708103E0830260420060460060240063D
:103CF00002C0060180060380060C601E103E0CE028
:103D00000C000000CAF5000000000000001C0000CC
:103D100019800018E000186000182800181C3FFFE8
:103D2000E0003C00007C00005A0000DA000099002E
:103D30000119800318C006186004183808181E30CE
:103D40001808401800001800001800000000C8AB58
:103D500000000000000000000003000000038000DD
:103D60000007800000068000000C4000001C2000BE
:103D7000001830000030180000600C0000C0070080
:103D8000018003C0030002F807FFFF7C0801809058
:103D900030018000400180000001800000018100AE
:103DA0000001838001FFFFC000018000000180004E
:103DB00000018000000180000001800000018010EF
:103DC000000180381FFFFFFC000000000000000021
:103DD000B6AF000000000000000000000800000076
:103DE0000E0000000C00000C0C003FFE0C00100048
:103DF0000C0000000C0000000C180000FFFC00028A
:103E00000C1800070C183FFF8C1801C00C1801C0DB
:103E10000C1801800818030008180210181806086A
:103E20001818040C101808061018100630102FFB74
:103E300020103E0360101002C030000080300001EE
:103E40000C30000203E0000C01E0001000800000D4
:103E50000000B5E7000000000000000000030000C3
:103E600000038000000300000003000000030000C6
:103E70000003000007FFFFC0060300C0060300C0E8
:103E8000060300C0060300C0060300C0060300C00E
:103E900007FFFFC0060300C0060300C0060300C002
:103EA000060300C0060300C007FFFFC00603008032
:103EB00006030000000300100003000800030008D0
:103EC000000300180003801C0001FFF80000000040
:103ED00000000000D7D30000000000000000000038
:103EE0000000000000C003FFFFE0000001E0000050
:103EF0000300000006000000180000003000000170
:103F0000C0000001C000000180000001801000011D
:103F100080383FFFFFFC00018000000180000001AD
:103F2000800000018000000180000001800000018D
:103F3000800000018000000180000001800000017D
:103F4000800000018000003F8000000700000002A8
:103F5000000000000000BCBC0000000000000000E9
:103F60000180080001C00E0001800C0001800C00DF
:103F700001800C0001800C0001980C183FFFFFFC31
:103F800001800C0001800C0001800C0001800C00FD
:103F9000018C0C2001B3FFF001C080600F808060B5
:103FA0003D8040C0318040C001802180018021805F
:103FB0000180330001801E0001800C0001801E0082
:103FC000018037000180E3C01F8380F8078E007CEA
:103FD0000230000000000000CAF5000000000000F0
:103FE0000000000100000001C00000018C00000181
:103FF0008700000183800001818000018080000132
:1040000080303FFFFFF81003C0000007C00000072A
:10401000A000000DA000000D9000001990000019F4
:10402000980000318C000061860000C1870000818B
:104030008380018181C0030180F00401807C08013C
:1040400080381001801060018000000180000001B4
:104050008000000100000000000000007C4000081B
:10406000000000200C0D00006C010008BC4400089A
:104070000C0D0020440B0000C80100081184A24A66
:1040800004000910010203040607080910087FE074
:1040900003911C3818127013FFFC101007FFFE6606
:1040A00060045B224414018C017FFA1204100E029A
:1040B00036C00815408052020201BFF610103DB60E
:1040C000DA1F808811408034047101DFEE2E25B69E
:1040D000DA0F021012182D8801E01E103B060A208C
:1040E0005B0104202B062A1012525A20401D06AAFA
:1040F000845160115A70603C06AA83805A20800166
:104100006414031FFC853FFC7FF014073FFE857F8E
:10411000FCFFF8140F3006126083C018DA1B10DAA7
:104120003310AD63300618101AC3108B7FFC101AC1
:104130008330A9101A0370110A190C101930D91004
:104140000A1D1810F9400A1A6010D9F014031FFC58
:1041500005583FF87FF014F9E30F75F1E01E3C803D
:104160000A010A1510810A1021421B121110118335
:104170002140800922111F810BE0217C2A422099D5
:10418000307F821110990A1310780801F9E7CF18CF
:10419000F1E360019572FF45411C41413A81C93EFE
:1041A0007C826322611042F18FC682C25541512048
:1041B0003FAA80A2497E491042FD9F927C924140D5
:1041C00045407F028A4121432240A80882828641DD
:1041D0001E411C6001FF51800903F803FFF803C072
:1041E000F01B0FFE108407F3FC1C1803031583FF5C
:1041F000FE24300183841FFFFF12600A20C3109940
:1042000040E91019507D7FC007FF701E300303FF87
:10421000F08379808F0603803801FFA013FC03121E
:1042200018837FC01A1F6A120C8B3F80501A8010AF
:10423000920E12601AC010DA0410A10913100A1AA3
:10424000101012C68D0C1E38CC1012C79D1C1145C3
:1042500032D08E8038114522A019BD99101B0FFE57
:10426000BD991051CB1E791011F240E910012DF2C9
:10427000081A14B5A114018022A39004BC02404284
:10428000109E064041010843BC04208110AF082065
:104290008102041010AB8082101310219B82021047
:1042A000132011AA8410134012A444022013801278
:1042B0009B48011011E910120CEA301011027CC069
:1042C000E30780D3FFFEBC0380039F220CC2381992
:1042D0000DB2071B01E0049931420EA2607A180565
:1042E00061391BA2044240A202399D8A015F491034
:1042F00079B32A019021797112012A0F0C79711278
:10430000032A1FCF8A3010243FFFFF7A10FD117E51
:104310007FFFFFFFC0101206190F8BFFE0103A035A
:10432000107A20103A0F1079601A064F7CFFFFF0C8
:10433000807808073C3FFFF87FF1A03A072092F110
:104340003A03108AF310122012FF8B07F2E08F0F4E
:10435000FF7EFFFBE7108F9F7F81FDFC0FF07FBE8C
:104360003F9DF8FDFF10119EDF7FBCFDFB101E6717
:10437000FE7E7FE3E281A73801FF800FFE2A1F80C7
:10438000DAFC10A2F849E0A11307FE7B7FFFDF19DA
:10439000B112FF9AFF5F119D01FFC7FF5F21C94F57
:1043A0002119F1994F396189AE3951998E3941B945
:1043B0002F011EF202F2072A0F6B5D01838061C29A
:1043C0001C0F80F0256D82E3E1B010221C750C6C8F
:1043D000023F120E320312FE5A3FA3120613F1805F
:1043E0005E0F81F7C07CAD1C801880B26A80A41576
:1043F00001C00C40760218818C60CBE184101C7FD8
:10440000C240307A81D41B3FE220116C31800CA174
:104410001999B603FFF0FFFC1D01FFC07FA7013310
:104420000A100E071401800E2A20A92132701907E4
:10443000298B1CE03F810A112C61FFF0E94403C085
:10444000F81207421C121E320F137C1C1C031F8023
:10445000073B07FF071C1FFF9F2B2C1C7C032B1304
:104460000FF02A7CB8190A12E01B0FF23B12FE195A
:104470002619EF43803C1B03801F29582973197CA0
:1044800059074A7807591C392A4407803E163F804D
:104490000FE1C01B1FFC541CFC03FFFD1AFF014170
:1044A0002BFFFF5711B301FC2D0102030404000987
:0C44B000000607080902040608000000CE
:0400000508000131BD
:00000001FF
