:020000040800F2
:100000000039002001010008E10E00089B0D0008E6
:10001000450E000851020008753F0008000000006E
:10002000000000000000000000000000053E000885
:10003000E903000800000000C3010008051F0008D4
:100040001B0100081B0100081B0100081B01000820
:100050001B0100081B0100081B0100081B01000810
:100060001B0100081B0100081B0100081B01000800
:100070001B0100081B0100081B0100081B010008F0
:100080001B0100081B0100081B0100081B010008E0
:100090001B0100081B0100081B0100081B010008D0
:1000A0001B0100081B0100081B0100081B010008C0
:1000B0001B0100081B0100081B0100081B010008B0
:1000C0001B0100081B0100081B0100081B010008A0
:1000D0001B0100081B0100081B0100081B01000890
:1000E0001B0100081B0100081B010008DFF80CD0F1
:1000F00000F044F800480047614000080039002043
:100100000648804706480047FEE7FEE7FEE7FEE7B1
:10011000FEE7FEE7FEE7FEE7FEE7FEE7553E0008E6
:10012000ED00000872B6704762B67047EFF31080BA
:1001300072B6704780F31088704730BF704720BF99
:100140007047B0FA80F0704790FAA0F0B0FA80F0F3
:10015000704790FAA0F07047D2B201E000F8012B8E
:10016000491EFBD270470022F6E710B513460A4637
:1001700004461946FFF7F0FF204610BD064C074D18
:1001800006E0E06840F0010394E807009847103467
:10019000AC42F6D3FFF7AEFFD0420008F0420008B1
:1001A00018484FF0FF010170002080F309881648BD
:1001B000016881F3088815484FF08051016062B6EC
:1001C000FEE772B6EFF3098028B1203880E8F00F1F
:1001D0000F490968086000B50E4880475DF804EBD8
:1001E0000D480E490A78027009480D490A680260F4
:1001F000106890E8F00F203080F309884EF0040E6C
:1002000062B6704722ED00E03000002004ED00E00F
:10021000FC000020D91B00088E0000208F00002069
:100220000001002010B500F005F8BDE8104000F016
:10023000B5BD000010B500F0EDFA04490968BDE84D
:100240001040B0FBF1F001F075BE0000A4420008C0
:10025000FEE70000054910B50020486000F0A6F850
:1002600000F006F8BDE8104000F086B8100000204D
:100270002DE9F041104D002427462C806C80AC60A5
:10028000EC606C61AC612C61FFF750FF804600268A
:100290006C6100F049F800F057F86869761C360484
:1002A0000744360CF4D0C5E904744046AC61BDE89F
:1002B000F041FFF73FBF000010000020034909692B
:1002C000884201D9401A7047002070471000002072
:1002D00010B5FFF72BFF04494C69FFF72BFF2046B1
:1002E000BDE81040FFF7EABF1000002010B5FFF78F
:1002F000EFFF0446FFF71AFF034A00215161FFF7A1
:1003000019FF204610BD00001000002010B5FFF7B7
:100310000DFF04498C69FFF70DFF2046BDE8104032
:10032000FFF7CCBF1000002010B5064C2088401C01
:100330002080608810B900F051F8A0606088401CEF
:10034000608010BD1000002010B50A4C6088401E6F
:100350000004000C60800CD100F040F8E060A1685F
:10036000401A6169814200D26061A169814200D274
:10037000A06110BD1000002010B5FFF7D7FE0446A5
:10038000FFF7D2FF1021054800F05DFDFFF7DCFF0D
:100390002046BDE81040FFF7CDBE0000A4060020B7
:1003A000014948607047000010000020094810B55E
:1003B000016841F0807101600748002141600168D7
:1003C00041F00101016000F025FABDE81040FFF79F
:1003D000E7BF0000FCED00E0001000E001484068CD
:1003E00070470000001000E0704770472DE9F84F9B
:1003F000DFF8B891002409F1040A0AF1040B23463E
:100400000F270BF1040EC9E00125A5402A40AA429E
:100410007DD1674ED1F804C0ACEB0608B44532D0AC
:1004200014DCBCF1030F3AD009DCBCF1000F2AD078
:10043000BCF1010F1CD0BCF1020F31D11DE0BCF1A9
:10044000110F17D0BCF1120F2AD119E0B8F5881F8F
:1004500019D006DCB8F5803F15D0B8F5801F1FD144
:1004600011E0B8F5001F0ED0B8F5041F18D10AE04E
:10047000CB6815E0CB681B1D12E0CB6808330FE09A
:10048000CB680C330CE08B682BB1012B4FF00803C9
:1004900003D0456104E0042302E0056100E000238D
:1004A000FF2A01D8064601E000F104064FEA840560
:1004B00001D9A5F12005D6F8008007FA05FC28EA45
:1004C0000C0803FA05F548EA0508C6F800804D68EF
:1004D000ED0062D5374DAE6946F00106AE61AD69FB
:1004E00024F0030605F001050095334D06EB050CDD
:1004F000DCF80850A607360F07FA06F825EA0805C3
:10050000DFF8B880404503D14FF0000817E044E021
:10051000DFF8AC80404502D14FF001080FE0DFF872
:10052000A480404502D14FF0020808E0DFF898802F
:10053000404502D14FF0030801E04FF0040808FAEB
:1005400006F848EA0508CCF808804D68D9F800603C
:10055000ED034D4601D5164300E096432E604D68ED
:10056000DAF80060AD03554601D5164300E0964326
:100570002E604D68DBF80060ED025D4601D5164344
:1005800000E096432E604D68DEF80060AD027546CF
:1005900001D5164300E096432E60641C0D682A4680
:1005A000E5407FF431AFBDE8F88F00000004014062
:1005B000000011100010024000000140000801403E
:1005C000000C014000100140001401400AB101611B
:1005D00070470904FBE7000001488068704700008D
:1005E00000000020074810B5016841F010010160CB
:1005F000032000F067F80F2000F006F800F024F860
:10060000002010BD0020024070B50D4D04464FF48F
:100610007A712878B1FBF0F00A490968B1FBF0F073
:1006200000F0E4FA48B9102C07D200222146501EEF
:1006300000F028F800206C6070BD012070BD000043
:10064000000000200C0000200C4808B5816941F032
:1006500001018161816901F001010091C16941F0ED
:100660008051C161C06900F0805000900448416829
:1006700021F0E06141F00071416008BD00100240CE
:1006800000000140F0B40E4B1B680C46C3F302237C
:10069000C3F10705042D00D90425191D072901D22E
:1006A000002300E0DB1E012606FA05F1491E214069
:1006B00099409E40761E16403143F0BC03F064BC66
:1006C0000CED00E0064900F0070208684FF6FF0352
:1006D000184040EA0220034A1043086070470000B7
:1006E0000CED00E00000FA052DE9F0470F4605008B
:1006F00061D0434E306800F00700B84209D230683C
:1007000020F0070038433060306800F00700B8423E
:1007100051D128683B4C810712D5400703D560684A
:1007200040F4E06060602878000703D5606840F41A
:10073000605060606068A96820F0F0000843606065
:100740002878C00728D06868012810D021680228BE
:1007500010D0890700292EDA616821F003010143D6
:100760006160FFF739FF804641F288390DE021686A
:100770008903EFE78901EDE7FFF72EFFA0EB080102
:10078000494502D90320BDE8F0876068696800F038
:100790000C00B0EB810FEFD1306800F00700B842D9
:1007A0000BD9306820F0070038433060306800F023
:1007B0000700B84201D00120E5E72878400705D5B9
:1007C0006068E96820F4E06008436060287800070A
:1007D00006D56068296920F4605040EAC100606075
:1007E00000F03EF86168084AC1F30311515CC8404B
:1007F0000649086006480068FFF706FF0020C2E7C8
:100800000020024000100240444200080C0000207A
:100810000400002001480068704700000C00002020
:100820000448054900684968044AC1F30221515C43
:10083000C84070470C0000200010024054420008DD
:100840000448054900684968044AC1F3C221515C63
:10085000C84070470C0000200010024054420008BD
:1008600012A185B00FC98DE80F0014A0144A0068CA
:1008700004905168134801F00C03042B10D0082B8E
:100880000ED1C1F38343C9031DF803000AD5516893
:1008900004AAC1F34041515C0A4A5043B0FBF1F055
:1008A00005B0704708494843FAE700000203040511
:1008B000060708090A0B0C0D0E0F101001020000AC
:1008C0000010024000127A0000093D002DE9F84FA7
:1008D000040070D02078C04DC00749D06868C0F3CC
:1008E0008100012807D06868C0F38100022809D17F
:1008F0006868C00306D52868800339D56068002879
:10090000E7D035E06068B0F5803F0BD010B1B0F5AE
:10091000A02F11D0286820F480302860286820F4A7
:10092000802002E0286840F480302860606890B140
:10093000FFF752FE06460AE0286840F4802028604F
:10094000F0E700BFFFF748FE801B642873D82868D3
:100950008003F7D50CE0FFF73FFE064605E000BF39
:10096000FFF73AFE801B6428F0D828688003F7D48C
:1009700020789A4E80074FF001094FF0000839D5D2
:10098000686810F00C0F07D06868C0F38100022877
:1009900009D16868C00306D42868800714D5206987
:1009A000012808D110E02069B0B1C6F80090FFF727
:1009B00013FE074605E00AE1FFF70EFEC01B022802
:1009C000C4D828688007F7D52868616920F0F80046
:1009D00040EAC10028600DE0C6F80080FFF7FCFD8A
:1009E000074604E0FFF7F8FDC01B022823D828685B
:1009F0008007F7D4207800072CD57948A169D9B1B0
:100A0000C0F80090FFF7E8FD074604E0FFF7E4FDBB
:100A1000C01B02280FD8686A8007F7D571484FF4C9
:100A2000FA510068B0FBF1F0009000BF0098411E41
:100A30000091FAD20EE080E0C0F80080FFF7CCFD14
:100A4000074604E0FFF7C8FDC01B022875D8686A96
:100A50008007F7D42078400760D5E8690027C000F8
:100A600008D4E86940F08050E861E869012700F0A7
:100A7000805000905C480168C90513D40168834622
:100A800041F480710160FFF7A7FD824606E000BFD8
:100A9000FFF7A2FDA0EB0A0064284ED8DBF80000A7
:100AA000C005F5D5E06801280AD008B1052813D0A3
:100AB000286A20F001002862286A20F0040002E081
:100AC000286A40F001002862E06841F2883B98B152
:100AD000FFF782FD82460BE0286A40F0040028629E
:100AE000EEE700BFFFF778FDA0EB0A0159455AD8A1
:100AF000286A8007F6D50CE0FFF76EFD824605E018
:100B0000FFF76AFDA0EB0A0159454CD8286A800717
:100B1000F6D41FB1E86920F08050E861E06988B33D
:100B20006968C1F38101022944D00228C6F86080B7
:100B300004D0FFF751FD044638E034E0FFF74CFDE8
:100B4000074604E0FFF748FDC01B02282BD82868A1
:100B50008001F7D4206AB0F5803F05D16868A168AC
:100B600020F4003008436860D4E90801084369684C
:100B700021F4741108436860C6F86090FFF72CFDFB
:100B8000044606E025E000BFFFF726FD001B022813
:100B900009D828688001F7D51BE000BFFFF71CFDCE
:100BA000001B022802D90320BDE8F88F28688001C5
:100BB000F4D40EE00128F7D06868226A00F480318E
:100BC000914204D1616A00F47010884201D0012082
:100BD000EAE70020E8E7000000100240000042427F
:100BE000800442420C0000200070004010B5401EFE
:100BF000B0F1807F01D3012010BD4FF0E02460618F
:100C00000F21601703F0C0F90020A06107202061C8
:100C1000002010BD70B5040004D094F83D000025FC
:100C200010B106E0012070BD84F83C50204600F071
:100C300023F8242084F83D002068C16821F4005185
:100C4000C160204603F008F92068016921F4904151
:100C500001612068416921F02A0141612068C16871
:100C600041F40051C1602564202084F83D0084F8DF
:100C70003E00002070BD000030B585B00024009417
:100C800001940294039400681449884224D11448C2
:100C9000816941F480418161816901F4804104915D
:100CA000816941F00401816180690E4D00F004000A
:100CB00004904FF4007000900220019003200390F4
:100CC00069462846FFF792FB2815CDE900046946DE
:100CD00028460294FFF78AFB05B030BD003801407A
:100CE00000100240000801402DE9F843044690F846
:100CF0003D001F4616460D4620284CD1C5B1BEB159
:100D000094F83C00012846D0012084F83C004FF0C4
:100D10000008C4F84080212084F83D00FFF75CFC07
:100D2000A6848146E684A068B0F5805F03D004E025
:100D30000120BDE8F883206928B12E465FF0000548
:100D400084F83C800EE00026FAE78021204603F07C
:100D5000DFF8A0B9AEB116F8010B21684860E08C4D
:100D6000401EE084E08C4B464FF0000200970028C4
:100D7000EBD14FF04001204603F0CAF830B1032018
:100D8000D7E735F8020BC0F30800E6E7202084F827
:100D90003D000020CDE70220CBE7FEE770B586B02E
:100DA000002418480094019402940394816941F04E
:100DB00010018161816901F010010491816941F0A4
:100DC00020018161816901F020010491816941F074
:100DD0000401816180690C4E00F004004FF400555D
:100DE0000490002229463046FFF7F0FB01200095D1
:100DF000CDE901040220039069463046FFF7F6FA78
:100E000006B070BD00100240001001400C4810B543
:100E10000A4901604FF4E1314160002181600C22F8
:100E2000C160C0E904128161C161FFF7F3FE0028CF
:100E300003D0BDE81040FFF7D8BA10BD003801401C
:100E400060060020FEE70A46002100F023B80000FB
:100E50000D480E490246C0E9001200218160C160C0
:100E6000016141618161C16101620163C1624162ED
:100E700000F148018163C1634FF4A05101644164F2
:100E80000348026070470000B40600204845415006
:100E90002C00002010B5002A21D000281FD00024EB
:100EA0004FEA04035B1C41EA0424042BFAD310F03C
:100EB000030305D10BE000BF521E00F8011B5B1CB1
:100EC000002A0CD0042BF7D301E010C0121F042A13
:100ED000FBD202E000F8011B521E002AFAD110BD1D
:100EE000FEE7704702480068002800D000477047BE
:100EF0004400002010B5044600F0BEF8464800212A
:100F00000A2201704548017045480170454801605A
:100F100045480160454801704548017045480170E9
:100F200045480160454801604548016045480170F9
:100F300045480068B0FBF2F0444A1060444A10682B
:100F400030B14448006818B1126802C0521EFCD18A
:100F500041480160414801604148016041480160E9
:100F600041480160414801604148016041480170C9
:100F700001F0E0FC01F092FD204600F0F1FF208836
:100F8000002847D1204601F0E5FA2088002841D109
:100F9000204601F0EBFA208800283BD1204601F0E2
:100FA0007FFB2088002835D1204601F0E9FC20880D
:100FB00000282FD1204601F099FE2088002829D151
:100FC000204602F005F92088002823D1204601F0B0
:100FD00035FA208800281DD1204601F0CDF8208860
:100FE000002817D1204602F05FFD2088002811D18B
:100FF000204602F04BF8208800280BD1204602F052
:10100000A7FD2088002805D100F0A8FFBDE810400A
:10101000FFF767BF10BD00005800002060000020EF
:10102000A8000020FC000020000100208E0000200D
:101030008F000020900000209C000020A0000020D5
:10104000A4000020B0000020A4420008AC00002052
:10105000804200087C420008380000203C0000204C
:101060004000002044000020480000204C000020E8
:1010700050000020DE00002030B5094B0020094A56
:101080000446196801E010C1401C1568A842FAD353
:101090001868054900EB8500001F086030BD00009E
:1010A0007C42000880420008300000201A4810B539
:1010B000007801282FD1FFF739F8184A0446117833
:1010C00029B1491E11F0FF00107022D103E0BDE8E4
:1010D0001040FFF72FB812480078D0B901F018FC83
:1010E00010490870104900EB400051F820100F48DB
:1010F00001600F48006881420BD051F8900F401CEE
:1011000008600C480168491C01600B494FF0805091
:1011100008602046DBE710BD60000020580000207A
:10112000A80000208F0000202831002000010020AE
:10113000FC000020D400002004ED00E0164810B5AB
:101140000078002826D115480078002822D1FEF723
:10115000EDFF044601F0DCFB11490870114900EB7A
:10116000400051F820001049086010490968884281
:101170000BD050F8901F491C01600D480168491CB4
:1011800001600C494FF0805008602046BDE81040D7
:10119000FEF7D0BF10BD000058000020A8000020BE
:1011A0008F0000202831002000010020FC000020DA
:1011B000D400002004ED00E070B504461248007829
:1011C00010B146F662501DE010480078012802D0A8
:1011D00045F6896016E00E4D2878FA2802D345F2CC
:1011E00009200FE0FEF7A2FF0646FFF79DF82878DA
:1011F000401C287001F01AFDFFF7A6F83046FEF7F4
:1012000099FF0020208070BD580000206000002061
:10121000A80000202DE9F04116460C460546FEF7D1
:1012200085FF0746FFF780F829460D48002501296C
:1012300001D0057001E0012101700A480CB1046081
:1012400005E009490A220968B1FBF2F10160FFF7E4
:101250007BF83846FEF76EFF3580BDE8F081000070
:10126000B0000020AC000020A442000870B5044685
:101270001848007810B146F6655029E01648007805
:10128000012802D045F6896022E0144D287890B1FB
:10129000FEF74CFF0646FFF747F82878401E10F08F
:1012A000FF0028700AD0FFF74FF83046FEF742FFE4
:1012B00046F663500CE046F6645009E001F0C4FCC9
:1012C000FFF742F83046FEF735FFFFF737FF002003
:1012D000208070BD5800002060000020A800002081
:1012E00070B50F4D0446287818B145F68A60208005
:1012F00070BD01F00DFB0B4908700B4908700B49DC
:1013000000EB400051F820000949086009490860D5
:1013100001202870FEF744FF43F69920E7E700001C
:10132000600000208F0000208E0000202831002067
:1013300000010020FC0000202DE9F0410646FEF7E8
:10134000F5FE0546FEF7F0FF2E48002404602E4807
:1013500004802E4804802E4804602E4804602E48E5
:1013600004602E4804602E4804602E480481FEF775
:10137000EBFF2846FEF7DEFEFEF7D8FE0746FEF737
:10138000D3FF2948056818E0FEF7D0FE0746FEF7B0
:10139000CBFFC5F8B440C5F8B84045F8784F2C638A
:1013A000AC61AC82EC826C62AC62FFF717F845F876
:1013B000200FA5F134008481AD6AFEF7C5FF3846E1
:1013C000FEF7B8FE002DDFD1FEF7B0FE0746FEF7B0
:1013D000ABFF1648056806E0FEF7A8FE0746FEF7D5
:1013E000A3FFAC85AD69FEF7AFFF3846FEF7A2FE5E
:1013F000002DF1D102F072FA02F078FC3480BDE8E1
:10140000F0810000740000206E000020BE0000206B
:10141000D0000020E4000020EC0000205C00002050
:10142000A00000201C310020D800002094000020E3
:10143000F8B504466946244800F0A4FBBDF8000056
:1014400058BB6A460021022000F0FAFBBDF80000FC
:1014500018BBFEF76BFE0746FEF766FF1B4E002526
:101460003560FEF771FF3846FEF764FE18491948EB
:101470000A6803689A4202D9B2FBF3F010B90A2154
:10148000B2FBF1F06A46002100F0DAFB69460E4833
:1014900000F0F2F9BDF8000008B12080F8BDFEF7B9
:1014A00045FE0746FEF740FF0B480C4905603068D3
:1014B00008600B4901200870FEF746FF3846FEF72A
:1014C00039FE2580F8BD000038340020C00000201F
:1014D000A442000890420008D0000020C400002070
:1014E000CC00002002480068002800D00047704768
:1014F000480000202DE9FF4F83B004467248DDE923
:101500001785DDE910960078DDF854A0139F10B11F
:1015100047F24A102AE04CB1059850B166B16B48C9
:10152000006887420BD246F630601FE047F2AD10EC
:101530001CE047F24F1019E046F62F6016E01298B3
:10154000B84202D346F6316010E046F27320B9F19A
:10155000200F0BD25FEA090103D0B9F11F0F02D0AF
:1015600008E05B4900E05B498C4203D0288007B06B
:10157000BDE8F08F204601F03BFE4FF0000BA5F8D0
:1015800000B05FEAC8700AD05FEA887007D53046BD
:1015900000215A4601E004C0491CB942FBD312980D
:1015A000CDE9007806EB8005DDE905012B463246E2
:1015B00000F0B0FA0599A1620699E16204992162EE
:1015C00084F83790C4F854A0A56020605FEA0A0050
:1015D00024D0A0651698A76366626060A4F83C807A
:1015E0000020594604EB8002401CD16710F0FF0038
:1015F000F8D004F16400149901F006F8204600F0D8
:1016000075F8FEF793FD0646FEF78EFE324D2878FC
:10161000401CC0B22870012803D004E02F480068A5
:10162000D7E701F003FBFEF78FFE3046FEF782FDA1
:1016300094F8370001F084F9204601F075FA20464D
:1016400001F098FD26490888401C0880254800784C
:10165000012821D0FEF76AFD0446FEF765FE2878D2
:10166000401E10F0FF0129700ED101F0EDFA1E4866
:10167000008848B1FEF768FE2046FEF75BFD07B024
:10168000BDE8F04F01F0AEBAFEF75EFE07B02046AF
:10169000BDE8F04FFEF74EBDFEF748FD0446FEF7ED
:1016A00043FE2878401E10F0FF01297001D101F09F
:1016B000CBFAFEF749FE2046FEF73CFD07B0BDE839
:1016C000F04FFFF73BBD000058000020A04200088B
:1016D000543000208C2F0020A8000020AC000020F7
:1016E000DC000020600000206C0000200249096836
:1016F000002900D008477047380000202DE9F0414C
:10170000044652480E46007810B147F24E100AE0E7
:101710004F48844202D147F24C1004E04D488442C5
:1017200004D147F24D100880BDE8F0815CB9FEF7A6
:10173000FDFC0546FEF7F8FD47480468FEF704FE89
:101740002846FEF7F7FCFEF7F1FC0746FEF7ECFD36
:10175000424D2878401CC0B22870012801D101F008
:1017600065FAFEF7F1FD3846FEF7E4FC94F8360022
:1017700008283DD2DFE800F004080C0C1C080C0C13
:10178000204601F005FA13E0204602F08BF80FE046
:10179000204602F087F894F83400072808D2DFE8E2
:1017A00000F00704070404040400204601F023F8B5
:1017B00004F1640000F00EFF204600F055F82046CA
:1017C00001F0EAFC26490888401E0880204601F006
:1017D0000FFDFF2084F83600FEF7A8FC0446FEF754
:1017E000A3FD2878401E10F0FF00287021D022E0D1
:1017F000FEF79CFC0446FEF797FD2878401E10F08B
:10180000FF0028700CD101F01FFA1648008838B18B
:10181000FEF79AFD2046FEF78DFC01F0E3F904E0A7
:10182000FEF792FD2046FEF785FC46F62D603080DF
:101830007AE701F009FAFEF787FD2046FEF77AFC09
:1018400000203080BDE8F041FFF778BC5800002050
:101850008C2F002054300020FC000020A800002025
:10186000DC0000206C00002002490968002900D03B
:10187000084770473C0000207FB50D460446FEF740
:1018800055FC0646FEF750FD1CB114480068844222
:1018900008D1FEF759FD3046FEF74CFC47F25710D1
:1018A00028807FBDFEF750FD3046FEF743FC0C4814
:1018B000007858B10020CDE90205009003460246A9
:1018C00001902146074800F08BFC7FBD04B02946FB
:1018D0002046BDE8704001F09FBD0000FC000020E4
:1018E000580000205452455302490968002900D08D
:1018F00008477047400000202DE9F04781465748CF
:1019000014461E460078884610B146F2AE1006E036
:10191000080006D0B1F5004F03D045F625601880C9
:101920003DE0002704B12760FEF700FC8246FEF789
:10193000FBFC4B4D2968486CD8B1401E804648647A
:101940000CB1086C2060FEF749FD29680A6C801A0A
:10195000C1F8A400D1F8A820824201D2C1F8A800A1
:10196000FEF7F2FC5046FEF7E5FB37804046BDE847
:10197000F0875FEA084007D5FEF7E6FC5046FEF721
:10198000D9FB46F2B01009E03648017849B1FEF7BC
:10199000DBFC5046FEF7CEFB46F66350308000205D
:1019A000E5E701218046017001F040F9FEF7CCFC2B
:1019B0005046FEF7BFFB00214B460722084600F0C9
:1019C0007BFEFEF7B3FB8146FEF7AEFC98F80010F5
:1019D000491E11F0FF0188F8001001D101F034F91F
:1019E000FEF7B2FC4846FEF7A5FBFFF7A7FBFEF7A4
:1019F0009DFB8046FEF798FC286890F8351031B1C1
:101A0000012916D003291AD046F62E601BE074B1C6
:101A1000006C2060FEF7E2FC29680A6C801AC1F8AD
:101A2000A400D1F8A820824201D2C1F8A8003780D2
:101A30000AE00CB1006C206046F2A91003E004B18A
:101A4000276047F2D92030802868446CFEF77CFC80
:101A50004046FEF76FFB204689E700005800002053
:101A6000FC000020A80000202DE9F047054627488B
:101A700016460F4600781C4610B147F259100AE08E
:101A800046F2D5203FB136B1FEF750FB8146FEF756
:101A90004BFC1DB104E01880BDE8F0871C480568C8
:101AA0004FF00008286858B195F83C00C00713D0E3
:101AB000FEF74AFC4846FEF73DFB0020696A1AE043
:101AC000FEF742FC4846FEF735FBC7F8008047F2B8
:101AD0005210C6F800800AE0FEF736FC4846FEF7D2
:101AE00029FBC7F8008047F25410C6F80080208018
:101AF000D2E7401C091D0A68002AFAD03860A96B99
:101B0000081A3060A4F80080C6E7000058000020E2
:101B1000FC00002010B5029C02EB84024FF08074A0
:101B200042E90204164842F80C0C4FF0123042F819
:101B3000100CA2F114004FF0023240E903134FF0F1
:101B4000113140F8101CD10040F8141C4FF009313D
:101B500040F8181C910040F81C1C4FF007314FF062
:101B6000033440F8201C610040F8241C4FF005317C
:101B700040F8281D5100C0E9092440F8041D10BD9B
:101B8000193500081FB5104A904202D147F25B1088
:101B900004E00E4A904203D147F25C1008801FBD5A
:101BA0000B4A127852B10022CDE90221014600927F
:101BB00013460192074800F013FB1FBD04B0BDE8B7
:101BC000104001F079BD00008C2F0020543000201F
:101BD000580000205453555370B51548006800B1A3
:101BE0008047FEF7FBFB134C134A216812689142B1
:101BF00007D0D1F89830C31A41F8943F8D682B4430
:101C00008B60C2F89800FEF771FB2168D1F8B42010
:101C1000824201D2C1F8B400084AD1F8B830106845
:101C2000834201D2C1F8B8000020106070BD0000EE
:101C30004C000020FC00002000010020A400002037
:101C40002DE9F041804636480F461546007810B120
:101C500047F2752020E0334C207810B146F66350EF
:101C60001AE047B1022F06D0042F07D0082F02D068
:101C700045F6256010E0B8F1000F0BD0FEF756FADC
:101C80000646FEF751FB2078401CC0B220700128A8
:101C900005D006E047F27E201080BDE8F08100F01C
:101CA000C5FFFEF751FB3046FEF744FA1E4E0121F8
:101CB0002B4630683A4680F83610414601F086FDE2
:101CC000288898B1FEF732FA0546FEF72DFB2078FA
:101CD000401E10F0FF01217001D100F0B5FFFEF7AA
:101CE00033FB2846BDE8F041FEF724BA306800F027
:101CF0004FFFFEF71BFA0646FEF716FB2078401E44
:101D000010F0FF00207001D100F09EFFFEF71CFBD9
:101D10003046FEF70FFAFFF711FA00202880BCE7E3
:101D200058000020A8000020FC0000202DE9F0470A
:101D30005C4EDDE90854367816B147F27520ABE009
:101D4000DFF864A19AF8006016B146F66350A3E08C
:101D500015F00E0647F27E2945F6256705D0022EBE
:101D600003D0042E06D0082E07D11BB912B909B929
:101D700000287DD035F01E0C02D02780BDE8F0870A
:101D8000C5F3001547F2792C47F278284FF47A779B
:101D90003DB142F20F75A94212D900BFA4F800C0AC
:101DA000ECE7BB4202D347F27B2075E03B2A02D925
:101DB00047F27A2070E03B29F0D8632802D804E08B
:101DC000B84202D3A4F80080D8E7384D4FF4FA7C2B
:101DD000C1EB01112D68BCFBF5FC63446B43B3FB05
:101DE000F7F34FF46167784300EB8100104400FB88
:101DF0000537EFB3FEF79AF98046FEF795FA9AF8A1
:101E000000005546401CC0B28AF80000012801D1EC
:101E100000F00CFFFEF798FA4046FEF78BF9DFF86A
:101E2000908001212346D8F80000324680F8361011
:101E3000394601F0CBFC208898B1FEF777F90446CB
:101E4000FEF772FA2878401E10F0FF01297001D1C8
:101E500000F0FAFEFEF778FA2046BDE8F047FEF7FC
:101E600069B9D8F8000000F093FEFEF75FF900E0D2
:101E700014E00646FEF758FA2878401E10F0FF00DE
:101E8000287001D100F0E0FEFEF75EFA3046FEF762
:101E900051F9FFF753F9002020806FE7A4F8009074
:101EA0006CE7000058000020A8000020A4420008B1
:101EB000FC00002000B585B000F01CF8FEF78EFA9B
:101EC00004AA002103920091CDE9011006480749B8
:101ED000002300781A4600EB400001EB8001044823
:101EE00000F07EF905B000BD8E00002028310020F2
:101EF0005449434B02480068002800D0004770470F
:101F00005000002010B5FEF711F90446FEF70CFA58
:101F100007490878401C0870FEF716FA2046FEF7BD
:101F200009F9FFF7C7FFBDE81040FFF7BFB8000091
:101F3000580000204FF0E021401E4861064802682A
:101F400022F07F420260086940F0050008610869DC
:101F500040F002000861704720ED00E0704700008B
:101F6000034A00211160034A11800180704700007C
:101F7000780000207C0000202DE9F05F9A46904612
:101F80000D4604460A9FFEF7D1F88346FEF7CCF9CA
:101F90005FEA080024D0012807D0B0F5004F1FD019
:101FA0006FF4004118EB010F12D1206A30EA0500EE
:101FB000C4E9080A208A04F108064FF0000990B12C
:101FC0004D4D2878401CC0B22870012815D016E06D
:101FD000FEF7BAF95846FEF7ADF845F625606CE015
:101FE000206A2843E4E7FEF7AFF95846FEF7A2F867
:101FF000A7F80090206ABDE8F09F00F017FEFEF7FA
:10200000A3F95846FEF796F8366833E090F8881042
:10201000766801F00F0101291BD0022921D0042983
:102020000DD0082910D0FEF781F80446FEF77CF9A0
:102030002878401E10F0FF0028702AD036E0216A70
:10204000D0F88020114009E0216AD0F880201140AA
:102050000BE0D0F88010236A0A4699438A4205D0E3
:1020600007E0D0F88010226A914311B1524600F087
:1020700047F816B1B0680028C8D1FEF757F80646F1
:10208000FEF752F92878401E10F0FF00287017D094
:1020900018E000F0D9FD1948008838B1FEF754F96E
:1020A0002046FEF747F800F09DFD04E0FEF74CF9EE
:1020B0002046FEF73FF843F6FF20388000209AE7DD
:1020C00000F0C2FDFEF740F93046FEF733F85FEA54
:1020D000084001D4FFF732F8FEF728F80546FEF76E
:1020E00023F9246AFEF730F92846FEF723F8A7F80B
:1020F000009020467FE70000A80000206C00002030
:1021000070B50025C0F8841080F8355080F8345040
:102110000446026490F8360008280ED2DFE800F08A
:102120000D0D04040D0D0A0A204601F067F984F82C
:10213000365002E0042084F836002046BDE87040A6
:1021400000F059BB0A4C0B4DFDF7F0FF0646FEF7B9
:10215000EBF82068401C20602868401C2860FEF7CF
:10216000F3F83046FDF7E6FFFEF7BCFEECE70000B3
:1021700054000020C000002000B50E4A89B00021A4
:1021800011600B2205910691CDE907200A480B4A00
:102190000B4B006812681B680292CDE903011F20F7
:1021A000CDE900030023074A07A10C48FFF7A2F975
:1021B00009B000BD540000206442000860420008DD
:1021C0005C4200084521000875432F4F532D4949B3
:1021D000492049646C65205461736B008C2F00208A
:1021E0002DE9F84F1D46DDE90CB4DDE90AA91646D4
:1021F0000F468046FDF79AFF0090FEF795F81D48C0
:102200001D4A0188128891422DD2491C89B2018051
:102210001A4802888A4200D2018019490868C0F829
:102220000080C0E902760582C0F814A0A0F81890DA
:10223000C0F81CB0406808601248012101811249B1
:1022400001604160002000F07BFB1048007808B17D
:102250000F49087000202080FEF776F80098BDE84E
:10226000F84FFDF767BF0B490888401C088044F20F
:102270005360F0E76C0000206C4200086E00002004
:102280006400002028310020543000208E000020FF
:1022900090000020700000203EB5374C374B02A95B
:1022A00020680268D51A9A4245D015DC344BD21802
:1022B0002DD0344BD21822D0334BD21832D0334BDE
:1022C000DA4208D1C269CDE90021038B028AC168D4
:1022D000806800F0F1FF3EBD2D4AAA181ED02D4B9C
:1022E000D21824D02C4BDA42F5D1C269CDE90021B5
:1022F000038B028AC168806800F04EFB3EBD0091EE
:10230000028BC36941698068FFF736FE3EBD018BD1
:10231000C269806802AB00F0F5FC3EBD806801F048
:102320007BF83EBD018BC269806802AB21E080680A
:1023300001F0C2F93EBD19481949007800EB400090
:1023400001EB800000F09EFC206802AB0021C26916
:10235000144801F0EDF814480168491E0160E9D104
:10236000124909680160FEF739F8024602AB002104
:102370000F4801F0DDF83EBD680000205449434B92
:10238000ADBAB2BE0DF90BFAF2F8F7FF0006F6FF90
:1023900000F7FDF700FFEFFF03FE0FFE90000020A7
:1023A0002831002070330020F8000020F4000020C5
:1023B000383400201D4D1E4C1E4E00BFFDF7B6FEEA
:1023C0000746FDF7B1FF208808B3FDF7BDFF38468B
:1023D000FDF7B0FEFEF702F80746FFF75DFFFDF7D9
:1023E000FDFF2968C01B814200D22860FDF79EFED8
:1023F0000746FDF799FF3068406830602088401E2E
:102400002080FDF7A1FF3846FDF794FED6E70A4984
:10241000002008810860486000F0A2FAFDF794FFF0
:102420003846FDF787FEFEF789FEC5E774000020F9
:102430006C0000206800002028310020F0B52F49F2
:102440002F4D89B000220A80296831B12D4E318884
:10245000022905D244F2546135E044F2526132E07F
:1024600029490023294F0A60296801F1200410E05E
:1024700041F8087B5B1C41F8082B9BB241F8042C07
:1024800021F8102B41F80C2C21F8082C41F81C4C99
:102490002034B6F800C06345EAD32B6841F81C3CF1
:1024A0001B490B601B490B601B490A801B490A80B2
:1024B0001B490B6853B11B4B1B4D1C682D68AC426C
:1024C00007D244F25661018009B0F0BD44F2556173
:1024D000F9E7032405920692CDE907401868134BEB
:1024E00009681B68CDE903020092CDE901130023BE
:1024F0000F4A10A11648FEF7FDFFE5E77000002027
:10250000684200086C420008740000204E4F4E459F
:1025100064000020680000206C0000206E00002095
:102520007042000878420008A04200087442000887
:10253000B523000875432F4F532D4949492049536E
:1025400052205175657565205461736B0000000061
:1025500054300020034A00211160034A1180018099
:10256000704700008000002084000020F0B5164C69
:10257000216859B1154E318859B189B2491E226876
:102580008FB2002502F1100329460EE045F21E71BC
:1025900018E045F21D7115E0E2E802316D1C22F8E9
:1025A000081BADB242F8041C1033BD42F4D31160D5
:1025B00051601181D160064A23681360338893808B
:1025C000D18011810180F0BD88420008844200085A
:1025D0001C31002010B5428992B10A4903680C6889
:1025E0001C6043680B60CB8844891B1BCB808B88A5
:1025F000448923448B8000214181818101604160B5
:10260000104610BD1C3100200181002141818181D3
:102610000160416070470000F0B54489DDE905E7DD
:102620000589AC4202D346F293501EE01B4DAE88A2
:10263000CEB12C68761ED4F800C0C5F800C0AE80BC
:10264000EE88761CB6B2EE80B5F808C0B44500D26C
:102650002E814689002556B1DB060ED403681C6026
:10266000046025600CE045F21D703880F0BD046008
:10267000012344604381256005E043682360446092
:1026800043895B1C4381868943899E4200D28381B2
:1026900061602281C4F80CE03D80F0BD1C31002057
:1026A000034A00211160034A118001807047000035
:1026B000880000208C0000202DE9F041114D0746D4
:1026C0000C4628680026194680F8342080F83560CA
:1026D00000F03AFD64B1FC6004F1080601223946BD
:1026E000286800F011F83946304600F057F802E04B
:1026F0002868C687066320462968BDE8F04100F0D7
:102700001BB80000FC00002010B5C287002423463F
:1027100001630EE04B6041F8103B641C41F8103B34
:10272000A4B241F80C3C21F8083C41F8043C41F8C3
:10273000180C9442EED310BD38B14268C1F8C420E1
:1027400081688968096AC161704791F8340002287C
:1027500003D0072803D004A002E004A000E005A0F5
:10276000C1F8C40070470000200000005461736B82
:10277000205100005461736B2053656D0000000010
:1027800005A2C1F8C420816811B18968096A00E016
:1027900001A1C161704700002000000030B58A68C7
:1027A000002392F8374002891AB1521C0281026854
:1027B0000BE0012202814B600B60016014E0956820
:1027C00095F83750A54203D85268002AF7D107E0A0
:1027D00032B1146854B1C1E900426160116030BD8A
:1027E0004B6042680A605160416030BD1160C1E9D0
:1027F0000032016030BD70B50646C48F056B07E03E
:10280000E8682946083000F009F8641EA4B22035B3
:10281000002CF5D10020F087306370BD10B502891F
:102820000023012A0BD00A6862B14C6874B154606D
:1028300022600289521E02814B600B6010BD036052
:102840004360F6E74A6813600260F2E75360426053
:10285000EFE7F8B50C46064691F8361000250698C5
:1028600008293BD2DFE801F03A3A04043A3A202042
:1028700094F83410032911D0E265A4F86030206484
:1028800036B12046FFF7B7FF21463046FFF778FF05
:10289000204600F0B3FD84F836501BE0009021463E
:1028A000304600F022F8EBE794F83410032916D0F4
:1028B000E265A4F860302064204600F0F3FF36B1F2
:1028C0002046FFF798FF21463046FFF759FF0420C6
:1028D00084F8360084F8355084F83450F8BD009000
:1028E0002146304600F001F8E6E770B50C6B049D18
:1028F000C98F0AE0E668864204D1C4E90402238352
:10290000E56170BD491E89B220340029F2D170BD45
:1029100010B50024064802E02034E4B2001D01682E
:102920000029F9D00846FDF70CFC2044C0B210BDC8
:102930003400002001490020086070473400002066
:1029400000F01F0241090120C2F11F029040034A1A
:1029500052F82130034342F8213070473400002000
:1029600000F01F0241090120C2F11F029040034AFA
:1029700052F82130834342F8213070473400002060
:10298000034A00211160034A118001807047000052
:1029900094000020980000202DE9FF4F83B01F46CF
:1029A000DDE9109A93460646FDF7C0FB0546FDF7A4
:1029B000BBFC384C2078401CC0B22070012801D1EB
:1029C00000F034F9FDF7C0FC2846FDF7B3FB358A6B
:1029D00006F108001DB1B90530D500683CE0F806E5
:1029E00001D4002300E01023CDE9009A5A4606F1F5
:1029F00020000499FFF710FEFDF798FB0546FDF750
:102A000093FC2078401E10F0FF0121700ED100F0E1
:102A10001BF92148008848B1FDF796FC2846FDF7D0
:102A200089FB07B0BDE8F04F00F0DCB8FDF78CFC87
:102A300007B02846BDE8F04FFDF77CBB00680125D4
:102A40005B46D0E90181CDF800903046049AFFF74B
:102A500000FF6D1E4046ADB2002DF1D1FDF766FBC3
:102A60000546FDF761FC2078401E10F0FF00207045
:102A700001D100F0E9F8FDF767FC2846FDF75AFBA5
:102A8000380401D4FEF75AFB0021AAF8001007B061
:102A9000BDE8F08FA80000206C0000200020074B4C
:102AA000014600BF00EB400203EB8202401C118193
:102AB0001160C0B251602028F4D370472831002043
:102AC00010B5044690F83700FFF73AFF074994F82D
:102AD000370009788842204603D1BDE8104000F055
:102AE00023B8BDE8104000F003B800008E000020BD
:102AF00090F837100B4A01EB410102EB81010022F3
:102B00000B8943B15B1C0B810B68C0E903320A6877
:102B100010610860704701230B81C2600261086088
:102B2000486070472831002090F837100A4A01EBBE
:102B3000410102EB810100220B893BB15B1C0B813F
:102B4000C2604A680261D0604860704701230B810F
:102B5000C26002610860F7E72831002010B50289E1
:102B6000002A14D0012A12D00021022A07D0D0E96D
:102B70000024D3681961C2E90314E26005E0D0E9DA
:102B80000023C2E90313C3E90321C0E9003210BDE9
:102B900070B5054690F83700114900EB400001EB95
:102BA0008001D5E90302002442B10B895B1E0B8131
:102BB000D06090B102612C61EC6070BD28B10A89CF
:102BC000521E0A8104610860F5E70C810C604C60BC
:102BD00095F83700FFF7C4FEEDE74A60EBE7000029
:102BE0002831002010B5FDF7A1FA0B4A0021117021
:102BF0000B4A0A49116051F8902F521C0A6009498A
:102C00000A68521C0A60084A4FF080511160BDE802
:102C10001040FDF78FBA00008F00002054300020D4
:102C200000010020D400002004ED00E0044810B5AD
:102C30000078012803D1FDF7D1FB0249086010BDDF
:102C4000A80000209C0000200A4810B50078002849
:102C50000ED1FDF7C3FB08490968401A07490A6805
:102C6000824200D2086006490A68824200D20860A7
:102C700010BD0000A80000209C000020A000002043
:102C8000A400002070B5044614480078012824D11F
:102C9000FDF74CFA0546FDF747FB2168B1B1104836
:102CA000814213D08A6D12B1521E8A650ED12089DD
:102CB00002280BD30B48007840B92046FFF74EFF9F
:102CC0002068416D09B9084909688165FDF73CFB39
:102CD0002846BDE87040FDF72DBA70BDB000002059
:102CE0008C2F0020A8000020AC000020034A002107
:102CF0001160034A1180018070470000B400002079
:102D0000B80000202DE9F84F1E469046894604463B
:102D1000FDF70CFA0090FDF707FB208A04F1080785
:102D20004FF0000B50B1DFF8BCA09AF80010491C1E
:102D3000C9B28AF8001001291AD01BE0256A681C64
:102D40000CD06D1CC4E90858FDF7FEFA0098FDF799
:102D5000F1F9A6F800B02846BDE8F88FFDF7F4FABF
:102D60000098FDF7E7F946F6C55030800020F3E7FC
:102D7000FFF75CFFFDF7E8FA0098FDF7DBF95FEA83
:102D8000895002D53D893F680CE03F68012500234A
:102D9000B9687F681A462046CDF80080FFF759FDD4
:102DA0006D1EADB2002DF2D1246AFDF7BFF90546C4
:102DB000FDF7BAFA9AF80000401E10F0FF008AF8FA
:102DC000000001D1FFF740FFFDF7BEFA2846FDF7EE
:102DD000B1F95FEA094001D4FEF7B0F9A6F800B0F6
:102DE0002046B9E7A80000200EB5964C964E206804
:102DF000450004E028466A460021FEF721FF3078AE
:102E00000128F7D16846FEF797FA904822680168D2
:102E1000914206D90A462168B2FBF1F15FEA010846
:102E200003D100680A21B0FBF1F8DFF824B2894F22
:102E300042F2107A5FF00006FDF7D0FA0190FDF73C
:102E400065FA85490860FDF771F90546FDF76CFAEA
:102E50008248834C016821600660FDF775FA2846B8
:102E6000FDF768F97F48236802689A422BD97E48AB
:102E7000824202D25046012115E07C48824203D2B0
:102E80004FF47A700A210EE07948824202D264201F
:102E9000014608E07748824203D20A204FF47A7153
:102EA00001E001205146B2FBF1F15843B0FBF1F0D3
:102EB000AAEB0000704980B2ABF800000A88824299
:102EC00003D2088001E0ABF800A0FEF70BFB002462
:102ED000FDF72CF98146FDF727FA3D6842E000BF77
:102EE000FDF724F90290FDF71FFADFF8909199F8A9
:102EF0000010491CC9B289F80010012901D1FFF75F
:102F000095FEFDF721FA0298FDF714F9D5F89C001B
:102F1000C5E92760FDF70AF90290FDF705FA99F86F
:102F20000010491E11F0FF0189F800100CD1FFF7C5
:102F30008BFE5348008838B1FDF706FA0298FDF77A
:102F4000F9F8FFF74FFE04E0FDF7FEF90298FDF7F0
:102F5000F1F855F8A00F0444FDF7E8F88146FDF7B5
:102F6000E3F92D6AFDF7F0F94846FDF7E3F8002D87
:102F7000B6D12CB33C48844202D25546012015E01C
:102F80003A48844203D24FF47A750A200EE038485A
:102F9000844202D26425284608E03648844203D29F
:102FA0000A254FF47A7001E001255046B4FBF0F099
:102FB0008146FDF7BBF80290FDF7B6F93C6822E0C8
:102FC00000250120F4E700BFD4F8A0006843B0FB5F
:102FD000F9F080B2504500D95046A4F88C00B4F8FE
:102FE0008E10814201D2A4F88E0004F1AC026B462F
:102FF000111D2046FEF738FDFDF798F80290FDF709
:1030000093F9D4F8C040FDF79FF90298FDF792F8C4
:10301000002CD9D11B480178012903D106706846DC
:10302000FEF78AF9FDF7DAF90199401A16490A689C
:10303000824200D208606A4600214046FEF700FE48
:10304000FAE6000090420008CC000020A4420008EC
:10305000BC000020D80000205C000020C000002040
:10306000C8000020C4000020801A060000093D00AE
:10307000005A62020084D717BE000020A80000207A
:103080006C000020BA000020D000002030B51D4A9E
:1030900089B0002111601C4A11601C4A11601C4A51
:1030A00011701C4A11701C4A136843B11B4B1C4D14
:1030B0001C682D68AC4205D246F62C6108E046F645
:1030C0002B6105E0174C25781F2D04D346F62A61A5
:1030D000018009B030BD032505910691CDE9075067
:1030E00011481B6812680068CDE90120CDE9033161
:1030F0002078009000230D4A0DA11248FEF7FAF93E
:10310000E7E70000C0000020C8000020C400002045
:10311000CC000020BA000020944200089C42000825
:10312000A04200088C42000898420008E92D0008DF
:1031300075432F4F532D49494920537461742054CE
:1031400061736B00A832002038B50446022531B106
:103150006B46022200F03AFBBDF8000028B184F86B
:1031600036502046FFF714FD38BD032084F83600A2
:10317000F7E70000074B0022C0F8BC20196829B10E
:10318000C0F8C010C1F8BC0018607047C0F8C0207B
:10319000FAE70000D8000020D0E92F2100234AB12F
:1031A00081B1C2F8C010C1F8BC20C0F8C030C0F86E
:1031B000BC307047054A116009B1C1F8BC30C0F895
:1031C000C0307047C2F8C030F1E70000D8000020DE
:1031D000044A00211160044A1180044A11600180F0
:1031E00070470000D8000020DC000020D400002040
:1031F00070B50025056085604560C5600561456165
:103200000446856129A0C4E907506562A562E562AC
:103210002563E5872564E565A4F86050002104F185
:103220006400FFF7F1F96567A567C4F88050A4F85A
:1032300088500020C4F8845004EB8001401CCD6706
:1032400010F0FF00F8D06564C4F8A450C4F8A8508A
:10325000A56384F88A50C4F8B050C4F8AC50A58770
:103260004FF00040C4E9120525656565A565A4F821
:103270008C50A4F88E50C4F89050C4F89450343454
:10328000FDF7ACF8C4E91905C4F88050C4F88450BF
:1032900004F8015B202004F8015B04F8015B04F8EA
:1032A000850B04A020C4C4E9005070BD3F54617375
:1032B0006B000000200000002DE9FC5F9946DDE96D
:1032C0000C7692468B460546FCF730FF8046FDF7AC
:1032D0002BF8474C2078401CC0B22070012801D147
:1032E000FFF7A4FCFDF730F84046FCF723FF0DB9CB
:1032F000404805680020308095F83600DFF8F880F7
:10330000082852D2DFE800F004042626040426260A
:10331000CDE900764B465246594605F16400FFF769
:103320007BF9FCF703FF0546FCF7FEFF2078401E03
:1033300010F0FF01217031D1FFF786FCB8F80000D2
:1033400060B3FDF701F82846FCF7F4FEBDE8FC5F2A
:10335000FFF748BC95F834000228D9D153465A46A5
:10336000294600200097FFF774FAFCF7DFFE0546B8
:10337000FCF7DAFF2078401E10F0FF01217001D128
:10338000FFF762FCFCF7E0FF2846FCF7D3FE5FEA9C
:1033900009402AD4BDE8FC5FFDF7D0BEFCF7D4FF9E
:1033A0002846BDE8FC5FFCF7C5BEFCF7BFFE05463E
:1033B000FCF7BAFF2078401E10F0FF0020700CD1FF
:1033C000FFF742FCB8F8000038B1FCF7BDFF284613
:1033D000FCF7B0FEFFF706FC04E0FCF7B5FF28465B
:1033E000FCF7A8FE46F62D603080BDE8FC9F00008B
:1033F000A8000020FC0000206C00002010B504464E
:1034000000F050FA94F83600400704D42046BDE896
:103410001040FFF755BB10BD2DE9F0410D460446A5
:10342000FCF784FE0746FCF77FFF00262E8094F809
:103430003600082864D2DFE800F0040404040D39E3
:103440004955FCF781FF3846FCF774FE47F25310EC
:10345000288037E02F4D2878401CC0B22870012802
:1034600001D1FFF7E3FBFCF76FFF3846FCF762FE84
:1034700094F88A00401E10F0FF0084F88A0004D1FE
:1034800084F836602046FFF7B9FFFCF74FFE04468C
:10349000FCF74AFF2878401E10F0FF01297001D187
:1034A000FFF7D2FBFCF750FF204609E094F88A00B2
:1034B000401E10F0FF0084F88A001BD101200EE0AE
:1034C000FCF738FEBDE8F041FDF738BE94F88A00FD
:1034D000401E10F0FF0084F88A000BD1022084F80F
:1034E000360007E094F88A00401E10F0FF0084F8D0
:1034F0008A0003D0FCF728FF3846E1E70320EEE717
:10350000FCF722FF3846FCF715FE46F62D602880B2
:10351000BDE8F081A8000020044808B50068FEF767
:10352000E3F969460020FEF7E9F808BDFC00002039
:103530002DE9F84F984691468B460646FCF7F6FD76
:103540000546FCF7F1FE594C2078401CC0B22070B3
:10355000012801D1FFF76AFBFCF7F6FE2846FCF7CD
:10356000E9FD0EB9524806680020524FC6F8409057
:10357000A8F8000096F8360046F6C55A082872D218
:10358000DFE800F033332F2F33332F2FFCF7DCFE2F
:103590002846FCF7CFFDFFF725FB04E0FCF7D4FE3F
:1035A0002846FCF7C7FDA8F800A00020BDE8F88F6A
:1035B0006D1C7564FCF7BAFD0646FCF7B5FE207875
:1035C000401E10F0FF00207047D1FFF73DFB388808
:1035D000F0B3FCF7B9FE3046FCF7ACFDFFF702FB99
:1035E00062E096F83400072813D0756C681CDFD1B0
:1035F000FCF79CFD0546FCF797FE2078401E10F076
:10360000FF002070CAD1FFF71FFB38880028C5D003
:10361000BCE700231A4631461846CDF80090FFF764
:1036200018F9756CFCF782FD0646FCF77DFE2078E4
:10363000401E10F0FF00207001D1FFF705FBFCF7E2
:1036400083FE3046FCF776FD5FEA0B402CD401E0A8
:1036500003E008E0FDF772FD26E0FCF775FE30465A
:10366000FCF768FD20E0FCF761FD0546FCF75CFE19
:103670002078401E10F0FF0020700BD1FFF7E4FA15
:10368000388838B1FCF760FE2846FCF753FDFFF799
:10369000A9FA04E0FCF758FE2846FCF74BFD46F675
:1036A0002D60A8F80000002528467FE7A80000202C
:1036B000FC0000206C0000202DE9F0410D4604467E
:1036C000FCF734FD0746FCF72FFE334804B90468C5
:1036D000016832488C4209D1017839B1FCF734FED7
:1036E0003846FCF727FD46F6635052E0002129805A
:1036F00094F836100126082944D2DFE801F004319D
:1037000033393B3B3B3B05460078401CC0B2287038
:10371000012801D1FFF78AFAFCF716FE3846FCF7BC
:1037200009FD042084F8360084F88A602046FFF7FB
:103730002FFAFCF7FBFC0446FCF7F6FD2878401E48
:1037400010F0FF01297001D1FFF77EFAFCF7FCFDB4
:103750004FEA0400FCF7EEFCBDE8F041FDF7EEBCDB
:10376000052000E0062084F8360084F88A6005E031
:103770000720F8E714F88A0F401C2070FCF7E4FDDE
:103780003846E7E7FCF7E0FD3846FCF7D3FC46F6A1
:103790002D602880BDE8F081FC000020A8000020FA
:1037A00010B500200146074C074B06E004EBC002B1
:1037B000401C11609180D18080B21A889042F5D36C
:1037C00010BD00007C2C0020B8420008F0B5324C3F
:1037D00047F27E2625680024042A08D0B1B32E4E75
:1037E000082A36680E440BD0C0E9136115E04A1B65
:1037F000521E12F5803F2AD8521CC0E913120CE069
:10380000826C0A44571B7F1E8F4201D2C26400E0C3
:10381000C664C16C4A1B02658164204AC16C12886F
:10382000B1FBF2F602FB16111D4A89B202EBC1028E
:10383000918889B11168F1B1CE6C761B0E65076D68
:10384000B74212D94E6966B13146F5E7FFE7C46465
:103850000465C4611E80F0BD446184610121106073
:103860000BE0C0E90541486105E08D6975B1C0E92B
:103870000515686188619188491C9180D58889B255
:103880008D4200D2D180C2611C80F0BDC0E9051418
:1038900088611060EFE70000E0000020B8420008F7
:1038A0007C2C002010B5C269002A15D000210165CA
:1038B0001368834204D14369136033B1996104E012
:1038C000D0E90534636103B19C6141618161C161EB
:1038D000C1649088401E908010BD000010B500208B
:1038E0000446064B064A04E003EBC001401CCC80B2
:1038F00080B211888842F7D310BD00007C2C0020D4
:10390000B84200082DE9F05FFCF710FC0446FCF714
:103910000BFD554D2878401CC1B22970012901D1F9
:10392000FFF784F9FCF710FD2046FCF703FCFCF7D9
:1039300055FDDFF8388107464D49D8F800004FF0B3
:103940000009401CC8F8000009884FF0030AB0FBCA
:10395000F1F201FB1200474980B24FF0040B51F81D
:10396000304074B394F836006669082851D2DFE815
:1039700000F05004501150295036E06CD8F8001077
:10398000421A2265884246D184F836902046FFF7D5
:1039900035FD3EE0E06CD8F80010421A22658842FE
:1039A00039D1C4F85C90A4F86090FCF717FD20644E
:1039B0002046FEF720FF2046FFF720FD84F83690D2
:1039C00023E028E0E06CD8F80010421A2265884213
:1039D00021D184F836B02046FFF764FF19E0E06C8F
:1039E000D8F80010421A2265884214D1C4F85C90BD
:1039F000A4F86090FCF7F2FC20642046FEF7FBFE82
:103A00002046FFF74FFF84F836B084F835A084F8DD
:103A100034903446A5E7FCF7E1FC1749C01B0A685F
:103A2000824200D20860FCF781FB0446FCF77CFC74
:103A30002878401E10F0FF0129700DD1FFF704F91E
:103A40000E48008840B1FCF77FFC2046FCF772FB73
:103A5000BDE8F05FFFF7C6B8FCF776FC2046BDE88E
:103A6000F05FFCF767BB0000A8000020E00000202A
:103A7000B84200087C2C0020E40000206C000020EC
:103A80001CB5084C00216B4601AA0846FDF734FF1F
:103A9000BDF800000028F5D120780128F2D1FFF709
:103AA00031FFEFE76000002030B504461A4889B0C6
:103AB0000025056019480560FFF772FE1848016887
:103AC00041B11849184B0A681B689A4205D247F25F
:103AD000132008E047F2122005E0144A13781F2B48
:103AE00004D347F21120208009B030BD0B23059587
:103AF0000695CDE907340E4B096800681B68CDE9CF
:103B00000103CDE90315107800900023094A0AA1AA
:103B10000E48FDF7EFFCE7E7E0000020E40000209E
:103B2000AC420008B4420008A0420008A8420008C5
:103B3000B0420008813A000875432F4F532D494980
:103B400049205469636B205461736B00703300200B
:103B500030B52A4A89B00021294B1160294C2A4AE4
:103B60001D681DB12468B4FBF5F303E023680A2443
:103B7000B3FBF4F313601A46244B274D274C1A600D
:103B8000234A1160234A1160002206E005EBC203BC
:103B9000521C9980D98092B2196023889A42F5D339
:103BA0001F4B1A6842B11F4A1F4D14682D68AC4262
:103BB00005D247F2483108E047F2473105E01B4C97
:103BC00025781F2D04D347F24631018009B030BD5E
:103BD0000B2505910691CDE907501068144A1B6822
:103BE0001268CDE90301CDE901322078009000236D
:103BF000104A11A11648FDF77DFCE7E7E800002018
:103C0000BC420008A4420008F4000020F800002094
:103C1000F0000020EC000020042F0020CC4200081F
:103C2000C0420008C8420008A0420008BA4200088A
:103C3000C4420008153D000875432F4F532D4949D4
:103C4000492054696D6572205461736B0000000057
:103C50003834002070B5022280F82A20204A012939
:103C600014681ED0016AE1B11E4A214481611288A4
:103C7000B1FBF2F302FB13121B4B92B203EBC20235
:103C8000002315687DB1091BC1611168D1B18D692F
:103C90002D1BCD61C669AE420ED90D6945B12946CD
:103CA000F5E7416AE0E703614361106001200BE042
:103CB000C0E90431086105E04C6964B1C0E904144D
:103CC000206148619088401C9080D18880B28142F8
:103CD00000D2D08070BDC0E9041348611060F1E7E4
:103CE000F0000020CC420008042F002010B5002076
:103CF0000446064B064A04E003EBC001401CCC809E
:103D000080B211888842F7D310BD0000042F002034
:103D1000CC4200081CB5DFF89090DFF890A0244D4D
:103D2000DFF890B000216B4601AA0846FDF7E4FDDC
:103D30006846FDF741FAFCF751FB064628684FF04C
:103D40000308401C2860B9F80010B0FBF1F201FB39
:103D5000120080B25AF83040C4B1A06929682769BE
:103D6000884213D1204600F027F8208D022808D081
:103D700084F82A80A26812B12046E16890473C4648
:103D8000EAE701212046FFF765FFF3E7FCF726FB92
:103D9000841B6846FDF76AFADBF80010A142C1D225
:103DA000CBF80040BEE70000CC420008042F002002
:103DB000F0000020EC00002010B5104A8169128844
:103DC000B1FBF2F302FB13110D4A89B202EBC102FF
:103DD000002314680169844203D1116029B14B6149
:103DE00003E04469216101B14C61012180F82A108E
:103DF000036143619088401E908010BDCC42000852
:103E0000042F0020704730B58FB028216846FCF79A
:103E1000AAF914210AA8FCF7A6F901210804CDE9A2
:103E200000100024029402250491CDE907504FF4BC
:103E3000E01009906846FCF749FD0F20CDE90A051E
:103E40006802CDE90C4002210AA80E94FCF74CFC54
:103E50000FB030BD7047000070B5044600680169BE
:103E6000E26821F44051114301612169A0680843CF
:103E7000616908432168CA6841F20C639A430243AE
:103E8000CA6020684169A26921F44071114341610F
:103E90001E492068884202D1FCF7D2FC01E0FCF701
:103EA000BFFC00EBC00101EB0012606864218000E0
:103EB000B2FBF0F3B3FBF1F36FF018067343B2FB00
:103EC000F0F5B2FBF0F605EB8305322303EB0515A5
:103ED000B5FBF1F5B6FBF1F605F0F00505EB0615BF
:103EE000B2FBF0F6B2FBF0F0B0FBF1F06FF01802AD
:103EF000504306EB800003EB0010B0FBF1F02168AB
:103F000000F00F002844886070BD000000380140B8
:103F10002DE9F041984617460E460446069D1DE0E1
:103F2000681C1BD02DB1FCF757FBA0EB0800A84282
:103F300014D92068C16821F4D071C160206841693A
:103F400021F001014161202084F83D0084F83E0009
:103F5000002084F83C000320BDE8F0812068006860
:103F600036EA000004D00020B842D9D00020F3E7A0
:103F70000120F9E7FEE70000014A024900F023B8FA
:103F8000E93F0008040100200907090E002804DBAE
:103F900000F1E02080F80014704700F00F0000F1FD
:103FA000E02080F8141D704702E008C8121F08C105
:103FB000002AFAD170477047002001E001C1121FAA
:103FC000002AFBD170472DE9F04116460F46044602
:103FD000002503E03946B047641C6D1C207800289A
:103FE000F8D12846BDE8F08113B54FF6FF730122E2
:103FF00069460248FCF778FE00981CBD6006002068
:104000000EB5FCF70FF9FCF725F9FCF721FF02A824
:10401000FDF70EFAFCF76AF9104F002502AC4FF4D9
:1040200000564FF4FA78002231463846FCF7CEFAB3
:104030000022CDE90054434611461046FDF776FEB6
:10404000012231463846FCF7C1FA0022CDE900547E
:10405000434611461046FDF769FEE4E700100140B3
:1040600010B58AB009A8FCF745FFFCF7BBFAFFF7CB
:10407000CAFEFCF7CBFE002006AB09AA032105907F
:1040800083E8070040220623094CCDE90232CDE93E
:10409000001404900346074A07A104F54070FDF799
:1040A00029FA09A8FDF71CF90AB0002010BD00008C
:1040B0000801002029410008737461727420746142
:1040C000736B00000EB5FCF7ADF8FCF7C3F8FCF716
:1040D000BFFE02A8FDF7ACF9FCF708F9002402AE18
:1040E0004FF4FA7505A0FFF747FF0022CDE900461F
:1040F0002B4611461046FDF719FEF3E768656C6C18
:104100006F2075632F4F532120BBB6D3ADC0B4B51C
:10411000BD52544F53B6E0C8CECEF1BBB7BEB3A329
:10412000A1200D0A000000002DE9F0438BB0FCF740
:1041300079F809A8FDF77CF9FCF7D8F8012109AA5C
:104140000846FDF767F8FBF7F1FF0446FCF7ECF8CB
:10415000DFF8BC9099F80000401CC2B289F800203A
:10416000012A01D1FEF762FDFCF7EEF82046FBF7CD
:10417000E1FF00240326CDE9064609AD4FF006080D
:1041800024490895059404208DE803014027CDE9D2
:1041900003742346204A21A12348FDF7ABF9CDE95A
:1041A000064622490895059405208DE803011E481E
:1041B000CDE9037400231E4A1EA1C830FDF79AF909
:1041C000194809A9C838FFF777FAFBF7AFFF04468B
:1041D000FCF7AAF899F80000401E10F0FF0289F8D9
:1041E00000200ED1FEF730FD1548008848B1FCF7DD
:1041F000ABF82046FBF79EFFFEF7F4FC0BB0BDE8E2
:10420000F083FCF7A1F82046FBF794FFF6E70000E7
:10421000A800002008020020014000086C65645FCF
:104220007063313300000000D00400200803002038
:10423000C540000873656E645F6D73670000000021
:104240006C000020000000000000000001020304D8
:10425000060708090000000001020304FC1A002000
:104260000C00000080000000FC1C00200A00000080
:104270003C1E00200C000000800000003C200020BC
:1042800080000000640000003C2200200B000000C1
:104290000A0000007C2800200C00000080000000C4
:1042A00040000000E80300000A0000007C2A002013
:1042B0000C0000008000000011000B000A0000004C
:1042C000042D00200C000000800000001100000000
:1042D000F04200080000002008010000A83F00088C
:1042E000F843000808010020F8370000B83F000834
:1042F0000100000010000000000000000024F40095
:1043000000000000000000000000000000000000AD
:10431000000000000000000000000000000000009D
:10432000000000000000000000000000000000008D
:10433000000000000000000000000000000000007D
:10434000000000000000000000000000000000006D
:10435000000000000000000000000000000000005D
:10436000000000000000000000000000000000004D
:10437000000000000000000000000000000000003D
:10438000000000000000000000000000000000002D
:10439000000000000000000000000000000000001D
:1043A000000000000000000000000000000000000D
:1043B00000000000000000000000000000000000FD
:1043C00000000000000000000000000000000000ED
:1043D00000000000000000000000000000000000DD
:1043E00000000000000000000000000000000000CD
:0843F0000000000000000000C5
:04000005080000ED02
:00000001FF
