Component: ARM Compiler 5.06 update 6 (build 750) Tool: armlink [4d35ed]

==============================================================================

Section Cross References

    startup_stm32f103xb.o(RESET) refers to startup_stm32f103xb.o(STACK) for __initial_sp
    startup_stm32f103xb.o(RESET) refers to startup_stm32f103xb.o(.text) for Reset_Handler
    startup_stm32f103xb.o(RESET) refers to stm32f1xx_it.o(i.NMI_Handler) for NMI_Handler
    startup_stm32f103xb.o(RESET) refers to stm32f1xx_it.o(i.HardFault_Handler) for HardFault_Handler
    startup_stm32f103xb.o(RESET) refers to stm32f1xx_it.o(i.MemManage_Handler) for MemManage_Handler
    startup_stm32f103xb.o(RESET) refers to stm32f1xx_it.o(i.BusFault_Handler) for BusFault_Handler
    startup_stm32f103xb.o(RESET) refers to stm32f1xx_it.o(i.UsageFault_Handler) for UsageFault_Handler
    startup_stm32f103xb.o(RESET) refers to stm32f1xx_it.o(i.SVC_Handler) for SVC_Handler
    startup_stm32f103xb.o(RESET) refers to stm32f1xx_it.o(i.DebugMon_Handler) for DebugMon_Handler
    startup_stm32f103xb.o(RESET) refers to os_cpu_a.o(CODE) for OS_CPU_PendSVHandler
    startup_stm32f103xb.o(RESET) refers to os_cpu_c.o(i.OS_CPU_SysTickHandler) for OS_CPU_SysTickHandler
    startup_stm32f103xb.o(.text) refers to system_stm32f1xx.o(i.SystemInit) for SystemInit
    startup_stm32f103xb.o(.text) refers to entry.o(.ARM.Collect$$$$00000000) for __main
    main.o(i.SystemClock_Config) refers to memseta.o(.text) for __aeabi_memclr4
    main.o(i.SystemClock_Config) refers to stm32f1xx_hal_rcc.o(i.HAL_RCC_OscConfig) for HAL_RCC_OscConfig
    main.o(i.SystemClock_Config) refers to stm32f1xx_hal_rcc.o(i.HAL_RCC_ClockConfig) for HAL_RCC_ClockConfig
    main.o(i.led_pc13) refers to bsp.o(i.BSP_Init) for BSP_Init
    main.o(i.led_pc13) refers to cpu_core.o(i.CPU_Init) for CPU_Init
==============================================================================

Removing Unused input sections from the image.

    Removing startup_stm32f103xb.o(HEAP), (512 bytes).
    Removing main.o(.rev16_text), (4 bytes).
    Removing main.o(.revsh_text), (4 bytes).
    Removing main.o(.rrx_text), (6 bytes).
    Removing gpio.o(.rev16_text), (4 bytes).
    Removing gpio.o(.revsh_text), (4 bytes).
    Removing gpio.o(.rrx_text), (6 bytes).
    Removing usart.o(.rev16_text), (4 bytes).
    Removing usart.o(.revsh_text), (4 bytes).
    Removing usart.o(.rrx_text), (6 bytes).
    Removing usart.o(i.HAL_UART_MspDeInit), (44 bytes).
    Removing stm32f1xx_it.o(.rev16_text), (4 bytes).
    Removing stm32f1xx_it.o(.revsh_text), (4 bytes).
    Removing stm32f1xx_it.o(.rrx_text), (6 bytes).
    Removing stm32f1xx_it.o(i.PendSV_Handler), (2 bytes).
    Removing stm32f1xx_it.o(i.SysTick_Handler), (4 bytes).
    Removing stm32f1xx_hal_msp.o(.rev16_text), (4 bytes).
    Removing stm32f1xx_hal_msp.o(.revsh_text), (4 bytes).
==============================================================================

Image Symbol Table

    Local Symbols

    Symbol Name                              Value     Ov Type        Size  Object(Section)

    ../Core/Src/gpio.c                       0x00000000   Number         0  gpio.o ABSOLUTE
    ../Core/Src/main.c                       0x00000000   Number         0  main.o ABSOLUTE
    ../Core/Src/stm32f1xx_hal_msp.c          0x00000000   Number         0  stm32f1xx_hal_msp.o ABSOLUTE
    ../Core/Src/stm32f1xx_it.c               0x00000000   Number         0  stm32f1xx_it.o ABSOLUTE
    ../Core/Src/system_stm32f1xx.c           0x00000000   Number         0  system_stm32f1xx.o ABSOLUTE
    ../Core/Src/usart.c                      0x00000000   Number         0  usart.o ABSOLUTE
    ../Drivers/STM32F1xx_HAL_Driver/Src/stm32f1xx_hal.c 0x00000000   Number         0  stm32f1xx_hal.o ABSOLUTE
    ../Drivers/STM32F1xx_HAL_Driver/Src/stm32f1xx_hal_cortex.c 0x00000000   Number         0  stm32f1xx_hal_cortex.o ABSOLUTE
    ../Drivers/STM32F1xx_HAL_Driver/Src/stm32f1xx_hal_dma.c 0x00000000   Number         0  stm32f1xx_hal_dma.o ABSOLUTE
    ../Drivers/STM32F1xx_HAL_Driver/Src/stm32f1xx_hal_exti.c 0x00000000   Number         0  stm32f1xx_hal_exti.o ABSOLUTE
    ../Drivers/STM32F1xx_HAL_Driver/Src/stm32f1xx_hal_flash.c 0x00000000   Number         0  stm32f1xx_hal_flash.o ABSOLUTE
    ../Drivers/STM32F1xx_HAL_Driver/Src/stm32f1xx_hal_flash_ex.c 0x00000000   Number         0  stm32f1xx_hal_flash_ex.o ABSOLUTE
    ../Drivers/STM32F1xx_HAL_Driver/Src/stm32f1xx_hal_gpio.c 0x00000000   Number         0  stm32f1xx_hal_gpio.o ABSOLUTE
    ../Drivers/STM32F1xx_HAL_Driver/Src/stm32f1xx_hal_gpio_ex.c 0x00000000   Number         0  stm32f1xx_hal_gpio_ex.o ABSOLUTE
    ../Drivers/STM32F1xx_HAL_Driver/Src/stm32f1xx_hal_pwr.c 0x00000000   Number         0  stm32f1xx_hal_pwr.o ABSOLUTE
    ../Drivers/STM32F1xx_HAL_Driver/Src/stm32f1xx_hal_rcc.c 0x00000000   Number         0  stm32f1xx_hal_rcc.o ABSOLUTE
    ../Drivers/STM32F1xx_HAL_Driver/Src/stm32f1xx_hal_rcc_ex.c 0x00000000   Number         0  stm32f1xx_hal_rcc_ex.o ABSOLUTE
    ../Drivers/STM32F1xx_HAL_Driver/Src/stm32f1xx_hal_tim.c 0x00000000   Number         0  stm32f1xx_hal_tim.o ABSOLUTE
    ../Drivers/STM32F1xx_HAL_Driver/Src/stm32f1xx_hal_tim_ex.c 0x00000000   Number         0  stm32f1xx_hal_tim_ex.o ABSOLUTE
    ../Drivers/STM32F1xx_HAL_Driver/Src/stm32f1xx_hal_uart.c 0x00000000   Number         0  stm32f1xx_hal_uart.o ABSOLUTE
    ../clib/microlib/division.c              0x00000000   Number         0  uldiv.o ABSOLUTE
    ../clib/microlib/division.c              0x00000000   Number         0  uidiv.o ABSOLUTE
    ../clib/microlib/init/entry.s            0x00000000   Number         0  entry11b.o ABSOLUTE
    ../clib/microlib/init/entry.s            0x00000000   Number         0  entry8b.o ABSOLUTE
    ../clib/microlib/init/entry.s            0x00000000   Number         0  entry7a.o ABSOLUTE
    ../clib/microlib/init/entry.s            0x00000000   Number         0  entry9b.o ABSOLUTE
    ../clib/microlib/init/entry.s            0x00000000   Number         0  entry7b.o ABSOLUTE
    ../clib/microlib/init/entry.s            0x00000000   Number         0  entry5.o ABSOLUTE
    ../clib/microlib/init/entry.s            0x00000000   Number         0  entry9a.o ABSOLUTE
    ../clib/microlib/init/entry.s            0x00000000   Number         0  entry10a.o ABSOLUTE
    ../clib/microlib/init/entry.s            0x00000000   Number         0  entry8a.o ABSOLUTE
    ../clib/microlib/init/entry.s            0x00000000   Number         0  entry11a.o ABSOLUTE
    ../clib/microlib/init/entry.s            0x00000000   Number         0  entry10b.o ABSOLUTE
    ../clib/microlib/init/entry.s            0x00000000   Number         0  entry.o ABSOLUTE
    ../clib/microlib/init/entry.s            0x00000000   Number         0  entry2.o ABSOLUTE
    ../clib/microlib/longlong.c              0x00000000   Number         0  llsshr.o ABSOLUTE
    ../clib/microlib/longlong.c              0x00000000   Number         0  llshl.o ABSOLUTE
    ../clib/microlib/longlong.c              0x00000000   Number         0  llushr.o ABSOLUTE
    ../clib/microlib/printf/printf.c         0x00000000   Number         0  printfa.o ABSOLUTE
    ../clib/microlib/printf/printf.c         0x00000000   Number         0  printf8.o ABSOLUTE
    ../clib/microlib/printf/printf.c         0x00000000   Number         0  printf7.o ABSOLUTE
    ../clib/microlib/printf/printf.c         0x00000000   Number         0  printf6.o ABSOLUTE
    ../clib/microlib/printf/printf.c         0x00000000   Number         0  printf5.o ABSOLUTE
    ../clib/microlib/printf/printf.c         0x00000000   Number         0  printf4.o ABSOLUTE
    ../clib/microlib/printf/printf.c         0x00000000   Number         0  printf3.o ABSOLUTE
    ../clib/microlib/printf/printf.c         0x00000000   Number         0  printf2.o ABSOLUTE
    ../clib/microlib/printf/printf.c         0x00000000   Number         0  printf1.o ABSOLUTE
    ../clib/microlib/printf/printf.c         0x00000000   Number         0  printf0.o ABSOLUTE
    ../clib/microlib/printf/printf.c         0x00000000   Number         0  printfb.o ABSOLUTE
    ../clib/microlib/stdio/streams.c         0x00000000   Number         0  stdout.o ABSOLUTE
    ../clib/microlib/string/memset.c         0x00000000   Number         0  memseta.o ABSOLUTE
    ../clib/microlib/stubs.s                 0x00000000   Number         0  iusefp.o ABSOLUTE
    ../fplib/microlib/fpadd.c                0x00000000   Number         0  dadd.o ABSOLUTE
    ../fplib/microlib/fpdiv.c                0x00000000   Number         0  ddiv.o ABSOLUTE
    ../fplib/microlib/fpepilogue.c           0x00000000   Number         0  depilogue.o ABSOLUTE
    ../fplib/microlib/fpfix.c                0x00000000   Number         0  dfixul.o ABSOLUTE
    ../fplib/microlib/fpmul.c                0x00000000   Number         0  dmul.o ABSOLUTE
    ..\Core\Src\gpio.c                       0x00000000   Number         0  gpio.o ABSOLUTE
    ..\Core\Src\main.c                       0x00000000   Number         0  main.o ABSOLUTE
    ..\Core\Src\stm32f1xx_hal_msp.c          0x00000000   Number         0  stm32f1xx_hal_msp.o ABSOLUTE
    ..\Core\Src\stm32f1xx_it.c               0x00000000   Number         0  stm32f1xx_it.o ABSOLUTE
    ..\Core\Src\system_stm32f1xx.c           0x00000000   Number         0  system_stm32f1xx.o ABSOLUTE
    ..\Core\Src\usart.c                      0x00000000   Number         0  usart.o ABSOLUTE
    ..\Drivers\STM32F1xx_HAL_Driver\Src\stm32f1xx_hal.c 0x00000000   Number         0  stm32f1xx_hal.o ABSOLUTE
    ..\Drivers\STM32F1xx_HAL_Driver\Src\stm32f1xx_hal_cortex.c 0x00000000   Number         0  stm32f1xx_hal_cortex.o ABSOLUTE
    ..\Drivers\STM32F1xx_HAL_Driver\Src\stm32f1xx_hal_dma.c 0x00000000   Number         0  stm32f1xx_hal_dma.o ABSOLUTE
    ..\Drivers\STM32F1xx_HAL_Driver\Src\stm32f1xx_hal_exti.c 0x00000000   Number         0  stm32f1xx_hal_exti.o ABSOLUTE
    ..\Drivers\STM32F1xx_HAL_Driver\Src\stm32f1xx_hal_flash.c 0x00000000   Number         0  stm32f1xx_hal_flash.o ABSOLUTE
    ..\Drivers\STM32F1xx_HAL_Driver\Src\stm32f1xx_hal_flash_ex.c 0x00000000   Number         0  stm32f1xx_hal_flash_ex.o ABSOLUTE
    ..\Drivers\STM32F1xx_HAL_Driver\Src\stm32f1xx_hal_gpio.c 0x00000000   Number         0  stm32f1xx_hal_gpio.o ABSOLUTE
    ..\Drivers\STM32F1xx_HAL_Driver\Src\stm32f1xx_hal_gpio_ex.c 0x00000000   Number         0  stm32f1xx_hal_gpio_ex.o ABSOLUTE
    ..\Drivers\STM32F1xx_HAL_Driver\Src\stm32f1xx_hal_pwr.c 0x00000000   Number         0  stm32f1xx_hal_pwr.o ABSOLUTE
    ..\Drivers\STM32F1xx_HAL_Driver\Src\stm32f1xx_hal_rcc.c 0x00000000   Number         0  stm32f1xx_hal_rcc.o ABSOLUTE
    ..\Drivers\STM32F1xx_HAL_Driver\Src\stm32f1xx_hal_rcc_ex.c 0x00000000   Number         0  stm32f1xx_hal_rcc_ex.o ABSOLUTE
    ..\Drivers\STM32F1xx_HAL_Driver\Src\stm32f1xx_hal_tim.c 0x00000000   Number         0  stm32f1xx_hal_tim.o ABSOLUTE
    ..\Drivers\STM32F1xx_HAL_Driver\Src\stm32f1xx_hal_tim_ex.c 0x00000000   Number         0  stm32f1xx_hal_tim_ex.o ABSOLUTE
    ..\Drivers\STM32F1xx_HAL_Driver\Src\stm32f1xx_hal_uart.c 0x00000000   Number         0  stm32f1xx_hal_uart.o ABSOLUTE
    cdrcmple.s                               0x00000000   Number         0  cdrcmple.o ABSOLUTE
    dc.s                                     0x00000000   Number         0  dc.o ABSOLUTE
    handlers.s                               0x00000000   Number         0  handlers.o ABSOLUTE
    init.s                                   0x00000000   Number         0  init.o ABSOLUTE
    startup_stm32f103xb.s                    0x00000000   Number         0  startup_stm32f103xb.o ABSOLUTE
    uC-BSP\\bsp.c                            0x00000000   Number         0  bsp.o ABSOLUTE
    uC-BSP\bsp.c                             0x00000000   Number         0  bsp.o ABSOLUTE
    uC-CONFIG\os_app_hooks.c                 0x00000000   Number         0  os_app_hooks.o ABSOLUTE
    uC-CPU\ARM-Cortex-M3\RealView\cpu_a.asm  0x00000000   Number         0  cpu_a.o ABSOLUTE
    uC-CPU\ARM-Cortex-M3\RealView\cpu_c.c    0x00000000   Number         0  cpu_c.o ABSOLUTE
    uC-CPU\cpu_core.c                        0x00000000   Number         0  cpu_core.o ABSOLUTE
    uC-LIB\Ports\ARM-Cortex-M3\RealView\lib_mem_a.asm 0x00000000   Number         0  lib_mem_a.o ABSOLUTE
    uC-LIB\lib_ascii.c                       0x00000000   Number         0  lib_ascii.o ABSOLUTE
    uC-LIB\lib_math.c                        0x00000000   Number         0  lib_math.o ABSOLUTE
    uC-LIB\lib_mem.c                         0x00000000   Number         0  lib_mem.o ABSOLUTE
    uC-LIB\lib_str.c                         0x00000000   Number         0  lib_str.o ABSOLUTE
    uCOS-III\Ports\ARM-Cortex-M3\Generic\RealView\os_cpu_a.s 0x00000000   Number         0  os_cpu_a.o ABSOLUTE
    uCOS-III\Ports\ARM-Cortex-M3\Generic\RealView\os_cpu_c.c 0x00000000   Number         0  os_cpu_c.o ABSOLUTE
    uCOS-III\Source\os_cfg_app.c             0x00000000   Number         0  os_cfg_app.o ABSOLUTE
    uCOS-III\Source\os_core.c                0x00000000   Number         0  os_core.o ABSOLUTE
    uCOS-III\Source\os_dbg.c                 0x00000000   Number         0  os_dbg.o ABSOLUTE
    uCOS-III\Source\os_flag.c                0x00000000   Number         0  os_flag.o ABSOLUTE
    uCOS-III\Source\os_int.c                 0x00000000   Number         0  os_int.o ABSOLUTE
    uCOS-III\Source\os_mem.c                 0x00000000   Number         0  os_mem.o ABSOLUTE
    uCOS-III\Source\os_msg.c                 0x00000000   Number         0  os_msg.o ABSOLUTE
    uCOS-III\Source\os_mutex.c               0x00000000   Number         0  os_mutex.o ABSOLUTE
    uCOS-III\Source\os_pend_multi.c          0x00000000   Number         0  os_pend_multi.o ABSOLUTE
    uCOS-III\Source\os_prio.c                0x00000000   Number         0  os_prio.o ABSOLUTE
    uCOS-III\Source\os_q.c                   0x00000000   Number         0  os_q.o ABSOLUTE
    uCOS-III\Source\os_sem.c                 0x00000000   Number         0  os_sem.o ABSOLUTE
    uCOS-III\Source\os_stat.c                0x00000000   Number         0  os_stat.o ABSOLUTE
    uCOS-III\Source\os_task.c                0x00000000   Number         0  os_task.o ABSOLUTE
    uCOS-III\Source\os_tick.c                0x00000000   Number         0  os_tick.o ABSOLUTE
    uCOS-III\Source\os_time.c                0x00000000   Number         0  os_time.o ABSOLUTE
    uCOS-III\Source\os_tmr.c                 0x00000000   Number         0  os_tmr.o ABSOLUTE
    uCOS-III\Source\os_var.c                 0x00000000   Number         0  os_var.o ABSOLUTE
    RESET                                    0x08000000   Section      236  startup_stm32f103xb.o(RESET)
    .ARM.Collect$$$$00000000                 0x080000ec   Section        0  entry.o(.ARM.Collect$$$$00000000)
    .ARM.Collect$$$$00000001                 0x080000ec   Section        4  entry2.o(.ARM.Collect$$$$00000001)
    .ARM.Collect$$$$00000004                 0x080000f0   Section        4  entry5.o(.ARM.Collect$$$$00000004)
    .ARM.Collect$$$$00000008                 0x080000f4   Section        0  entry7b.o(.ARM.Collect$$$$00000008)
    .ARM.Collect$$$$0000000A                 0x080000f4   Section        0  entry8b.o(.ARM.Collect$$$$0000000A)
    .ARM.Collect$$$$0000000B                 0x080000f4   Section        8  entry9a.o(.ARM.Collect$$$$0000000B)
    .ARM.Collect$$$$0000000D                 0x080000fc   Section        0  entry10a.o(.ARM.Collect$$$$0000000D)
    .ARM.Collect$$$$0000000F                 0x080000fc   Section        0  entry11a.o(.ARM.Collect$$$$0000000F)
    .ARM.Collect$$$$00002712                 0x080000fc   Section        4  entry2.o(.ARM.Collect$$$$00002712)
    __lit__00000000                          0x080000fc   Data           4  entry2.o(.ARM.Collect$$$$00002712)
    .text                                    0x08000100   Section       36  startup_stm32f103xb.o(.text)
    .text                                    0x08000124   Section       52  cpu_a.o(.text)
    .text                                    0x08000158   Section        0  memseta.o(.text)
    .text                                    0x0800017c   Section       36  init.o(.text)
    CODE                                     0x080001a0   Section      132  os_cpu_a.o(CODE)
    i.BSP_Init                               0x08000224   Section        0  bsp.o(i.BSP_Init)
    i.BSP_Tick_Init                          0x08000234   Section        0  bsp.o(i.BSP_Tick_Init)
    i.BusFault_Handler                       0x08000250   Section        0  stm32f1xx_it.o(i.BusFault_Handler)
    i.CPU_Init                               0x08000254   Section        0  cpu_core.o(i.CPU_Init)
    i.CPU_IntDisMeasInit                     0x08000270   Section        0  cpu_core.o(i.CPU_IntDisMeasInit)
    CPU_IntDisMeasInit                       0x08000271   Thumb Code    70  cpu_core.o(i.CPU_IntDisMeasInit)
    i.CPU_IntDisMeasMaxCalc                  0x080002bc   Section        0  cpu_core.o(i.CPU_IntDisMeasMaxCalc)
    CPU_IntDisMeasMaxCalc                    0x080002bd   Thumb Code    16  cpu_core.o(i.CPU_IntDisMeasMaxCalc)
    i.CPU_IntDisMeasMaxCurGet                0x080002d0   Section        0  cpu_core.o(i.CPU_IntDisMeasMaxCurGet)
    i.CPU_IntDisMeasMaxCurReset              0x080002ec   Section        0  cpu_core.o(i.CPU_IntDisMeasMaxCurReset)
    i.CPU_IntDisMeasMaxGet                   0x0800030c   Section        0  cpu_core.o(i.CPU_IntDisMeasMaxGet)
    i.CPU_IntDisMeasStart                    0x08000328   Section        0  cpu_core.o(i.CPU_IntDisMeasStart)
    i.CPU_IntDisMeasStop                     0x08000348   Section        0  cpu_core.o(i.CPU_IntDisMeasStop)
    i.CPU_NameClr                            0x08000378   Section        0  cpu_core.o(i.CPU_NameClr)
    i.CPU_TS_TmrFreqSet                      0x080003a0   Section        0  cpu_core.o(i.CPU_TS_TmrFreqSet)
    i.CPU_TS_TmrInit                         0x080003ac   Section        0  bsp.o(i.CPU_TS_TmrInit)
    i.CPU_TS_TmrRd                           0x080003dc   Section        0  bsp.o(i.CPU_TS_TmrRd)
    i.DebugMon_Handler                       0x080003e8   Section        0  stm32f1xx_it.o(i.DebugMon_Handler)
    i.Error_Handler                          0x080003ea   Section        0  main.o(i.Error_Handler)
    i.HAL_GPIO_Init                          0x080003ec   Section        0  stm32f1xx_hal_gpio.o(i.HAL_GPIO_Init)
    i.HAL_GPIO_WritePin                      0x080005cc   Section        0  stm32f1xx_hal_gpio.o(i.HAL_GPIO_WritePin)
    i.HAL_GetTick                            0x080005d8   Section        0  stm32f1xx_hal.o(i.HAL_GetTick)
    i.HAL_Init                               0x080005e4   Section        0  stm32f1xx_hal.o(i.HAL_Init)
    i.HAL_InitTick                           0x08000608   Section        0  stm32f1xx_hal.o(i.HAL_InitTick)
    i.HAL_MspInit                            0x08000648   Section        0  stm32f1xx_hal_msp.o(i.HAL_MspInit)
    i.HAL_NVIC_SetPriority                   0x08000684   Section        0  stm32f1xx_hal_cortex.o(i.HAL_NVIC_SetPriority)
    i.HAL_NVIC_SetPriorityGrouping           0x080006c4   Section        0  stm32f1xx_hal_cortex.o(i.HAL_NVIC_SetPriorityGrouping)
    i.HAL_RCC_ClockConfig                    0x080006e8   Section        0  stm32f1xx_hal_rcc.o(i.HAL_RCC_ClockConfig)
    i.HAL_RCC_GetHCLKFreq                    0x08000814   Section        0  stm32f1xx_hal_rcc.o(i.HAL_RCC_GetHCLKFreq)
    i.HAL_RCC_GetPCLK1Freq                   0x08000820   Section        0  stm32f1xx_hal_rcc.o(i.HAL_RCC_GetPCLK1Freq)
    i.HAL_RCC_GetPCLK2Freq                   0x08000840   Section        0  stm32f1xx_hal_rcc.o(i.HAL_RCC_GetPCLK2Freq)
    i.HAL_RCC_GetSysClockFreq                0x08000860   Section        0  stm32f1xx_hal_rcc.o(i.HAL_RCC_GetSysClockFreq)
    i.HAL_RCC_OscConfig                      0x080008cc   Section        0  stm32f1xx_hal_rcc.o(i.HAL_RCC_OscConfig)
    i.HAL_SYSTICK_Config                     0x08000bec   Section        0  stm32f1xx_hal_cortex.o(i.HAL_SYSTICK_Config)
    i.HAL_UART_Init                          0x08000c14   Section        0  stm32f1xx_hal_uart.o(i.HAL_UART_Init)
    i.HAL_UART_MspInit                       0x08000c78   Section        0  usart.o(i.HAL_UART_MspInit)
    i.HAL_UART_Transmit                      0x08000ce8   Section        0  stm32f1xx_hal_uart.o(i.HAL_UART_Transmit)
    i.HardFault_Handler                      0x08000d9a   Section        0  stm32f1xx_it.o(i.HardFault_Handler)
    i.MX_GPIO_Init                           0x08000d9c   Section        0  gpio.o(i.MX_GPIO_Init)
    i.MX_USART1_UART_Init                    0x08000e0c   Section        0  usart.o(i.MX_USART1_UART_Init)
    i.MemManage_Handler                      0x08000e44   Section        0  stm32f1xx_it.o(i.MemManage_Handler)
    i.Mem_Clr                                0x08000e46   Section        0  lib_mem.o(i.Mem_Clr)
    i.Mem_Init                               0x08000e50   Section        0  lib_mem.o(i.Mem_Init)
    i.Mem_Set                                0x08000e94   Section        0  lib_mem.o(i.Mem_Set)
    i.NMI_Handler                            0x08000ee0   Section        0  stm32f1xx_it.o(i.NMI_Handler)
    i.OSCfg_Init                             0x08000ee2   Section        0  os_cfg_app.o(i.OSCfg_Init)
    i.OSIdleTaskHook                         0x08000ee4   Section        0  os_cpu_c.o(i.OSIdleTaskHook)
    i.OSInit                                 0x08000ef4   Section        0  os_core.o(i.OSInit)
    i.OSInitHook                             0x08001078   Section        0  os_cpu_c.o(i.OSInitHook)
    i.OSIntExit                              0x080010ac   Section        0  os_core.o(i.OSIntExit)
    i.OSSched                                0x0800113c   Section        0  os_core.o(i.OSSched)
    i.OSSchedLock                            0x080011b8   Section        0  os_core.o(i.OSSchedLock)
    i.OSSchedRoundRobinCfg                   0x08001214   Section        0  os_core.o(i.OSSchedRoundRobinCfg)
    i.OSSchedUnlock                          0x0800126c   Section        0  os_core.o(i.OSSchedUnlock)
    i.OSStart                                0x080012e0   Section        0  os_core.o(i.OSStart)
    i.OSStatReset                            0x08001338   Section        0  os_stat.o(i.OSStatReset)
    i.OSStatTaskCPUUsageInit                 0x08001430   Section        0  os_stat.o(i.OSStatTaskCPUUsageInit)
    i.OSStatTaskHook                         0x080014e4   Section        0  os_cpu_c.o(i.OSStatTaskHook)
    i.OSTaskCreate                           0x080014f4   Section        0  os_task.o(i.OSTaskCreate)
    i.OSTaskCreateHook                       0x080016ec   Section        0  os_cpu_c.o(i.OSTaskCreateHook)
    i.OSTaskDel                              0x080016fc   Section        0  os_task.o(i.OSTaskDel)
    i.OSTaskDelHook                          0x08001868   Section        0  os_cpu_c.o(i.OSTaskDelHook)
    i.OSTaskResume                           0x08001878   Section        0  os_task.o(i.OSTaskResume)
    i.OSTaskReturnHook                       0x080018e8   Section        0  os_cpu_c.o(i.OSTaskReturnHook)
    i.OSTaskSemPend                          0x080018f8   Section        0  os_task.o(i.OSTaskSemPend)
    i.OSTaskStkChk                           0x08001a68   Section        0  os_task.o(i.OSTaskStkChk)
    i.OSTaskStkInit                          0x08001b14   Section        0  os_cpu_c.o(i.OSTaskStkInit)
    i.OSTaskSuspend                          0x08001b84   Section        0  os_task.o(i.OSTaskSuspend)
    i.OSTaskSwHook                           0x08001bd8   Section        0  os_cpu_c.o(i.OSTaskSwHook)
    i.OSTimeDly                              0x08001c40   Section        0  os_time.o(i.OSTimeDly)
    i.OSTimeDlyHMSM                          0x08001d2c   Section        0  os_time.o(i.OSTimeDlyHMSM)
    i.OSTimeTick                             0x08001eb4   Section        0  os_time.o(i.OSTimeTick)
    i.OSTimeTickHook                         0x08001ef4   Section        0  os_cpu_c.o(i.OSTimeTickHook)
    i.OS_CPU_SysTickHandler                  0x08001f04   Section        0  os_cpu_c.o(i.OS_CPU_SysTickHandler)
    i.OS_CPU_SysTickInit                     0x08001f34   Section        0  os_cpu_c.o(i.OS_CPU_SysTickInit)
    i.OS_Dbg_Init                            0x08001f5c   Section        0  os_dbg.o(i.OS_Dbg_Init)
    i.OS_FlagInit                            0x08001f60   Section        0  os_flag.o(i.OS_FlagInit)
    i.OS_FlagPost                            0x08001f78   Section        0  os_flag.o(i.OS_FlagPost)
    i.OS_FlagTaskRdy                         0x08002100   Section        0  os_flag.o(i.OS_FlagTaskRdy)
    i.OS_IdleTask                            0x08002144   Section        0  os_core.o(i.OS_IdleTask)
    i.OS_IdleTaskInit                        0x08002178   Section        0  os_core.o(i.OS_IdleTaskInit)
    i.OS_IntQPost                            0x080021e0   Section        0  os_int.o(i.OS_IntQPost)
    i.OS_IntQRePost                          0x08002298   Section        0  os_int.o(i.OS_IntQRePost)
    i.OS_IntQTask                            0x080023b4   Section        0  os_int.o(i.OS_IntQTask)
    i.OS_IntQTaskInit                        0x0800243c   Section        0  os_int.o(i.OS_IntQTaskInit)
    i.OS_MemInit                             0x08002554   Section        0  os_mem.o(i.OS_MemInit)
    i.OS_MsgPoolInit                         0x0800256c   Section        0  os_msg.o(i.OS_MsgPoolInit)
    i.OS_MsgQFreeAll                         0x080025d4   Section        0  os_msg.o(i.OS_MsgQFreeAll)
    i.OS_MsgQInit                            0x08002608   Section        0  os_msg.o(i.OS_MsgQInit)
    i.OS_MsgQPut                             0x08002618   Section        0  os_msg.o(i.OS_MsgQPut)
    i.OS_MutexInit                           0x080026a0   Section        0  os_mutex.o(i.OS_MutexInit)
    i.OS_Pend                                0x080026b8   Section        0  os_core.o(i.OS_Pend)
    i.OS_PendDataInit                        0x08002708   Section        0  os_core.o(i.OS_PendDataInit)
    i.OS_PendDbgNameAdd                      0x08002738   Section        0  os_core.o(i.OS_PendDbgNameAdd)
    i.OS_PendDbgNameRemove                   0x08002780   Section        0  os_core.o(i.OS_PendDbgNameRemove)
    i.OS_PendListInsertPrio                  0x0800279c   Section        0  os_core.o(i.OS_PendListInsertPrio)
    i.OS_PendListRemove                      0x080027f6   Section        0  os_core.o(i.OS_PendListRemove)
    i.OS_PendListRemove1                     0x0800281c   Section        0  os_core.o(i.OS_PendListRemove1)
    i.OS_Post                                0x08002852   Section        0  os_core.o(i.OS_Post)
    i.OS_Post1                               0x080028ea   Section        0  os_core.o(i.OS_Post1)
    i.OS_PrioGetHighest                      0x08002910   Section        0  os_prio.o(i.OS_PrioGetHighest)
    i.OS_PrioInit                            0x08002934   Section        0  os_prio.o(i.OS_PrioInit)
    i.OS_PrioInsert                          0x08002940   Section        0  os_prio.o(i.OS_PrioInsert)
    i.OS_PrioRemove                          0x08002960   Section        0  os_prio.o(i.OS_PrioRemove)
    i.OS_QInit                               0x08002980   Section        0  os_q.o(i.OS_QInit)
    i.OS_QPost                               0x08002998   Section        0  os_q.o(i.OS_QPost)
    i.OS_RdyListInit                         0x08002a9c   Section        0  os_core.o(i.OS_RdyListInit)
    i.OS_RdyListInsert                       0x08002ac0   Section        0  os_core.o(i.OS_RdyListInsert)
    i.OS_RdyListInsertHead                   0x08002af0   Section        0  os_core.o(i.OS_RdyListInsertHead)
    i.OS_RdyListInsertTail                   0x08002b28   Section        0  os_core.o(i.OS_RdyListInsertTail)
    i.OS_RdyListMoveHeadToTail               0x08002b5c   Section        0  os_core.o(i.OS_RdyListMoveHeadToTail)
    i.OS_RdyListRemove                       0x08002b90   Section        0  os_core.o(i.OS_RdyListRemove)
    i.OS_Sched0                              0x08002be4   Section        0  os_core.o(i.OS_Sched0)
    i.OS_SchedLockTimeMeasStart              0x08002c2c   Section        0  os_core.o(i.OS_SchedLockTimeMeasStart)
    i.OS_SchedLockTimeMeasStop               0x08002c48   Section        0  os_core.o(i.OS_SchedLockTimeMeasStop)
    i.OS_SchedRoundRobin                     0x08002c84   Section        0  os_core.o(i.OS_SchedRoundRobin)
    i.OS_SemInit                             0x08002cec   Section        0  os_sem.o(i.OS_SemInit)
    i.OS_SemPost                             0x08002d04   Section        0  os_sem.o(i.OS_SemPost)
    i.OS_StatTask                            0x08002de8   Section        0  os_stat.o(i.OS_StatTask)
    i.OS_StatTaskInit                        0x0800308c   Section        0  os_stat.o(i.OS_StatTaskInit)
    i.OS_TaskBlock                           0x08003148   Section        0  os_core.o(i.OS_TaskBlock)
    i.OS_TaskDbgListAdd                      0x08003174   Section        0  os_task.o(i.OS_TaskDbgListAdd)
    i.OS_TaskDbgListRemove                   0x08003198   Section        0  os_task.o(i.OS_TaskDbgListRemove)
    i.OS_TaskInit                            0x080031d0   Section        0  os_task.o(i.OS_TaskInit)
    i.OS_TaskInitTCB                         0x080031f0   Section        0  os_task.o(i.OS_TaskInitTCB)
    i.OS_TaskQPost                           0x080032b8   Section        0  os_task.o(i.OS_TaskQPost)
    i.OS_TaskRdy                             0x080033fc   Section        0  os_core.o(i.OS_TaskRdy)
    i.OS_TaskResume                          0x08003418   Section        0  os_task.o(i.OS_TaskResume)
    i.OS_TaskReturn                          0x08003518   Section        0  os_task.o(i.OS_TaskReturn)
    i.OS_TaskSemPost                         0x08003530   Section        0  os_task.o(i.OS_TaskSemPost)
    i.OS_TaskSuspend                         0x080036b8   Section        0  os_task.o(i.OS_TaskSuspend)
    i.OS_TickListInit                        0x080037a0   Section        0  os_tick.o(i.OS_TickListInit)
    i.OS_TickListInsert                      0x080037cc   Section        0  os_tick.o(i.OS_TickListInsert)
    i.OS_TickListRemove                      0x080038a4   Section        0  os_tick.o(i.OS_TickListRemove)
    i.OS_TickListResetPeak                   0x080038dc   Section        0  os_tick.o(i.OS_TickListResetPeak)
    i.OS_TickListUpdate                      0x08003904   Section        0  os_tick.o(i.OS_TickListUpdate)
    i.OS_TickTask                            0x08003a80   Section        0  os_tick.o(i.OS_TickTask)
    i.OS_TickTaskInit                        0x08003aa8   Section        0  os_tick.o(i.OS_TickTaskInit)
    i.OS_TmrInit                             0x08003b50   Section        0  os_tmr.o(i.OS_TmrInit)
    i.OS_TmrLink                             0x08003c54   Section        0  os_tmr.o(i.OS_TmrLink)
    i.OS_TmrResetPeak                        0x08003cec   Section        0  os_tmr.o(i.OS_TmrResetPeak)
    i.OS_TmrTask                             0x08003d14   Section        0  os_tmr.o(i.OS_TmrTask)
    i.OS_TmrUnlink                           0x08003db8   Section        0  os_tmr.o(i.OS_TmrUnlink)
    i.SVC_Handler                            0x08003e04   Section        0  stm32f1xx_it.o(i.SVC_Handler)
    i.SystemClock_Config                     0x08003e06   Section        0  main.o(i.SystemClock_Config)
    i.SystemInit                             0x08003e54   Section        0  system_stm32f1xx.o(i.SystemInit)
    i.UART_SetConfig                         0x08003e58   Section        0  stm32f1xx_hal_uart.o(i.UART_SetConfig)
    UART_SetConfig                           0x08003e59   Thumb Code   178  stm32f1xx_hal_uart.o(i.UART_SetConfig)
    i.UART_WaitOnFlagUntilTimeout            0x08003f10   Section        0  stm32f1xx_hal_uart.o(i.UART_WaitOnFlagUntilTimeout)
    UART_WaitOnFlagUntilTimeout              0x08003f11   Thumb Code   100  stm32f1xx_hal_uart.o(i.UART_WaitOnFlagUntilTimeout)
    i.UsageFault_Handler                     0x08003f74   Section        0  stm32f1xx_it.o(i.UsageFault_Handler)
    i.__0printf$bare                         0x08003f78   Section        0  printfb.o(i.__0printf$bare)
    i.__NVIC_SetPriority                     0x08003f88   Section        0  stm32f1xx_hal_cortex.o(i.__NVIC_SetPriority)
    __NVIC_SetPriority                       0x08003f89   Thumb Code    32  stm32f1xx_hal_cortex.o(i.__NVIC_SetPriority)
    i.__scatterload_copy                     0x08003fa8   Section       14  handlers.o(i.__scatterload_copy)
    i.__scatterload_null                     0x08003fb6   Section        2  handlers.o(i.__scatterload_null)
    i.__scatterload_zeroinit                 0x08003fb8   Section       14  handlers.o(i.__scatterload_zeroinit)
    i._printf_core                           0x08003fc6   Section        0  printfb.o(i._printf_core)
    _printf_core                             0x08003fc7   Thumb Code    34  printfb.o(i._printf_core)
    i.fputc                                  0x08003fe8   Section        0  usart.o(i.fputc)
    i.led_pc13                               0x08004000   Section        0  main.o(i.led_pc13)
    led_pc13                                 0x08004001   Thumb Code    92  main.o(i.led_pc13)
    i.main                                   0x08004060   Section        0  main.o(i.main)
    i.send_msg                               0x080040c4   Section        0  main.o(i.send_msg)
    send_msg                                 0x080040c5   Thumb Code    56  main.o(i.send_msg)
    i.start_task                             0x08004128   Section        0  main.o(i.start_task)
    .constdata                               0x08004244   Section       16  system_stm32f1xx.o(.constdata)
    .constdata                               0x08004254   Section        8  system_stm32f1xx.o(.constdata)
    .constdata                               0x0800425c   Section        4  os_cfg_app.o(.constdata)
    .constdata                               0x08004260   Section        4  os_cfg_app.o(.constdata)
    .constdata                               0x08004264   Section        4  os_cfg_app.o(.constdata)
    .constdata                               0x08004268   Section        4  os_cfg_app.o(.constdata)
    .constdata                               0x0800426c   Section        2  os_cfg_app.o(.constdata)
    .constdata                               0x08004270   Section        4  os_cfg_app.o(.constdata)
    .constdata                               0x08004274   Section        4  os_cfg_app.o(.constdata)
    .constdata                               0x08004278   Section        4  os_cfg_app.o(.constdata)
    .constdata                               0x0800427c   Section        4  os_cfg_app.o(.constdata)
    .constdata                               0x08004280   Section        4  os_cfg_app.o(.constdata)
    .constdata                               0x08004284   Section        2  os_cfg_app.o(.constdata)
    .constdata                               0x08004288   Section        4  os_cfg_app.o(.constdata)
    .constdata                               0x0800428c   Section        1  os_cfg_app.o(.constdata)
    .constdata                               0x08004290   Section        4  os_cfg_app.o(.constdata)
    .constdata                               0x08004294   Section        4  os_cfg_app.o(.constdata)
    .constdata                               0x08004298   Section        4  os_cfg_app.o(.constdata)
    .constdata                               0x0800429c   Section        4  os_cfg_app.o(.constdata)
    .constdata                               0x080042a0   Section        4  os_cfg_app.o(.constdata)
    .constdata                               0x080042a4   Section        4  os_cfg_app.o(.constdata)
    .constdata                               0x080042a8   Section        1  os_cfg_app.o(.constdata)
    .constdata                               0x080042ac   Section        4  os_cfg_app.o(.constdata)
    .constdata                               0x080042b0   Section        4  os_cfg_app.o(.constdata)
    .constdata                               0x080042b4   Section        4  os_cfg_app.o(.constdata)
    .constdata                               0x080042b8   Section        2  os_cfg_app.o(.constdata)
    .constdata                               0x080042ba   Section        1  os_cfg_app.o(.constdata)
    .constdata                               0x080042bc   Section        4  os_cfg_app.o(.constdata)
    .constdata                               0x080042c0   Section        4  os_cfg_app.o(.constdata)
    .constdata                               0x080042c4   Section        4  os_cfg_app.o(.constdata)
    .constdata                               0x080042c8   Section        4  os_cfg_app.o(.constdata)
    .constdata                               0x080042cc   Section        2  os_cfg_app.o(.constdata)
    .data                                    0x20000000   Section       12  stm32f1xx_hal.o(.data)
    .data                                    0x2000000c   Section        4  system_stm32f1xx.o(.data)
    .data                                    0x20000010   Section       28  cpu_core.o(.data)
    .data                                    0x2000002c   Section        4  lib_mem.o(.data)
    .data                                    0x20000030   Section        4  os_cpu_c.o(.data)
    .data                                    0x20000034   Section        4  os_prio.o(.data)
    .data                                    0x20000038   Section        4  os_var.o(.data)
    .data                                    0x2000003c   Section        4  os_var.o(.data)
    .data                                    0x20000040   Section        4  os_var.o(.data)
    .data                                    0x20000044   Section        4  os_var.o(.data)
    .data                                    0x20000048   Section        4  os_var.o(.data)
    .data                                    0x2000004c   Section        4  os_var.o(.data)
    .data                                    0x20000050   Section        4  os_var.o(.data)
    .data                                    0x20000054   Section        4  os_var.o(.data)
    .data                                    0x20000058   Section        1  os_var.o(.data)
    .data                                    0x2000005c   Section        4  os_var.o(.data)
    .data                                    0x20000060   Section        1  os_var.o(.data)
    .data                                    0x20000064   Section        4  os_var.o(.data)
    .data                                    0x20000068   Section        4  os_var.o(.data)
    .data                                    0x2000006c   Section        2  os_var.o(.data)
    .data                                    0x2000006e   Section        2  os_var.o(.data)
    .data                                    0x20000070   Section        2  os_var.o(.data)
    .data                                    0x20000074   Section        4  os_var.o(.data)
    .data                                    0x20000078   Section        4  os_var.o(.data)
    .data                                    0x2000007c   Section        2  os_var.o(.data)
    .data                                    0x20000080   Section        4  os_var.o(.data)
    .data                                    0x20000084   Section        2  os_var.o(.data)
    .data                                    0x20000088   Section        4  os_var.o(.data)
    .data                                    0x2000008c   Section        2  os_var.o(.data)
    .data                                    0x2000008e   Section        1  os_var.o(.data)
    .data                                    0x2000008f   Section        1  os_var.o(.data)
    .data                                    0x20000090   Section        1  os_var.o(.data)
    .data                                    0x20000094   Section        4  os_var.o(.data)
    .data                                    0x20000098   Section        2  os_var.o(.data)
    .data                                    0x2000009c   Section        4  os_var.o(.data)
    .data                                    0x200000a0   Section        4  os_var.o(.data)
    .data                                    0x200000a4   Section        4  os_var.o(.data)
    .data                                    0x200000a8   Section        1  os_var.o(.data)
    .data                                    0x200000ac   Section        4  os_var.o(.data)
    .data                                    0x200000b0   Section        1  os_var.o(.data)
    .data                                    0x200000b4   Section        4  os_var.o(.data)
    .data                                    0x200000b8   Section        2  os_var.o(.data)
    .data                                    0x200000ba   Section        1  os_var.o(.data)
    .data                                    0x200000bc   Section        2  os_var.o(.data)
    .data                                    0x200000be   Section        2  os_var.o(.data)
    .data                                    0x200000c0   Section        4  os_var.o(.data)
    .data                                    0x200000c4   Section        4  os_var.o(.data)
    .data                                    0x200000c8   Section        4  os_var.o(.data)
    .data                                    0x200000cc   Section        1  os_var.o(.data)
    .data                                    0x200000d0   Section        4  os_var.o(.data)
    .data                                    0x200000d4   Section        4  os_var.o(.data)
    .data                                    0x200000d8   Section        4  os_var.o(.data)
    .data                                    0x200000dc   Section        2  os_var.o(.data)
    .data                                    0x200000de   Section        1  os_var.o(.data)
    .data                                    0x200000e0   Section        4  os_var.o(.data)
    .data                                    0x200000e4   Section        4  os_var.o(.data)
    .data                                    0x200000e8   Section        4  os_var.o(.data)
    .data                                    0x200000ec   Section        4  os_var.o(.data)
    .data                                    0x200000f0   Section        4  os_var.o(.data)
    .data                                    0x200000f4   Section        4  os_var.o(.data)
    .data                                    0x200000f8   Section        4  os_var.o(.data)
    .data                                    0x200000fc   Section        4  os_var.o(.data)
    .data                                    0x20000100   Section        4  os_var.o(.data)
    .data                                    0x20000104   Section        4  stdout.o(.data)
    .bss                                     0x20000108   Section     1368  main.o(.bss)
    .bss                                     0x20000660   Section       68  usart.o(.bss)
    .bss                                     0x200006a4   Section       16  cpu_core.o(.bss)
    .bss                                     0x200006b4   Section     5192  lib_mem.o(.bss)
    .bss                                     0x20001afc   Section      512  os_cfg_app.o(.bss)
    .bss                                     0x20001cfc   Section      320  os_cfg_app.o(.bss)
    .bss                                     0x20001e3c   Section      512  os_cfg_app.o(.bss)
    .bss                                     0x2000203c   Section      512  os_cfg_app.o(.bss)
    .bss                                     0x2000223c   Section     1600  os_cfg_app.o(.bss)
    .bss                                     0x2000287c   Section      512  os_cfg_app.o(.bss)
    .bss                                     0x20002a7c   Section      512  os_cfg_app.o(.bss)
    .bss                                     0x20002c7c   Section      136  os_cfg_app.o(.bss)
    .bss                                     0x20002d04   Section      512  os_cfg_app.o(.bss)
    .bss                                     0x20002f04   Section      136  os_cfg_app.o(.bss)
    .bss                                     0x20002f8c   Section      200  os_var.o(.bss)
    .bss                                     0x20003054   Section      200  os_var.o(.bss)
    .bss                                     0x2000311c   Section       12  os_var.o(.bss)
    .bss                                     0x20003128   Section      384  os_var.o(.bss)
    .bss                                     0x200032a8   Section      200  os_var.o(.bss)
    .bss                                     0x20003370   Section      200  os_var.o(.bss)
    .bss                                     0x20003438   Section      200  os_var.o(.bss)
    STACK                                    0x20003500   Section     1024  startup_stm32f103xb.o(STACK)

    Global Symbols

    Symbol Name                              Value     Ov Type        Size  Object(Section)

    BuildAttributes$$THM_ISAv4$P$D$K$B$S$PE$A:L22UL41UL21$X:L11$S22US41US21$IEEE1$IW$USESV6$~STKCKD$USESV7$~SHL$OSPACE$ROPI$EBA8$MICROLIB$REQ8$PRES8$EABIv2 0x00000000   Number         0  anon$$obj.o ABSOLUTE
    __ARM_use_no_argv                        0x00000000   Number         0  main.o ABSOLUTE
    __cpp_initialize__aeabi_                  - Undefined Weak Reference
    __cxa_finalize                            - Undefined Weak Reference
    __decompress                              - Undefined Weak Reference
    _clock_init                               - Undefined Weak Reference
    _microlib_exit                            - Undefined Weak Reference
    __Vectors_Size                           0x000000ec   Number         0  startup_stm32f103xb.o ABSOLUTE
    __Vectors                                0x08000000   Data           4  startup_stm32f103xb.o(RESET)
    __Vectors_End                            0x080000ec   Data           0  startup_stm32f103xb.o(RESET)
    __main                                   0x080000ed   Thumb Code     0  entry.o(.ARM.Collect$$$$00000000)
    _main_stk                                0x080000ed   Thumb Code     0  entry2.o(.ARM.Collect$$$$00000001)
    _main_scatterload                        0x080000f1   Thumb Code     0  entry5.o(.ARM.Collect$$$$00000004)
    __main_after_scatterload                 0x080000f5   Thumb Code     0  entry5.o(.ARM.Collect$$$$00000004)
    _main_clock                              0x080000f5   Thumb Code     0  entry7b.o(.ARM.Collect$$$$00000008)
    _main_cpp_init                           0x080000f5   Thumb Code     0  entry8b.o(.ARM.Collect$$$$0000000A)
    _main_init                               0x080000f5   Thumb Code     0  entry9a.o(.ARM.Collect$$$$0000000B)
    __rt_final_cpp                           0x080000fd   Thumb Code     0  entry10a.o(.ARM.Collect$$$$0000000D)
    __rt_final_exit                          0x080000fd   Thumb Code     0  entry11a.o(.ARM.Collect$$$$0000000F)
    Reset_Handler                            0x08000101   Thumb Code     8  startup_stm32f103xb.o(.text)
    ADC1_2_IRQHandler                        0x0800011b   Thumb Code     0  startup_stm32f103xb.o(.text)
    CAN1_RX1_IRQHandler                      0x0800011b   Thumb Code     0  startup_stm32f103xb.o(.text)
    CAN1_SCE_IRQHandler                      0x0800011b   Thumb Code     0  startup_stm32f103xb.o(.text)
    DMA1_Channel1_IRQHandler                 0x0800011b   Thumb Code     0  startup_stm32f103xb.o(.text)
    DMA1_Channel2_IRQHandler                 0x0800011b   Thumb Code     0  startup_stm32f103xb.o(.text)
    DMA1_Channel3_IRQHandler                 0x0800011b   Thumb Code     0  startup_stm32f103xb.o(.text)
    DMA1_Channel4_IRQHandler                 0x0800011b   Thumb Code     0  startup_stm32f103xb.o(.text)
    DMA1_Channel5_IRQHandler                 0x0800011b   Thumb Code     0  startup_stm32f103xb.o(.text)
    DMA1_Channel6_IRQHandler                 0x0800011b   Thumb Code     0  startup_stm32f103xb.o(.text)
    DMA1_Channel7_IRQHandler                 0x0800011b   Thumb Code     0  startup_stm32f103xb.o(.text)
    EXTI0_IRQHandler                         0x0800011b   Thumb Code     0  startup_stm32f103xb.o(.text)
    EXTI15_10_IRQHandler                     0x0800011b   Thumb Code     0  startup_stm32f103xb.o(.text)
    EXTI1_IRQHandler                         0x0800011b   Thumb Code     0  startup_stm32f103xb.o(.text)
    EXTI2_IRQHandler                         0x0800011b   Thumb Code     0  startup_stm32f103xb.o(.text)
    EXTI3_IRQHandler                         0x0800011b   Thumb Code     0  startup_stm32f103xb.o(.text)
    EXTI4_IRQHandler                         0x0800011b   Thumb Code     0  startup_stm32f103xb.o(.text)
    EXTI9_5_IRQHandler                       0x0800011b   Thumb Code     0  startup_stm32f103xb.o(.text)
    FLASH_IRQHandler                         0x0800011b   Thumb Code     0  startup_stm32f103xb.o(.text)
    I2C1_ER_IRQHandler                       0x0800011b   Thumb Code     0  startup_stm32f103xb.o(.text)
    I2C1_EV_IRQHandler                       0x0800011b   Thumb Code     0  startup_stm32f103xb.o(.text)
    I2C2_ER_IRQHandler                       0x0800011b   Thumb Code     0  startup_stm32f103xb.o(.text)
    I2C2_EV_IRQHandler                       0x0800011b   Thumb Code     0  startup_stm32f103xb.o(.text)
    PVD_IRQHandler                           0x0800011b   Thumb Code     0  startup_stm32f103xb.o(.text)
    RCC_IRQHandler                           0x0800011b   Thumb Code     0  startup_stm32f103xb.o(.text)
    RTC_Alarm_IRQHandler                     0x0800011b   Thumb Code     0  startup_stm32f103xb.o(.text)
    RTC_IRQHandler                           0x0800011b   Thumb Code     0  startup_stm32f103xb.o(.text)
    SPI1_IRQHandler                          0x0800011b   Thumb Code     0  startup_stm32f103xb.o(.text)
    SPI2_IRQHandler                          0x0800011b   Thumb Code     0  startup_stm32f103xb.o(.text)
    TAMPER_IRQHandler                        0x0800011b   Thumb Code     0  startup_stm32f103xb.o(.text)
    TIM1_BRK_IRQHandler                      0x0800011b   Thumb Code     0  startup_stm32f103xb.o(.text)
    TIM1_CC_IRQHandler                       0x0800011b   Thumb Code     0  startup_stm32f103xb.o(.text)
    TIM1_TRG_COM_IRQHandler                  0x0800011b   Thumb Code     0  startup_stm32f103xb.o(.text)
    TIM1_UP_IRQHandler                       0x0800011b   Thumb Code     0  startup_stm32f103xb.o(.text)
    TIM2_IRQHandler                          0x0800011b   Thumb Code     0  startup_stm32f103xb.o(.text)
    TIM3_IRQHandler                          0x0800011b   Thumb Code     0  startup_stm32f103xb.o(.text)
    TIM4_IRQHandler                          0x0800011b   Thumb Code     0  startup_stm32f103xb.o(.text)
    USART1_IRQHandler                        0x0800011b   Thumb Code     0  startup_stm32f103xb.o(.text)
    USART2_IRQHandler                        0x0800011b   Thumb Code     0  startup_stm32f103xb.o(.text)
    USART3_IRQHandler                        0x0800011b   Thumb Code     0  startup_stm32f103xb.o(.text)
    USBWakeUp_IRQHandler                     0x0800011b   Thumb Code     0  startup_stm32f103xb.o(.text)
    USB_HP_CAN1_TX_IRQHandler                0x0800011b   Thumb Code     0  startup_stm32f103xb.o(.text)
    USB_LP_CAN1_RX0_IRQHandler               0x0800011b   Thumb Code     0  startup_stm32f103xb.o(.text)
    WWDG_IRQHandler                          0x0800011b   Thumb Code     0  startup_stm32f103xb.o(.text)
    CPU_IntDis                               0x08000125   Thumb Code     0  cpu_a.o(.text)
    CPU_IntEn                                0x08000129   Thumb Code     0  cpu_a.o(.text)
    CPU_SR_Save                              0x0800012d   Thumb Code     0  cpu_a.o(.text)
    CPU_SR_Restore                           0x08000135   Thumb Code     0  cpu_a.o(.text)
    CPU_WaitForInt                           0x0800013b   Thumb Code     0  cpu_a.o(.text)
    CPU_WaitForExcept                        0x0800013f   Thumb Code     0  cpu_a.o(.text)
    CPU_CntLeadZeros                         0x08000143   Thumb Code     0  cpu_a.o(.text)
    CPU_CntTrailZeros                        0x08000149   Thumb Code     0  cpu_a.o(.text)
    CPU_RevBits                              0x08000153   Thumb Code     0  cpu_a.o(.text)
    __aeabi_memset                           0x08000159   Thumb Code    14  memseta.o(.text)
    __aeabi_memset4                          0x08000159   Thumb Code     0  memseta.o(.text)
    __aeabi_memset8                          0x08000159   Thumb Code     0  memseta.o(.text)
    __aeabi_memclr                           0x08000167   Thumb Code     4  memseta.o(.text)
    __aeabi_memclr4                          0x08000167   Thumb Code     0  memseta.o(.text)
    __aeabi_memclr8                          0x08000167   Thumb Code     0  memseta.o(.text)
    _memset$wrapper                          0x0800016b   Thumb Code    18  memseta.o(.text)
    __scatterload                            0x0800017d   Thumb Code    28  init.o(.text)
    __scatterload_rt2                        0x0800017d   Thumb Code     0  init.o(.text)
    OSStartHighRdy                           0x080001a1   Thumb Code     0  os_cpu_a.o(CODE)
    OS_CPU_PendSVHandler                     0x080001c3   Thumb Code     0  os_cpu_a.o(CODE)
    BSP_Init                                 0x08000225   Thumb Code    14  bsp.o(i.BSP_Init)
    BSP_Tick_Init                            0x08000235   Thumb Code    22  bsp.o(i.BSP_Tick_Init)
    BusFault_Handler                         0x08000251   Thumb Code     2  stm32f1xx_it.o(i.BusFault_Handler)
    CPU_Init                                 0x08000255   Thumb Code    24  cpu_core.o(i.CPU_Init)
    CPU_IntDisMeasMaxCurGet                  0x080002d1   Thumb Code    24  cpu_core.o(i.CPU_IntDisMeasMaxCurGet)
    CPU_IntDisMeasMaxCurReset                0x080002ed   Thumb Code    26  cpu_core.o(i.CPU_IntDisMeasMaxCurReset)
    CPU_IntDisMeasMaxGet                     0x0800030d   Thumb Code    24  cpu_core.o(i.CPU_IntDisMeasMaxGet)
    CPU_IntDisMeasStart                      0x08000329   Thumb Code    28  cpu_core.o(i.CPU_IntDisMeasStart)
    CPU_IntDisMeasStop                       0x08000349   Thumb Code    44  cpu_core.o(i.CPU_IntDisMeasStop)
    CPU_NameClr                              0x08000379   Thumb Code    34  cpu_core.o(i.CPU_NameClr)
    CPU_TS_TmrFreqSet                        0x080003a1   Thumb Code     6  cpu_core.o(i.CPU_TS_TmrFreqSet)
    CPU_TS_TmrInit                           0x080003ad   Thumb Code    38  bsp.o(i.CPU_TS_TmrInit)
    CPU_TS_TmrRd                             0x080003dd   Thumb Code     6  bsp.o(i.CPU_TS_TmrRd)
    DebugMon_Handler                         0x080003e9   Thumb Code     2  stm32f1xx_it.o(i.DebugMon_Handler)
    Error_Handler                            0x080003eb   Thumb Code     2  main.o(i.Error_Handler)
    HAL_GPIO_Init                            0x080003ed   Thumb Code   446  stm32f1xx_hal_gpio.o(i.HAL_GPIO_Init)
    HAL_GPIO_WritePin                        0x080005cd   Thumb Code    10  stm32f1xx_hal_gpio.o(i.HAL_GPIO_WritePin)
    HAL_GetTick                              0x080005d9   Thumb Code     6  stm32f1xx_hal.o(i.HAL_GetTick)
    HAL_Init                                 0x080005e5   Thumb Code    32  stm32f1xx_hal.o(i.HAL_Init)
    HAL_InitTick                             0x08000609   Thumb Code    54  stm32f1xx_hal.o(i.HAL_InitTick)
    HAL_MspInit                              0x08000649   Thumb Code    52  stm32f1xx_hal_msp.o(i.HAL_MspInit)
    HAL_NVIC_SetPriority                     0x08000685   Thumb Code    60  stm32f1xx_hal_cortex.o(i.HAL_NVIC_SetPriority)
    HAL_NVIC_SetPriorityGrouping             0x080006c5   Thumb Code    26  stm32f1xx_hal_cortex.o(i.HAL_NVIC_SetPriorityGrouping)
    HAL_RCC_ClockConfig                      0x080006e9   Thumb Code   280  stm32f1xx_hal_rcc.o(i.HAL_RCC_ClockConfig)
    HAL_RCC_GetHCLKFreq                      0x08000815   Thumb Code     6  stm32f1xx_hal_rcc.o(i.HAL_RCC_GetHCLKFreq)
    HAL_RCC_GetPCLK1Freq                     0x08000821   Thumb Code    20  stm32f1xx_hal_rcc.o(i.HAL_RCC_GetPCLK1Freq)
    HAL_RCC_GetPCLK2Freq                     0x08000841   Thumb Code    20  stm32f1xx_hal_rcc.o(i.HAL_RCC_GetPCLK2Freq)
    HAL_RCC_GetSysClockFreq                  0x08000861   Thumb Code    74  stm32f1xx_hal_rcc.o(i.HAL_RCC_GetSysClockFreq)
    HAL_RCC_OscConfig                        0x080008cd   Thumb Code   778  stm32f1xx_hal_rcc.o(i.HAL_RCC_OscConfig)
    HAL_SYSTICK_Config                       0x08000bed   Thumb Code    40  stm32f1xx_hal_cortex.o(i.HAL_SYSTICK_Config)
    HAL_UART_Init                            0x08000c15   Thumb Code    98  stm32f1xx_hal_uart.o(i.HAL_UART_Init)
    HAL_UART_MspInit                         0x08000c79   Thumb Code   100  usart.o(i.HAL_UART_MspInit)
    HAL_UART_Transmit                        0x08000ce9   Thumb Code   178  stm32f1xx_hal_uart.o(i.HAL_UART_Transmit)
    HardFault_Handler                        0x08000d9b   Thumb Code     2  stm32f1xx_it.o(i.HardFault_Handler)
    MX_GPIO_Init                             0x08000d9d   Thumb Code   104  gpio.o(i.MX_GPIO_Init)
    MX_USART1_UART_Init                      0x08000e0d   Thumb Code    48  usart.o(i.MX_USART1_UART_Init)
    MemManage_Handler                        0x08000e45   Thumb Code     2  stm32f1xx_it.o(i.MemManage_Handler)
    Mem_Clr                                  0x08000e47   Thumb Code     8  lib_mem.o(i.Mem_Clr)
    Mem_Init                                 0x08000e51   Thumb Code    54  lib_mem.o(i.Mem_Init)
    Mem_Set                                  0x08000e95   Thumb Code    76  lib_mem.o(i.Mem_Set)
    NMI_Handler                              0x08000ee1   Thumb Code     2  stm32f1xx_it.o(i.NMI_Handler)
    OSCfg_Init                               0x08000ee3   Thumb Code     2  os_cfg_app.o(i.OSCfg_Init)
    OSIdleTaskHook                           0x08000ee5   Thumb Code    12  os_cpu_c.o(i.OSIdleTaskHook)
    OSInit                                   0x08000ef5   Thumb Code   290  os_core.o(i.OSInit)
    OSInitHook                               0x08001079   Thumb Code    38  os_cpu_c.o(i.OSInitHook)
    OSIntExit                                0x080010ad   Thumb Code   108  os_core.o(i.OSIntExit)
    OSSched                                  0x0800113d   Thumb Code    90  os_core.o(i.OSSched)
    OSSchedLock                              0x080011b9   Thumb Code    80  os_core.o(i.OSSchedLock)
    OSSchedRoundRobinCfg                     0x08001215   Thumb Code    74  os_core.o(i.OSSchedRoundRobinCfg)
    OSSchedUnlock                            0x0800126d   Thumb Code   104  os_core.o(i.OSSchedUnlock)
    OSStart                                  0x080012e1   Thumb Code    62  os_core.o(i.OSStart)
    OSStatReset                              0x08001339   Thumb Code   202  os_stat.o(i.OSStatReset)
    OSStatTaskCPUUsageInit                   0x08001431   Thumb Code   150  os_stat.o(i.OSStatTaskCPUUsageInit)
    OSStatTaskHook                           0x080014e5   Thumb Code    12  os_cpu_c.o(i.OSStatTaskHook)
    OSTaskCreate                             0x080014f5   Thumb Code   466  os_task.o(i.OSTaskCreate)
    OSTaskCreateHook                         0x080016ed   Thumb Code    12  os_cpu_c.o(i.OSTaskCreateHook)
    OSTaskDel                                0x080016fd   Thumb Code   336  os_task.o(i.OSTaskDel)
    OSTaskDelHook                            0x08001869   Thumb Code    12  os_cpu_c.o(i.OSTaskDelHook)
    OSTaskResume                             0x08001879   Thumb Code    98  os_task.o(i.OSTaskResume)
    OSTaskReturnHook                         0x080018e9   Thumb Code    12  os_cpu_c.o(i.OSTaskReturnHook)
    OSTaskSemPend                            0x080018f9   Thumb Code   354  os_task.o(i.OSTaskSemPend)
    OSTaskStkChk                             0x08001a69   Thumb Code   162  os_task.o(i.OSTaskStkChk)
    OSTaskStkInit                            0x08001b15   Thumb Code   108  os_cpu_c.o(i.OSTaskStkInit)
    OSTaskSuspend                            0x08001b85   Thumb Code    66  os_task.o(i.OSTaskSuspend)
    OSTaskSwHook                             0x08001bd9   Thumb Code    86  os_cpu_c.o(i.OSTaskSwHook)
    OSTimeDly                                0x08001c41   Thumb Code   224  os_time.o(i.OSTimeDly)
    OSTimeDlyHMSM                            0x08001d2d   Thumb Code   374  os_time.o(i.OSTimeDlyHMSM)
    OSTimeTick                               0x08001eb5   Thumb Code    52  os_time.o(i.OSTimeTick)
    OSTimeTickHook                           0x08001ef5   Thumb Code    12  os_cpu_c.o(i.OSTimeTickHook)
    OS_CPU_SysTickHandler                    0x08001f05   Thumb Code    42  os_cpu_c.o(i.OS_CPU_SysTickHandler)
    OS_CPU_SysTickInit                       0x08001f35   Thumb Code    36  os_cpu_c.o(i.OS_CPU_SysTickInit)
    OS_Dbg_Init                              0x08001f5d   Thumb Code     2  os_dbg.o(i.OS_Dbg_Init)
    OS_FlagInit                              0x08001f61   Thumb Code    14  os_flag.o(i.OS_FlagInit)
    OS_FlagPost                              0x08001f79   Thumb Code   382  os_flag.o(i.OS_FlagPost)
    OS_FlagTaskRdy                           0x08002101   Thumb Code    68  os_flag.o(i.OS_FlagTaskRdy)
    OS_IdleTask                              0x08002145   Thumb Code    42  os_core.o(i.OS_IdleTask)
    OS_IdleTaskInit                          0x08002179   Thumb Code    60  os_core.o(i.OS_IdleTaskInit)
    OS_IntQPost                              0x080021e1   Thumb Code   148  os_int.o(i.OS_IntQPost)
    OS_IntQRePost                            0x08002299   Thumb Code   224  os_int.o(i.OS_IntQRePost)
    OS_IntQTask                              0x080023b5   Thumb Code   120  os_int.o(i.OS_IntQTask)
    OS_IntQTaskInit                          0x0800243d   Thumb Code   192  os_int.o(i.OS_IntQTaskInit)
    OS_MemInit                               0x08002555   Thumb Code    14  os_mem.o(i.OS_MemInit)
    OS_MsgPoolInit                           0x0800256d   Thumb Code    92  os_msg.o(i.OS_MsgPoolInit)
    OS_MsgQFreeAll                           0x080025d5   Thumb Code    48  os_msg.o(i.OS_MsgQFreeAll)
    OS_MsgQInit                              0x08002609   Thumb Code    14  os_msg.o(i.OS_MsgQInit)
    OS_MsgQPut                               0x08002619   Thumb Code   132  os_msg.o(i.OS_MsgQPut)
    OS_MutexInit                             0x080026a1   Thumb Code    14  os_mutex.o(i.OS_MutexInit)
    OS_Pend                                  0x080026b9   Thumb Code    74  os_core.o(i.OS_Pend)
    OS_PendDataInit                          0x08002709   Thumb Code    48  os_core.o(i.OS_PendDataInit)
    OS_PendDbgNameAdd                        0x08002739   Thumb Code    46  os_core.o(i.OS_PendDbgNameAdd)
    OS_PendDbgNameRemove                     0x08002781   Thumb Code    22  os_core.o(i.OS_PendDbgNameRemove)
    OS_PendListInsertPrio                    0x0800279d   Thumb Code    90  os_core.o(i.OS_PendListInsertPrio)
    OS_PendListRemove                        0x080027f7   Thumb Code    38  os_core.o(i.OS_PendListRemove)
    OS_PendListRemove1                       0x0800281d   Thumb Code    54  os_core.o(i.OS_PendListRemove1)
    OS_Post                                  0x08002853   Thumb Code   152  os_core.o(i.OS_Post)
    OS_Post1                                 0x080028eb   Thumb Code    38  os_core.o(i.OS_Post1)
    OS_PrioGetHighest                        0x08002911   Thumb Code    32  os_prio.o(i.OS_PrioGetHighest)
    OS_PrioInit                              0x08002935   Thumb Code     8  os_prio.o(i.OS_PrioInit)
    OS_PrioInsert                            0x08002941   Thumb Code    28  os_prio.o(i.OS_PrioInsert)
    OS_PrioRemove                            0x08002961   Thumb Code    28  os_prio.o(i.OS_PrioRemove)
    OS_QInit                                 0x08002981   Thumb Code    14  os_q.o(i.OS_QInit)
    OS_QPost                                 0x08002999   Thumb Code   252  os_q.o(i.OS_QPost)
    OS_RdyListInit                           0x08002a9d   Thumb Code    32  os_core.o(i.OS_RdyListInit)
    OS_RdyListInsert                         0x08002ac1   Thumb Code    42  os_core.o(i.OS_RdyListInsert)
    OS_RdyListInsertHead                     0x08002af1   Thumb Code    52  os_core.o(i.OS_RdyListInsertHead)
    OS_RdyListInsertTail                     0x08002b29   Thumb Code    48  os_core.o(i.OS_RdyListInsertTail)
    OS_RdyListMoveHeadToTail                 0x08002b5d   Thumb Code    52  os_core.o(i.OS_RdyListMoveHeadToTail)
    OS_RdyListRemove                         0x08002b91   Thumb Code    78  os_core.o(i.OS_RdyListRemove)
    OS_Sched0                                0x08002be5   Thumb Code    50  os_core.o(i.OS_Sched0)
    OS_SchedLockTimeMeasStart                0x08002c2d   Thumb Code    20  os_core.o(i.OS_SchedLockTimeMeasStart)
    OS_SchedLockTimeMeasStop                 0x08002c49   Thumb Code    42  os_core.o(i.OS_SchedLockTimeMeasStop)
    OS_SchedRoundRobin                       0x08002c85   Thumb Code    88  os_core.o(i.OS_SchedRoundRobin)
    OS_SemInit                               0x08002ced   Thumb Code    14  os_sem.o(i.OS_SemInit)
    OS_SemPost                               0x08002d05   Thumb Code   224  os_sem.o(i.OS_SemPost)
    OS_StatTask                              0x08002de9   Thumb Code   602  os_stat.o(i.OS_StatTask)
    OS_StatTaskInit                          0x0800308d   Thumb Code   118  os_stat.o(i.OS_StatTaskInit)
    OS_TaskBlock                             0x08003149   Thumb Code    42  os_core.o(i.OS_TaskBlock)
    OS_TaskDbgListAdd                        0x08003175   Thumb Code    30  os_task.o(i.OS_TaskDbgListAdd)
    OS_TaskDbgListRemove                     0x08003199   Thumb Code    50  os_task.o(i.OS_TaskDbgListRemove)
    OS_TaskInit                              0x080031d1   Thumb Code    18  os_task.o(i.OS_TaskInit)
    OS_TaskInitTCB                           0x080031f1   Thumb Code   188  os_task.o(i.OS_TaskInitTCB)
    OS_TaskQPost                             0x080032b9   Thumb Code   310  os_task.o(i.OS_TaskQPost)
    OS_TaskRdy                               0x080033fd   Thumb Code    28  os_core.o(i.OS_TaskRdy)
    OS_TaskResume                            0x08003419   Thumb Code   252  os_task.o(i.OS_TaskResume)
    OS_TaskReturn                            0x08003519   Thumb Code    20  os_task.o(i.OS_TaskReturn)
    OS_TaskSemPost                           0x08003531   Thumb Code   380  os_task.o(i.OS_TaskSemPost)
    OS_TaskSuspend                           0x080036b9   Thumb Code   224  os_task.o(i.OS_TaskSuspend)
    OS_TickListInit                          0x080037a1   Thumb Code    34  os_tick.o(i.OS_TickListInit)
    OS_TickListInsert                        0x080037cd   Thumb Code   202  os_tick.o(i.OS_TickListInsert)
    OS_TickListRemove                        0x080038a5   Thumb Code    54  os_tick.o(i.OS_TickListRemove)
    OS_TickListResetPeak                     0x080038dd   Thumb Code    30  os_tick.o(i.OS_TickListResetPeak)
    OS_TickListUpdate                        0x08003905   Thumb Code   354  os_tick.o(i.OS_TickListUpdate)
    OS_TickTask                              0x08003a81   Thumb Code    36  os_tick.o(i.OS_TickTask)
    OS_TickTaskInit                          0x08003aa9   Thumb Code   112  os_tick.o(i.OS_TickTaskInit)
    OS_TmrInit                               0x08003b51   Thumb Code   172  os_tmr.o(i.OS_TmrInit)
    OS_TmrLink                               0x08003c55   Thumb Code   140  os_tmr.o(i.OS_TmrLink)
    OS_TmrResetPeak                          0x08003ced   Thumb Code    30  os_tmr.o(i.OS_TmrResetPeak)
    OS_TmrTask                               0x08003d15   Thumb Code   146  os_tmr.o(i.OS_TmrTask)
    OS_TmrUnlink                             0x08003db9   Thumb Code    68  os_tmr.o(i.OS_TmrUnlink)
    SVC_Handler                              0x08003e05   Thumb Code     2  stm32f1xx_it.o(i.SVC_Handler)
    SystemClock_Config                       0x08003e07   Thumb Code    78  main.o(i.SystemClock_Config)
    SystemInit                               0x08003e55   Thumb Code     2  system_stm32f1xx.o(i.SystemInit)
    UsageFault_Handler                       0x08003f75   Thumb Code     2  stm32f1xx_it.o(i.UsageFault_Handler)
    __0printf$bare                           0x08003f79   Thumb Code     8  printfb.o(i.__0printf$bare)
    __1printf$bare                           0x08003f79   Thumb Code     0  printfb.o(i.__0printf$bare)
    __2printf                                0x08003f79   Thumb Code     0  printfb.o(i.__0printf$bare)
    __scatterload_copy                       0x08003fa9   Thumb Code    14  handlers.o(i.__scatterload_copy)
    __scatterload_null                       0x08003fb7   Thumb Code     2  handlers.o(i.__scatterload_null)
    __scatterload_zeroinit                   0x08003fb9   Thumb Code    14  handlers.o(i.__scatterload_zeroinit)
    fputc                                    0x08003fe9   Thumb Code    20  usart.o(i.fputc)
    main                                     0x08004061   Thumb Code    78  main.o(i.main)
    start_task                               0x08004129   Thumb Code   230  main.o(i.start_task)
    AHBPrescTable                            0x08004244   Data          16  system_stm32f1xx.o(.constdata)
    APBPrescTable                            0x08004254   Data           8  system_stm32f1xx.o(.constdata)
    OSCfg_IdleTaskStkBasePtr                 0x0800425c   Data           4  os_cfg_app.o(.constdata)
    OSCfg_IdleTaskStkLimit                   0x08004260   Data           4  os_cfg_app.o(.constdata)
    OSCfg_IdleTaskStkSize                    0x08004264   Data           4  os_cfg_app.o(.constdata)
    OSCfg_IntQBasePtr                        0x08004268   Data           4  os_cfg_app.o(.constdata)
    OSCfg_IntQSize                           0x0800426c   Data           2  os_cfg_app.o(.constdata)
    OSCfg_IntQTaskStkBasePtr                 0x08004270   Data           4  os_cfg_app.o(.constdata)
    OSCfg_IntQTaskStkLimit                   0x08004274   Data           4  os_cfg_app.o(.constdata)
    OSCfg_IntQTaskStkSize                    0x08004278   Data           4  os_cfg_app.o(.constdata)
    OSCfg_ISRStkBasePtr                      0x0800427c   Data           4  os_cfg_app.o(.constdata)
    OSCfg_ISRStkSize                         0x08004280   Data           4  os_cfg_app.o(.constdata)
    OSCfg_MsgPoolSize                        0x08004284   Data           2  os_cfg_app.o(.constdata)
    OSCfg_MsgPoolBasePtr                     0x08004288   Data           4  os_cfg_app.o(.constdata)
    OSCfg_StatTaskPrio                       0x0800428c   Data           1  os_cfg_app.o(.constdata)
    OSCfg_StatTaskRate_Hz                    0x08004290   Data           4  os_cfg_app.o(.constdata)
    OSCfg_StatTaskStkBasePtr                 0x08004294   Data           4  os_cfg_app.o(.constdata)
    OSCfg_StatTaskStkLimit                   0x08004298   Data           4  os_cfg_app.o(.constdata)
    OSCfg_StatTaskStkSize                    0x0800429c   Data           4  os_cfg_app.o(.constdata)
    OSCfg_StkSizeMin                         0x080042a0   Data           4  os_cfg_app.o(.constdata)
    OSCfg_TickRate_Hz                        0x080042a4   Data           4  os_cfg_app.o(.constdata)
    OSCfg_TickTaskPrio                       0x080042a8   Data           1  os_cfg_app.o(.constdata)
    OSCfg_TickTaskStkBasePtr                 0x080042ac   Data           4  os_cfg_app.o(.constdata)
    OSCfg_TickTaskStkLimit                   0x080042b0   Data           4  os_cfg_app.o(.constdata)
    OSCfg_TickTaskStkSize                    0x080042b4   Data           4  os_cfg_app.o(.constdata)
    OSCfg_TickWheelSize                      0x080042b8   Data           2  os_cfg_app.o(.constdata)
    OSCfg_TmrTaskPrio                        0x080042ba   Data           1  os_cfg_app.o(.constdata)
    OSCfg_TmrTaskRate_Hz                     0x080042bc   Data           4  os_cfg_app.o(.constdata)
    OSCfg_TmrTaskStkBasePtr                  0x080042c0   Data           4  os_cfg_app.o(.constdata)
    OSCfg_TmrTaskStkLimit                    0x080042c4   Data           4  os_cfg_app.o(.constdata)
    OSCfg_TmrTaskStkSize                     0x080042c8   Data           4  os_cfg_app.o(.constdata)
    OSCfg_TmrWheelSize                       0x080042cc   Data           2  os_cfg_app.o(.constdata)
    Region$$Table$$Base                      0x080042d0   Number         0  anon$$obj.o(Region$$Table)
    Region$$Table$$Limit                     0x080042f0   Number         0  anon$$obj.o(Region$$Table)
    uwTickFreq                               0x20000000   Data           1  stm32f1xx_hal.o(.data)
    uwTickPrio                               0x20000004   Data           4  stm32f1xx_hal.o(.data)
    uwTick                                   0x20000008   Data           4  stm32f1xx_hal.o(.data)
    SystemCoreClock                          0x2000000c   Data           4  system_stm32f1xx.o(.data)
    CPU_IntDisMeasCtr                        0x20000010   Data           2  cpu_core.o(.data)
    CPU_IntDisNestCtr                        0x20000012   Data           2  cpu_core.o(.data)
    CPU_TS_TmrFreq_Hz                        0x20000014   Data           4  cpu_core.o(.data)
    CPU_IntDisMeasStart_cnts                 0x20000018   Data           4  cpu_core.o(.data)
    CPU_IntDisMeasStop_cnts                  0x2000001c   Data           4  cpu_core.o(.data)
    CPU_IntDisMeasOvrhd_cnts                 0x20000020   Data           4  cpu_core.o(.data)
    CPU_IntDisMeasMaxCur_cnts                0x20000024   Data           4  cpu_core.o(.data)
    CPU_IntDisMeasMax_cnts                   0x20000028   Data           4  cpu_core.o(.data)
    Mem_PoolTbl                              0x2000002c   Data           4  lib_mem.o(.data)
    OS_CPU_ExceptStkBase                     0x20000030   Data           4  os_cpu_c.o(.data)
    OSPrioTbl                                0x20000034   Data           4  os_prio.o(.data)
    OS_AppTaskCreateHookPtr                  0x20000038   Data           4  os_var.o(.data)
    OS_AppTaskDelHookPtr                     0x2000003c   Data           4  os_var.o(.data)
    OS_AppTaskReturnHookPtr                  0x20000040   Data           4  os_var.o(.data)
    OS_AppIdleTaskHookPtr                    0x20000044   Data           4  os_var.o(.data)
    OS_AppStatTaskHookPtr                    0x20000048   Data           4  os_var.o(.data)
    OS_AppTaskSwHookPtr                      0x2000004c   Data           4  os_var.o(.data)
    OS_AppTimeTickHookPtr                    0x20000050   Data           4  os_var.o(.data)
    OSIdleTaskCtr                            0x20000054   Data           4  os_var.o(.data)
    OSIntNestingCtr                          0x20000058   Data           1  os_var.o(.data)
    OSIntDisTimeMax                          0x2000005c   Data           4  os_var.o(.data)
    OSRunning                                0x20000060   Data           1  os_var.o(.data)
    OSIntQInPtr                              0x20000064   Data           4  os_var.o(.data)
    OSIntQOutPtr                             0x20000068   Data           4  os_var.o(.data)
    OSIntQNbrEntries                         0x2000006c   Data           2  os_var.o(.data)
    OSIntQNbrEntriesMax                      0x2000006e   Data           2  os_var.o(.data)
    OSIntQOvfCtr                             0x20000070   Data           2  os_var.o(.data)
    OSIntQTaskTimeMax                        0x20000074   Data           4  os_var.o(.data)
    OSFlagDbgListPtr                         0x20000078   Data           4  os_var.o(.data)
    OSFlagQty                                0x2000007c   Data           2  os_var.o(.data)
    OSMemDbgListPtr                          0x20000080   Data           4  os_var.o(.data)
    OSMemQty                                 0x20000084   Data           2  os_var.o(.data)
    OSMutexDbgListPtr                        0x20000088   Data           4  os_var.o(.data)
    OSMutexQty                               0x2000008c   Data           2  os_var.o(.data)
    OSPrioCur                                0x2000008e   Data           1  os_var.o(.data)
    OSPrioHighRdy                            0x2000008f   Data           1  os_var.o(.data)
    OSPrioSaved                              0x20000090   Data           1  os_var.o(.data)
    OSQDbgListPtr                            0x20000094   Data           4  os_var.o(.data)
    OSQQty                                   0x20000098   Data           2  os_var.o(.data)
    OSSchedLockTimeBegin                     0x2000009c   Data           4  os_var.o(.data)
    OSSchedLockTimeMax                       0x200000a0   Data           4  os_var.o(.data)
    OSSchedLockTimeMaxCur                    0x200000a4   Data           4  os_var.o(.data)
    OSSchedLockNestingCtr                    0x200000a8   Data           1  os_var.o(.data)
    OSSchedRoundRobinDfltTimeQuanta          0x200000ac   Data           4  os_var.o(.data)
    OSSchedRoundRobinEn                      0x200000b0   Data           1  os_var.o(.data)
    OSSemDbgListPtr                          0x200000b4   Data           4  os_var.o(.data)
    OSSemQty                                 0x200000b8   Data           2  os_var.o(.data)
    OSStatResetFlag                          0x200000ba   Data           1  os_var.o(.data)
    OSStatTaskCPUUsage                       0x200000bc   Data           2  os_var.o(.data)
    OSStatTaskCPUUsageMax                    0x200000be   Data           2  os_var.o(.data)
    OSStatTaskCtr                            0x200000c0   Data           4  os_var.o(.data)
    OSStatTaskCtrMax                         0x200000c4   Data           4  os_var.o(.data)
    OSStatTaskCtrRun                         0x200000c8   Data           4  os_var.o(.data)
    OSStatTaskRdy                            0x200000cc   Data           1  os_var.o(.data)
    OSStatTaskTimeMax                        0x200000d0   Data           4  os_var.o(.data)
    OSTaskCtxSwCtr                           0x200000d4   Data           4  os_var.o(.data)
    OSTaskDbgListPtr                         0x200000d8   Data           4  os_var.o(.data)
    OSTaskQty                                0x200000dc   Data           2  os_var.o(.data)
    OSTaskRegNextAvailID                     0x200000de   Data           1  os_var.o(.data)
    OSTickCtr                                0x200000e0   Data           4  os_var.o(.data)
    OSTickTaskTimeMax                        0x200000e4   Data           4  os_var.o(.data)
    OSTmrDbgListPtr                          0x200000e8   Data           4  os_var.o(.data)
    OSTmrTaskTimeMax                         0x200000ec   Data           4  os_var.o(.data)
    OSTmrTickCtr                             0x200000f0   Data           4  os_var.o(.data)
    OSTmrUpdateCnt                           0x200000f4   Data           4  os_var.o(.data)
    OSTmrUpdateCtr                           0x200000f8   Data           4  os_var.o(.data)
    OSTCBCurPtr                              0x200000fc   Data           4  os_var.o(.data)
    OSTCBHighRdyPtr                          0x20000100   Data           4  os_var.o(.data)
    __stdout                                 0x20000104   Data           4  stdout.o(.data)
    START_TASK_STK                           0x20000108   Data         256  main.o(.bss)
    LED0_TASK_STK                            0x20000208   Data         256  main.o(.bss)
    MSG_TASK_STK                             0x20000308   Data         256  main.o(.bss)
    StartTaskTCB                             0x20000408   Data         200  main.o(.bss)
    Led0TaskTCB                              0x200004d0   Data         200  main.o(.bss)
    MsgTaskTCB                               0x20000598   Data         200  main.o(.bss)
    huart1                                   0x20000660   Data          68  usart.o(.bss)
    CPU_Name                                 0x200006a4   Data          16  cpu_core.o(.bss)
    Mem_PoolHeap                             0x200006b4   Data          72  lib_mem.o(.bss)
    Mem_Heap                                 0x200006fc   Data        5120  lib_mem.o(.bss)
    OSCfg_IdleTaskStk                        0x20001afc   Data         512  os_cfg_app.o(.bss)
    OSCfg_IntQ                               0x20001cfc   Data         320  os_cfg_app.o(.bss)
    OSCfg_IntQTaskStk                        0x20001e3c   Data         512  os_cfg_app.o(.bss)
    OSCfg_ISRStk                             0x2000203c   Data         512  os_cfg_app.o(.bss)
    OSCfg_MsgPool                            0x2000223c   Data        1600  os_cfg_app.o(.bss)
    OSCfg_StatTaskStk                        0x2000287c   Data         512  os_cfg_app.o(.bss)
    OSCfg_TickTaskStk                        0x20002a7c   Data         512  os_cfg_app.o(.bss)
    OSCfg_TickWheel                          0x20002c7c   Data         136  os_cfg_app.o(.bss)
    OSCfg_TmrTaskStk                         0x20002d04   Data         512  os_cfg_app.o(.bss)
    OSCfg_TmrWheel                           0x20002f04   Data         136  os_cfg_app.o(.bss)
    OSIdleTaskTCB                            0x20002f8c   Data         200  os_var.o(.bss)
    OSIntQTaskTCB                            0x20003054   Data         200  os_var.o(.bss)
    OSMsgPool                                0x2000311c   Data          12  os_var.o(.bss)
    OSRdyList                                0x20003128   Data         384  os_var.o(.bss)
    OSStatTaskTCB                            0x200032a8   Data         200  os_var.o(.bss)
    OSTickTaskTCB                            0x20003370   Data         200  os_var.o(.bss)
    OSTmrTaskTCB                             0x20003438   Data         200  os_var.o(.bss)
    __initial_sp                             0x20003900   Data           0  startup_stm32f103xb.o(STACK)



==============================================================================

Memory Map of the image

  Image Entry point : 0x080000ed

  Load Region LR_IROM1 (Base: 0x08000000, Size: 0x000043f8, Max: 0x00010000, ABSOLUTE)

    Execution Region ER_IROM1 (Exec base: 0x08000000, Load base: 0x08000000, Size: 0x000042f0, Max: 0x00010000, ABSOLUTE)

    Exec Addr    Load Addr    Size         Type   Attr      Idx    E Section Name        Object

    0x08000000   0x08000000   0x000000ec   Data   RO            3    RESET               startup_stm32f103xb.o
    0x080000ec   0x080000ec   0x00000000   Code   RO         3914  * .ARM.Collect$$$$00000000  mc_w.l(entry.o)
    0x080000ec   0x080000ec   0x00000004   Code   RO         4183    .ARM.Collect$$$$00000001  mc_w.l(entry2.o)
    0x080000f0   0x080000f0   0x00000004   Code   RO         4186    .ARM.Collect$$$$00000004  mc_w.l(entry5.o)
    0x080000f4   0x080000f4   0x00000000   Code   RO         4188    .ARM.Collect$$$$00000008  mc_w.l(entry7b.o)
    0x080000f4   0x080000f4   0x00000000   Code   RO         4190    .ARM.Collect$$$$0000000A  mc_w.l(entry8b.o)
    0x080000f4   0x080000f4   0x00000008   Code   RO         4191    .ARM.Collect$$$$0000000B  mc_w.l(entry9a.o)
    0x080000fc   0x080000fc   0x00000000   Code   RO         4193    .ARM.Collect$$$$0000000D  mc_w.l(entry10a.o)
    0x080000fc   0x080000fc   0x00000000   Code   RO         4195    .ARM.Collect$$$$0000000F  mc_w.l(entry11a.o)
    0x080000fc   0x080000fc   0x00000004   Code   RO         4184    .ARM.Collect$$$$00002712  mc_w.l(entry2.o)
    0x08000100   0x08000100   0x00000024   Code   RO            4    .text               startup_stm32f103xb.o
    0x08000124   0x08000124   0x00000034   Code   RO         1999    .text               cpu_a.o
    0x08000158   0x08000158   0x00000024   Code   RO         3921    .text               mc_w.l(memseta.o)
    0x0800017c   0x0800017c   0x00000024   Code   RO         4213    .text               mc_w.l(init.o)
    0x080001a0   0x080001a0   0x00000084   Code   RO         2464    CODE                os_cpu_a.o
    0x08000224   0x08000224   0x0000000e   Code   RO         3855    i.BSP_Init          bsp.o
    0x08000232   0x08000232   0x00000002   PAD
    0x08000234   0x08000234   0x0000001c   Code   RO         3856    i.BSP_Tick_Init     bsp.o
    0x08000250   0x08000250   0x00000002   Code   RO          301    i.BusFault_Handler  stm32f1xx_it.o
    0x08000252   0x08000252   0x00000002   PAD
    0x08000254   0x08000254   0x0000001c   Code   RO         1847    i.CPU_Init          cpu_core.o
    0x08000270   0x08000270   0x0000004c   Code   RO         1848    i.CPU_IntDisMeasInit  cpu_core.o
    0x080002bc   0x080002bc   0x00000014   Code   RO         1849    i.CPU_IntDisMeasMaxCalc  cpu_core.o
    0x080002d0   0x080002d0   0x0000001c   Code   RO         1850    i.CPU_IntDisMeasMaxCurGet  cpu_core.o
    0x080002ec   0x080002ec   0x00000020   Code   RO         1851    i.CPU_IntDisMeasMaxCurReset  cpu_core.o
    0x0800030c   0x0800030c   0x0000001c   Code   RO         1852    i.CPU_IntDisMeasMaxGet  cpu_core.o
    0x08000328   0x08000328   0x00000020   Code   RO         1853    i.CPU_IntDisMeasStart  cpu_core.o
    0x08000348   0x08000348   0x00000030   Code   RO         1854    i.CPU_IntDisMeasStop  cpu_core.o
    0x08000378   0x08000378   0x00000028   Code   RO         1855    i.CPU_NameClr       cpu_core.o
    0x080003a0   0x080003a0   0x0000000c   Code   RO         1861    i.CPU_TS_TmrFreqSet  cpu_core.o
    0x080003ac   0x080003ac   0x00000030   Code   RO         3858    i.CPU_TS_TmrInit    bsp.o
    0x080003dc   0x080003dc   0x0000000c   Code   RO         3859    i.CPU_TS_TmrRd      bsp.o
    0x080003e8   0x080003e8   0x00000002   Code   RO          302    i.DebugMon_Handler  stm32f1xx_it.o
    0x080003ea   0x080003ea   0x00000002   Code   RO           13    i.Error_Handler     main.o
    0x080003ec   0x080003ec   0x000001e0   Code   RO         1144    i.HAL_GPIO_Init     stm32f1xx_hal_gpio.o
    0x080005cc   0x080005cc   0x0000000a   Code   RO         1148    i.HAL_GPIO_WritePin  stm32f1xx_hal_gpio.o
    0x080005d6   0x080005d6   0x00000002   PAD
    0x080005d8   0x080005d8   0x0000000c   Code   RO          840    i.HAL_GetTick       stm32f1xx_hal.o
    0x080005e4   0x080005e4   0x00000024   Code   RO          847    i.HAL_Init          stm32f1xx_hal.o
    0x08000608   0x08000608   0x00000040   Code   RO          848    i.HAL_InitTick      stm32f1xx_hal.o
    0x08000648   0x08000648   0x0000003c   Code   RO          376    i.HAL_MspInit       stm32f1xx_hal_msp.o
    0x08000684   0x08000684   0x00000040   Code   RO         1310    i.HAL_NVIC_SetPriority  stm32f1xx_hal_cortex.o
    0x080006c4   0x080006c4   0x00000024   Code   RO         1311    i.HAL_NVIC_SetPriorityGrouping  stm32f1xx_hal_cortex.o
    0x080006e8   0x080006e8   0x0000012c   Code   RO         1004    i.HAL_RCC_ClockConfig  stm32f1xx_hal_rcc.o
    0x08000814   0x08000814   0x0000000c   Code   RO         1009    i.HAL_RCC_GetHCLKFreq  stm32f1xx_hal_rcc.o
    0x08000820   0x08000820   0x00000020   Code   RO         1011    i.HAL_RCC_GetPCLK1Freq  stm32f1xx_hal_rcc.o
    0x08000840   0x08000840   0x00000020   Code   RO         1012    i.HAL_RCC_GetPCLK2Freq  stm32f1xx_hal_rcc.o
    0x08000860   0x08000860   0x0000006c   Code   RO         1013    i.HAL_RCC_GetSysClockFreq  stm32f1xx_hal_rcc.o
    0x080008cc   0x080008cc   0x00000320   Code   RO         1016    i.HAL_RCC_OscConfig  stm32f1xx_hal_rcc.o
    0x08000bec   0x08000bec   0x00000028   Code   RO         1315    i.HAL_SYSTICK_Config  stm32f1xx_hal_cortex.o
    0x08000c14   0x08000c14   0x00000062   Code   RO          501    i.HAL_UART_Init     stm32f1xx_hal_uart.o
    0x08000c76   0x08000c76   0x00000002   PAD
    0x08000c78   0x08000c78   0x00000070   Code   RO          254    i.HAL_UART_MspInit  usart.o
    0x08000ce8   0x08000ce8   0x000000b2   Code   RO          509    i.HAL_UART_Transmit  stm32f1xx_hal_uart.o
    0x08000d9a   0x08000d9a   0x00000002   Code   RO          303    i.HardFault_Handler  stm32f1xx_it.o
    0x08000d9c   0x08000d9c   0x00000070   Code   RO          225    i.MX_GPIO_Init      gpio.o
    0x08000e0c   0x08000e0c   0x00000038   Code   RO          255    i.MX_USART1_UART_Init  usart.o
    0x08000e44   0x08000e44   0x00000002   Code   RO          304    i.MemManage_Handler  stm32f1xx_it.o
    0x08000e46   0x08000e46   0x00000008   Code   RO         2190    i.Mem_Clr           lib_mem.o
    0x08000e4e   0x08000e4e   0x00000002   PAD
    0x08000e50   0x08000e50   0x00000044   Code   RO         2194    i.Mem_Init          lib_mem.o
    0x08000e94   0x08000e94   0x0000004c   Code   RO         2207    i.Mem_Set           lib_mem.o
    0x08000ee0   0x08000ee0   0x00000002   Code   RO          305    i.NMI_Handler       stm32f1xx_it.o
    0x08000ee2   0x08000ee2   0x00000002   Code   RO         2545    i.OSCfg_Init        os_cfg_app.o
    0x08000ee4   0x08000ee4   0x00000010   Code   RO         2467    i.OSIdleTaskHook    os_cpu_c.o
    0x08000ef4   0x08000ef4   0x00000184   Code   RO         2617    i.OSInit            os_core.o
    0x08001078   0x08001078   0x00000034   Code   RO         2468    i.OSInitHook        os_cpu_c.o
    0x080010ac   0x080010ac   0x00000090   Code   RO         2619    i.OSIntExit         os_core.o
    0x0800113c   0x0800113c   0x0000007c   Code   RO         2620    i.OSSched           os_core.o
    0x080011b8   0x080011b8   0x0000005c   Code   RO         2621    i.OSSchedLock       os_core.o
    0x08001214   0x08001214   0x00000058   Code   RO         2622    i.OSSchedRoundRobinCfg  os_core.o
    0x0800126c   0x0800126c   0x00000074   Code   RO         2624    i.OSSchedUnlock     os_core.o
    0x080012e0   0x080012e0   0x00000058   Code   RO         2625    i.OSStart           os_core.o
    0x08001338   0x08001338   0x000000f8   Code   RO         3327    i.OSStatReset       os_stat.o
    0x08001430   0x08001430   0x000000b4   Code   RO         3328    i.OSStatTaskCPUUsageInit  os_stat.o
    0x080014e4   0x080014e4   0x00000010   Code   RO         2469    i.OSStatTaskHook    os_cpu_c.o
    0x080014f4   0x080014f4   0x000001f8   Code   RO         3358    i.OSTaskCreate      os_task.o
    0x080016ec   0x080016ec   0x00000010   Code   RO         2470    i.OSTaskCreateHook  os_cpu_c.o
    0x080016fc   0x080016fc   0x0000016c   Code   RO         3359    i.OSTaskDel         os_task.o
    0x08001868   0x08001868   0x00000010   Code   RO         2471    i.OSTaskDelHook     os_cpu_c.o
    0x08001878   0x08001878   0x00000070   Code   RO         3367    i.OSTaskResume      os_task.o
    0x080018e8   0x080018e8   0x00000010   Code   RO         2472    i.OSTaskReturnHook  os_cpu_c.o
    0x080018f8   0x080018f8   0x00000170   Code   RO         3368    i.OSTaskSemPend     os_task.o
    0x08001a68   0x08001a68   0x000000ac   Code   RO         3372    i.OSTaskStkChk      os_task.o
    0x08001b14   0x08001b14   0x00000070   Code   RO         2473    i.OSTaskStkInit     os_cpu_c.o
    0x08001b84   0x08001b84   0x00000054   Code   RO         3373    i.OSTaskSuspend     os_task.o
    0x08001bd8   0x08001bd8   0x00000068   Code   RO         2474    i.OSTaskSwHook      os_cpu_c.o
    0x08001c40   0x08001c40   0x000000ec   Code   RO         3573    i.OSTimeDly         os_time.o
    0x08001d2c   0x08001d2c   0x00000188   Code   RO         3574    i.OSTimeDlyHMSM     os_time.o
    0x08001eb4   0x08001eb4   0x00000040   Code   RO         3578    i.OSTimeTick        os_time.o
    0x08001ef4   0x08001ef4   0x00000010   Code   RO         2475    i.OSTimeTickHook    os_cpu_c.o
    0x08001f04   0x08001f04   0x00000030   Code   RO         2476    i.OS_CPU_SysTickHandler  os_cpu_c.o
    0x08001f34   0x08001f34   0x00000028   Code   RO         2477    i.OS_CPU_SysTickInit  os_cpu_c.o
    0x08001f5c   0x08001f5c   0x00000002   Code   RO         2855    i.OS_Dbg_Init       os_dbg.o
    0x08001f5e   0x08001f5e   0x00000002   PAD
    0x08001f60   0x08001f60   0x00000018   Code   RO         2881    i.OS_FlagInit       os_flag.o
    0x08001f78   0x08001f78   0x00000188   Code   RO         2882    i.OS_FlagPost       os_flag.o
    0x08002100   0x08002100   0x00000044   Code   RO         2883    i.OS_FlagTaskRdy    os_flag.o
    0x08002144   0x08002144   0x00000034   Code   RO         2627    i.OS_IdleTask       os_core.o
    0x08002178   0x08002178   0x00000068   Code   RO         2628    i.OS_IdleTaskInit   os_core.o
    0x080021e0   0x080021e0   0x000000b8   Code   RO         2954    i.OS_IntQPost       os_int.o
    0x08002298   0x08002298   0x0000011c   Code   RO         2955    i.OS_IntQRePost     os_int.o
    0x080023b4   0x080023b4   0x00000088   Code   RO         2956    i.OS_IntQTask       os_int.o
    0x0800243c   0x0800243c   0x00000118   Code   RO         2957    i.OS_IntQTaskInit   os_int.o
    0x08002554   0x08002554   0x00000018   Code   RO         2988    i.OS_MemInit        os_mem.o
    0x0800256c   0x0800256c   0x00000068   Code   RO         3020    i.OS_MsgPoolInit    os_msg.o
    0x080025d4   0x080025d4   0x00000034   Code   RO         3021    i.OS_MsgQFreeAll    os_msg.o
    0x08002608   0x08002608   0x0000000e   Code   RO         3023    i.OS_MsgQInit       os_msg.o
    0x08002616   0x08002616   0x00000002   PAD
    0x08002618   0x08002618   0x00000088   Code   RO         3024    i.OS_MsgQPut        os_msg.o
    0x080026a0   0x080026a0   0x00000018   Code   RO         3064    i.OS_MutexInit      os_mutex.o
    0x080026b8   0x080026b8   0x00000050   Code   RO         2629    i.OS_Pend           os_core.o
    0x08002708   0x08002708   0x00000030   Code   RO         2632    i.OS_PendDataInit   os_core.o
    0x08002738   0x08002738   0x00000048   Code   RO         2633    i.OS_PendDbgNameAdd  os_core.o
    0x08002780   0x08002780   0x0000001c   Code   RO         2634    i.OS_PendDbgNameRemove  os_core.o
    0x0800279c   0x0800279c   0x0000005a   Code   RO         2638    i.OS_PendListInsertPrio  os_core.o
    0x080027f6   0x080027f6   0x00000026   Code   RO         2639    i.OS_PendListRemove  os_core.o
    0x0800281c   0x0800281c   0x00000036   Code   RO         2640    i.OS_PendListRemove1  os_core.o
    0x08002852   0x08002852   0x00000098   Code   RO         2643    i.OS_Post           os_core.o
    0x080028ea   0x080028ea   0x00000026   Code   RO         2644    i.OS_Post1          os_core.o
    0x08002910   0x08002910   0x00000024   Code   RO         3146    i.OS_PrioGetHighest  os_prio.o
    0x08002934   0x08002934   0x0000000c   Code   RO         3147    i.OS_PrioInit       os_prio.o
    0x08002940   0x08002940   0x00000020   Code   RO         3148    i.OS_PrioInsert     os_prio.o
    0x08002960   0x08002960   0x00000020   Code   RO         3149    i.OS_PrioRemove     os_prio.o
    0x08002980   0x08002980   0x00000018   Code   RO         3192    i.OS_QInit          os_q.o
    0x08002998   0x08002998   0x00000104   Code   RO         3193    i.OS_QPost          os_q.o
    0x08002a9c   0x08002a9c   0x00000024   Code   RO         2645    i.OS_RdyListInit    os_core.o
    0x08002ac0   0x08002ac0   0x00000030   Code   RO         2646    i.OS_RdyListInsert  os_core.o
    0x08002af0   0x08002af0   0x00000038   Code   RO         2647    i.OS_RdyListInsertHead  os_core.o
    0x08002b28   0x08002b28   0x00000034   Code   RO         2648    i.OS_RdyListInsertTail  os_core.o
    0x08002b5c   0x08002b5c   0x00000034   Code   RO         2649    i.OS_RdyListMoveHeadToTail  os_core.o
    0x08002b90   0x08002b90   0x00000054   Code   RO         2650    i.OS_RdyListRemove  os_core.o
    0x08002be4   0x08002be4   0x00000048   Code   RO         2651    i.OS_Sched0         os_core.o
    0x08002c2c   0x08002c2c   0x0000001c   Code   RO         2652    i.OS_SchedLockTimeMeasStart  os_core.o
    0x08002c48   0x08002c48   0x0000003c   Code   RO         2653    i.OS_SchedLockTimeMeasStop  os_core.o
    0x08002c84   0x08002c84   0x00000068   Code   RO         2654    i.OS_SchedRoundRobin  os_core.o
    0x08002cec   0x08002cec   0x00000018   Code   RO         3264    i.OS_SemInit        os_sem.o
    0x08002d04   0x08002d04   0x000000e4   Code   RO         3265    i.OS_SemPost        os_sem.o
    0x08002de8   0x08002de8   0x000002a4   Code   RO         3329    i.OS_StatTask       os_stat.o
    0x0800308c   0x0800308c   0x000000bc   Code   RO         3330    i.OS_StatTaskInit   os_stat.o
    0x08003148   0x08003148   0x0000002a   Code   RO         2655    i.OS_TaskBlock      os_core.o
    0x08003172   0x08003172   0x00000002   PAD
    0x08003174   0x08003174   0x00000024   Code   RO         3375    i.OS_TaskDbgListAdd  os_task.o
    0x08003198   0x08003198   0x00000038   Code   RO         3376    i.OS_TaskDbgListRemove  os_task.o
    0x080031d0   0x080031d0   0x00000020   Code   RO         3377    i.OS_TaskInit       os_task.o
    0x080031f0   0x080031f0   0x000000c8   Code   RO         3378    i.OS_TaskInitTCB    os_task.o
    0x080032b8   0x080032b8   0x00000144   Code   RO         3379    i.OS_TaskQPost      os_task.o
    0x080033fc   0x080033fc   0x0000001c   Code   RO         2656    i.OS_TaskRdy        os_core.o
    0x08003418   0x08003418   0x00000100   Code   RO         3380    i.OS_TaskResume     os_task.o
    0x08003518   0x08003518   0x00000018   Code   RO         3381    i.OS_TaskReturn     os_task.o
    0x08003530   0x08003530   0x00000188   Code   RO         3382    i.OS_TaskSemPost    os_task.o
    0x080036b8   0x080036b8   0x000000e8   Code   RO         3383    i.OS_TaskSuspend    os_task.o
    0x080037a0   0x080037a0   0x0000002c   Code   RO         3525    i.OS_TickListInit   os_tick.o
    0x080037cc   0x080037cc   0x000000d8   Code   RO         3526    i.OS_TickListInsert  os_tick.o
    0x080038a4   0x080038a4   0x00000036   Code   RO         3527    i.OS_TickListRemove  os_tick.o
    0x080038da   0x080038da   0x00000002   PAD
    0x080038dc   0x080038dc   0x00000028   Code   RO         3528    i.OS_TickListResetPeak  os_tick.o
    0x08003904   0x08003904   0x0000017c   Code   RO         3529    i.OS_TickListUpdate  os_tick.o
    0x08003a80   0x08003a80   0x00000028   Code   RO         3530    i.OS_TickTask       os_tick.o
    0x08003aa8   0x08003aa8   0x000000a8   Code   RO         3531    i.OS_TickTaskInit   os_tick.o
    0x08003b50   0x08003b50   0x00000104   Code   RO         3624    i.OS_TmrInit        os_tmr.o
    0x08003c54   0x08003c54   0x00000098   Code   RO         3625    i.OS_TmrLink        os_tmr.o
    0x08003cec   0x08003cec   0x00000028   Code   RO         3626    i.OS_TmrResetPeak   os_tmr.o
    0x08003d14   0x08003d14   0x000000a4   Code   RO         3627    i.OS_TmrTask        os_tmr.o
    0x08003db8   0x08003db8   0x0000004c   Code   RO         3628    i.OS_TmrUnlink      os_tmr.o
    0x08003e04   0x08003e04   0x00000002   Code   RO          307    i.SVC_Handler       stm32f1xx_it.o
    0x08003e06   0x08003e06   0x0000004e   Code   RO           14    i.SystemClock_Config  main.o
    0x08003e54   0x08003e54   0x00000002   Code   RO         1805    i.SystemInit        system_stm32f1xx.o
    0x08003e56   0x08003e56   0x00000002   PAD
    0x08003e58   0x08003e58   0x000000b8   Code   RO          527    i.UART_SetConfig    stm32f1xx_hal_uart.o
    0x08003f10   0x08003f10   0x00000064   Code   RO          530    i.UART_WaitOnFlagUntilTimeout  stm32f1xx_hal_uart.o
    0x08003f74   0x08003f74   0x00000002   Code   RO          309    i.UsageFault_Handler  stm32f1xx_it.o
    0x08003f76   0x08003f76   0x00000002   PAD
    0x08003f78   0x08003f78   0x00000010   Code   RO         3924    i.__0printf$bare    mc_w.l(printfb.o)
    0x08003f88   0x08003f88   0x00000020   Code   RO         1317    i.__NVIC_SetPriority  stm32f1xx_hal_cortex.o
    0x08003fa8   0x08003fa8   0x0000000e   Code   RO         4221    i.__scatterload_copy  mc_w.l(handlers.o)
    0x08003fb6   0x08003fb6   0x00000002   Code   RO         4222    i.__scatterload_null  mc_w.l(handlers.o)
    0x08003fb8   0x08003fb8   0x0000000e   Code   RO         4223    i.__scatterload_zeroinit  mc_w.l(handlers.o)
    0x08003fc6   0x08003fc6   0x00000022   Code   RO         3931    i._printf_core      mc_w.l(printfb.o)
    0x08003fe8   0x08003fe8   0x00000018   Code   RO          256    i.fputc             usart.o
    0x08004000   0x08004000   0x00000060   Code   RO           15    i.led_pc13          main.o
    0x08004060   0x08004060   0x00000064   Code   RO           16    i.main              main.o
    0x080040c4   0x080040c4   0x00000064   Code   RO           17    i.send_msg          main.o
    0x08004128   0x08004128   0x0000011c   Code   RO           18    i.start_task        main.o
    0x08004244   0x08004244   0x00000010   Data   RO         1806    .constdata          system_stm32f1xx.o
    0x08004254   0x08004254   0x00000008   Data   RO         1807    .constdata          system_stm32f1xx.o
    0x0800425c   0x0800425c   0x00000004   Data   RO         2556    .constdata          os_cfg_app.o
    0x08004260   0x08004260   0x00000004   Data   RO         2557    .constdata          os_cfg_app.o
    0x08004264   0x08004264   0x00000004   Data   RO         2558    .constdata          os_cfg_app.o
    0x08004268   0x08004268   0x00000004   Data   RO         2560    .constdata          os_cfg_app.o
    0x0800426c   0x0800426c   0x00000002   Data   RO         2561    .constdata          os_cfg_app.o
    0x0800426e   0x0800426e   0x00000002   PAD
    0x08004270   0x08004270   0x00000004   Data   RO         2563    .constdata          os_cfg_app.o
    0x08004274   0x08004274   0x00000004   Data   RO         2564    .constdata          os_cfg_app.o
    0x08004278   0x08004278   0x00000004   Data   RO         2565    .constdata          os_cfg_app.o
    0x0800427c   0x0800427c   0x00000004   Data   RO         2567    .constdata          os_cfg_app.o
    0x08004280   0x08004280   0x00000004   Data   RO         2568    .constdata          os_cfg_app.o
    0x08004284   0x08004284   0x00000002   Data   RO         2570    .constdata          os_cfg_app.o
    0x08004286   0x08004286   0x00000002   PAD
    0x08004288   0x08004288   0x00000004   Data   RO         2572    .constdata          os_cfg_app.o
    0x0800428c   0x0800428c   0x00000001   Data   RO         2573    .constdata          os_cfg_app.o
    0x0800428d   0x0800428d   0x00000003   PAD
    0x08004290   0x08004290   0x00000004   Data   RO         2574    .constdata          os_cfg_app.o
    0x08004294   0x08004294   0x00000004   Data   RO         2575    .constdata          os_cfg_app.o
    0x08004298   0x08004298   0x00000004   Data   RO         2576    .constdata          os_cfg_app.o
    0x0800429c   0x0800429c   0x00000004   Data   RO         2577    .constdata          os_cfg_app.o
    0x080042a0   0x080042a0   0x00000004   Data   RO         2579    .constdata          os_cfg_app.o
    0x080042a4   0x080042a4   0x00000004   Data   RO         2580    .constdata          os_cfg_app.o
    0x080042a8   0x080042a8   0x00000001   Data   RO         2581    .constdata          os_cfg_app.o
    0x080042a9   0x080042a9   0x00000003   PAD
    0x080042ac   0x080042ac   0x00000004   Data   RO         2582    .constdata          os_cfg_app.o
    0x080042b0   0x080042b0   0x00000004   Data   RO         2583    .constdata          os_cfg_app.o
    0x080042b4   0x080042b4   0x00000004   Data   RO         2584    .constdata          os_cfg_app.o
    0x080042b8   0x080042b8   0x00000002   Data   RO         2586    .constdata          os_cfg_app.o
    0x080042ba   0x080042ba   0x00000001   Data   RO         2588    .constdata          os_cfg_app.o
    0x080042bb   0x080042bb   0x00000001   PAD
    0x080042bc   0x080042bc   0x00000004   Data   RO         2589    .constdata          os_cfg_app.o
    0x080042c0   0x080042c0   0x00000004   Data   RO         2590    .constdata          os_cfg_app.o
    0x080042c4   0x080042c4   0x00000004   Data   RO         2591    .constdata          os_cfg_app.o
    0x080042c8   0x080042c8   0x00000004   Data   RO         2592    .constdata          os_cfg_app.o
    0x080042cc   0x080042cc   0x00000002   Data   RO         2594    .constdata          os_cfg_app.o
    0x080042ce   0x080042ce   0x00000002   PAD
    0x080042d0   0x080042d0   0x00000020   Data   RO         4219    Region$$Table       anon$$obj.o


    Execution Region RW_IRAM1 (Exec base: 0x20000000, Load base: 0x080042f0, Size: 0x00003900, Max: 0x00008000, ABSOLUTE)

    Exec Addr    Load Addr    Size         Type   Attr      Idx    E Section Name        Object

    0x20000000   0x080042f0   0x0000000c   Data   RW          854    .data               stm32f1xx_hal.o
    0x2000000c   0x080042fc   0x00000004   Data   RW         1808    .data               system_stm32f1xx.o
    0x20000010   0x08004300   0x0000001c   Data   RW         1865    .data               cpu_core.o
    0x2000002c   0x0800431c   0x00000004   Data   RW         2209    .data               lib_mem.o
    0x20000030   0x08004320   0x00000004   Data   RW         2478    .data               os_cpu_c.o
    0x20000034   0x08004324   0x00000004   Data   RW         3150    .data               os_prio.o
    0x20000038   0x08004328   0x00000004   Data   RW         3712    .data               os_var.o
    0x2000003c   0x0800432c   0x00000004   Data   RW         3713    .data               os_var.o
    0x20000040   0x08004330   0x00000004   Data   RW         3714    .data               os_var.o
    0x20000044   0x08004334   0x00000004   Data   RW         3715    .data               os_var.o
    0x20000048   0x08004338   0x00000004   Data   RW         3716    .data               os_var.o
    0x2000004c   0x0800433c   0x00000004   Data   RW         3717    .data               os_var.o
    0x20000050   0x08004340   0x00000004   Data   RW         3718    .data               os_var.o
    0x20000054   0x08004344   0x00000004   Data   RW         3719    .data               os_var.o
    0x20000058   0x08004348   0x00000001   Data   RW         3720    .data               os_var.o
    0x20000059   0x08004349   0x00000003   PAD
    0x2000005c   0x0800434c   0x00000004   Data   RW         3721    .data               os_var.o
    0x20000060   0x08004350   0x00000001   Data   RW         3722    .data               os_var.o
    0x20000061   0x08004351   0x00000003   PAD
    0x20000064   0x08004354   0x00000004   Data   RW         3723    .data               os_var.o
    0x20000068   0x08004358   0x00000004   Data   RW         3724    .data               os_var.o
    0x2000006c   0x0800435c   0x00000002   Data   RW         3725    .data               os_var.o
    0x2000006e   0x0800435e   0x00000002   Data   RW         3726    .data               os_var.o
    0x20000070   0x08004360   0x00000002   Data   RW         3727    .data               os_var.o
    0x20000072   0x08004362   0x00000002   PAD
    0x20000074   0x08004364   0x00000004   Data   RW         3728    .data               os_var.o
    0x20000078   0x08004368   0x00000004   Data   RW         3729    .data               os_var.o
    0x2000007c   0x0800436c   0x00000002   Data   RW         3730    .data               os_var.o
    0x2000007e   0x0800436e   0x00000002   PAD
    0x20000080   0x08004370   0x00000004   Data   RW         3731    .data               os_var.o
    0x20000084   0x08004374   0x00000002   Data   RW         3732    .data               os_var.o
    0x20000086   0x08004376   0x00000002   PAD
    0x20000088   0x08004378   0x00000004   Data   RW         3733    .data               os_var.o
    0x2000008c   0x0800437c   0x00000002   Data   RW         3734    .data               os_var.o
    0x2000008e   0x0800437e   0x00000001   Data   RW         3735    .data               os_var.o
    0x2000008f   0x0800437f   0x00000001   Data   RW         3736    .data               os_var.o
    0x20000090   0x08004380   0x00000001   Data   RW         3737    .data               os_var.o
    0x20000091   0x08004381   0x00000003   PAD
    0x20000094   0x08004384   0x00000004   Data   RW         3738    .data               os_var.o
    0x20000098   0x08004388   0x00000002   Data   RW         3739    .data               os_var.o
    0x2000009a   0x0800438a   0x00000002   PAD
    0x2000009c   0x0800438c   0x00000004   Data   RW         3740    .data               os_var.o
    0x200000a0   0x08004390   0x00000004   Data   RW         3741    .data               os_var.o
    0x200000a4   0x08004394   0x00000004   Data   RW         3742    .data               os_var.o
    0x200000a8   0x08004398   0x00000001   Data   RW         3743    .data               os_var.o
    0x200000a9   0x08004399   0x00000003   PAD
    0x200000ac   0x0800439c   0x00000004   Data   RW         3744    .data               os_var.o
    0x200000b0   0x080043a0   0x00000001   Data   RW         3745    .data               os_var.o
    0x200000b1   0x080043a1   0x00000003   PAD
    0x200000b4   0x080043a4   0x00000004   Data   RW         3746    .data               os_var.o
    0x200000b8   0x080043a8   0x00000002   Data   RW         3747    .data               os_var.o
    0x200000ba   0x080043aa   0x00000001   Data   RW         3748    .data               os_var.o
    0x200000bb   0x080043ab   0x00000001   PAD
    0x200000bc   0x080043ac   0x00000002   Data   RW         3749    .data               os_var.o
    0x200000be   0x080043ae   0x00000002   Data   RW         3750    .data               os_var.o
    0x200000c0   0x080043b0   0x00000004   Data   RW         3751    .data               os_var.o
    0x200000c4   0x080043b4   0x00000004   Data   RW         3752    .data               os_var.o
    0x200000c8   0x080043b8   0x00000004   Data   RW         3753    .data               os_var.o
    0x200000cc   0x080043bc   0x00000001   Data   RW         3754    .data               os_var.o
    0x200000cd   0x080043bd   0x00000003   PAD
    0x200000d0   0x080043c0   0x00000004   Data   RW         3755    .data               os_var.o
    0x200000d4   0x080043c4   0x00000004   Data   RW         3756    .data               os_var.o
    0x200000d8   0x080043c8   0x00000004   Data   RW         3757    .data               os_var.o
    0x200000dc   0x080043cc   0x00000002   Data   RW         3758    .data               os_var.o
    0x200000de   0x080043ce   0x00000001   Data   RW         3759    .data               os_var.o
    0x200000df   0x080043cf   0x00000001   PAD
    0x200000e0   0x080043d0   0x00000004   Data   RW         3760    .data               os_var.o
    0x200000e4   0x080043d4   0x00000004   Data   RW         3761    .data               os_var.o
    0x200000e8   0x080043d8   0x00000004   Data   RW         3762    .data               os_var.o
    0x200000ec   0x080043dc   0x00000004   Data   RW         3764    .data               os_var.o
    0x200000f0   0x080043e0   0x00000004   Data   RW         3765    .data               os_var.o
    0x200000f4   0x080043e4   0x00000004   Data   RW         3766    .data               os_var.o
    0x200000f8   0x080043e8   0x00000004   Data   RW         3767    .data               os_var.o
    0x200000fc   0x080043ec   0x00000004   Data   RW         3768    .data               os_var.o
    0x20000100   0x080043f0   0x00000004   Data   RW         3769    .data               os_var.o
    0x20000104   0x080043f4   0x00000004   Data   RW         4197    .data               mc_w.l(stdout.o)
    0x20000108        -       0x00000558   Zero   RW           19    .bss                main.o
    0x20000660        -       0x00000044   Zero   RW          257    .bss                usart.o
    0x200006a4        -       0x00000010   Zero   RW         1863    .bss                cpu_core.o
    0x200006b4        -       0x00001448   Zero   RW         2208    .bss                lib_mem.o
    0x20001afc        -       0x00000200   Zero   RW         2546    .bss                os_cfg_app.o
    0x20001cfc        -       0x00000140   Zero   RW         2547    .bss                os_cfg_app.o
    0x20001e3c        -       0x00000200   Zero   RW         2548    .bss                os_cfg_app.o
    0x2000203c        -       0x00000200   Zero   RW         2549    .bss                os_cfg_app.o
    0x2000223c        -       0x00000640   Zero   RW         2550    .bss                os_cfg_app.o
    0x2000287c        -       0x00000200   Zero   RW         2551    .bss                os_cfg_app.o
    0x20002a7c        -       0x00000200   Zero   RW         2552    .bss                os_cfg_app.o
    0x20002c7c        -       0x00000088   Zero   RW         2553    .bss                os_cfg_app.o
    0x20002d04        -       0x00000200   Zero   RW         2554    .bss                os_cfg_app.o
    0x20002f04        -       0x00000088   Zero   RW         2555    .bss                os_cfg_app.o
    0x20002f8c        -       0x000000c8   Zero   RW         3705    .bss                os_var.o
    0x20003054        -       0x000000c8   Zero   RW         3706    .bss                os_var.o
    0x2000311c        -       0x0000000c   Zero   RW         3707    .bss                os_var.o
    0x20003128        -       0x00000180   Zero   RW         3708    .bss                os_var.o
    0x200032a8        -       0x000000c8   Zero   RW         3709    .bss                os_var.o
    0x20003370        -       0x000000c8   Zero   RW         3710    .bss                os_var.o
    0x20003438        -       0x000000c8   Zero   RW         3711    .bss                os_var.o
    0x20003500        -       0x00000400   Zero   RW            1    STACK               startup_stm32f103xb.o


==============================================================================

Image component sizes


      Code (inc. data)   RO Data    RW Data    ZI Data      Debug   Object Name

       102         22          0          0          0       2223   bsp.o
        52          0          0          0          0        284   cpu_a.o
       344         48          0         28         16      14940   cpu_core.o
       112          8          0          0          0       2087   gpio.o
       152         14          0          4       5192      12943   lib_mem.o
       660        124          0          0       1368     437056   main.o
         2          0        103          0       5264      20654   os_cfg_app.o
      2458        420          0          0          0      18480   os_core.o
       132         32          0          0          0        328   os_cpu_a.o
       452         70          0          4          0       7041   os_cpu_c.o
         2          0          0          0          0        754   os_dbg.o
       484         28          0          0          0       2939   os_flag.o
       884        200          0          0          0       3290   os_int.o
        24         10          0          0          0        725   os_mem.o
       306         20          0          0          0       2945   os_msg.o
        24         10          0          0          0        797   os_mutex.o
       112         16          0          4          0       2398   os_prio.o
       284         18          0          0          0       2084   os_q.o
       252         14          0          0          0       1910   os_sem.o
      1292        220          0          0          0       3795   os_stat.o
      3156        250          0          0          0      13036   os_task.o
       942        128          0          0          0       5149   os_tick.o
       692         42          0          0          0       2829   os_time.o
       692        136          0          0          0       3752   os_tmr.o
         0          0          0        176       1396      19329   os_var.o
        36          8        236          0       1024        780   startup_stm32f103xb.o
       112         20          0         12          0       4607   stm32f1xx_hal.o
       172         14          0          0          0      28110   stm32f1xx_hal_cortex.o
       490         34          0          0          0       2784   stm32f1xx_hal_gpio.o
        60          8          0          0          0        802   stm32f1xx_hal_msp.o
      1284        106          0          0          0       5392   stm32f1xx_hal_rcc.o
       560          6          0          0          0       3768   stm32f1xx_hal_uart.o
        14          0          0          0          0       2767   stm32f1xx_it.o
         2          0         24          4          0       1011   system_stm32f1xx.o
       192         24          0          0         68       2022   usart.o

    ----------------------------------------------------------------------
     16556       2050        408        260      14328     633811   Object Totals
         0          0         32          0          0          0   (incl. Generated)
        22          0         13         28          0          0   (incl. Padding)

    ----------------------------------------------------------------------

      Code (inc. data)   RO Data    RW Data    ZI Data      Debug   Library Member Name

         0          0          0          0          0          0   entry.o
         0          0          0          0          0          0   entry10a.o
         0          0          0          0          0          0   entry11a.o
         8          4          0          0          0          0   entry2.o
         4          0          0          0          0          0   entry5.o
         0          0          0          0          0          0   entry7b.o
         0          0          0          0          0          0   entry8b.o
         8          4          0          0          0          0   entry9a.o
        30          0          0          0          0          0   handlers.o
        36          8          0          0          0         68   init.o
        36          0          0          0          0        108   memseta.o
        50          8          0          0          0        152   printfb.o
         0          0          0          4          0          0   stdout.o

    ----------------------------------------------------------------------
       172         24          0          4          0        328   Library Totals
         0          0          0          0          0          0   (incl. Padding)

    ----------------------------------------------------------------------

      Code (inc. data)   RO Data    RW Data    ZI Data      Debug   Library Name

       172         24          0          4          0        328   mc_w.l

    ----------------------------------------------------------------------
       172         24          0          4          0        328   Library Totals

    ----------------------------------------------------------------------

==============================================================================


      Code (inc. data)   RO Data    RW Data    ZI Data      Debug   

     16728       2074        408        264      14328     626543   Grand Totals
     16728       2074        408        264      14328     626543   ELF Image Totals
     16728       2074        408        264          0          0   ROM Totals

==============================================================================

    Total RO  Size (Code + RO Data)                17136 (  16.73kB)
    Total RW  Size (RW Data + ZI Data)             14592 (  14.25kB)
    Total ROM Size (Code + RO Data + RW Data)      17400 (  16.99kB)

==============================================================================

